:020000040800F2
:1000000000000220310D0008810D0008810D00085C
:10001000810D0008810D0008810D0008000000001E
:10002000000000000000000000000000810D00083A
:10003000810D000800000000810D00083534000823
:10004000810D0008810D0008810D0008810D000858
:10005000810D0008810D0008810D0008810D000848
:10006000810D0008810D0008810D0008810D000838
:10007000810D0008810D0008810D0008810D000828
:1000800045340008810D0008810D0008810D00082D
:10009000810D0008810D0008810D0008810D000808
:1000A000810D0008810D0008810D0008810D0008F8
:1000B000810D0008810D0008810D0008810D0008E8
:1000C000810D0008810D0008810D0008810D0008D8
:1000D000810D0008810D0008810D0008810D0008C8
:1000E000810D0008810D0008810D0008810D0008B8
:1000F000810D0008810D0008810D0008810D0008A8
:10010000810D0008810D0008810D0008810D000897
:10011000810D0008810D0008810D0008810D000887
:10012000810D0008810D0008810D0008810D000877
:10013000810D0008810D0008810D0008810D000867
:10014000810D0008810D0008810D0008810D000857
:10015000810D0008810D0008810D0008810D000847
:10016000810D0008810D0008810D0008810D000837
:10017000810D0008810D0008810D000800000000BD
:08018000810D0008810D00084B
:1001880010B5054C237833B9044B13B10448AFF3C9
:1001980000800123237010BD6C04002000000000C3
:1001A800A05B000808B5064B1BB106480649AFF32B
:1001B80000800648036813B1054B03B1984708BD92
:1001C80000000000A05B0008700400206C04002000
:1001D8000000000081F0004102E000BF83F000430E
:1001E80030B54FEA41044FEA430594EA050F08BFCA
:1001F80090EA020F1FBF54EA000C55EA020C7FEA8E
:10020800645C7FEA655C00F0E2804FEA5454D4EB0A
:100218005555B8BF6D420CDD2C4480EA020281EAD4
:10022800030382EA000083EA010180EA020281EA0C
:100238000303362D88BF30BD11F0004F4FEA01315E
:100248004FF4801C4CEA113102D0404261EB41016D
:1002580013F0004F4FEA03334CEA133302D05242F3
:1002680063EB430394EA050F00F0A780A4F10104AF
:10027800D5F1200E0DDB02FA0EFC22FA05F28018E9
:1002880041F1000103FA0EF2801843FA05F35941CF
:100298000EE0A5F120050EF1200E012A03FA0EFC4E
:1002A80028BF4CF0020C43FA05F3C01851EBE37178
:1002B80001F0004507D54FF0000EDCF1000C7EEB95
:1002C80000006EEB0101B1F5801F1BD3B1F5001FD3
:1002D8000CD349085FEA30004FEA3C0C04F10104F2
:1002E8004FEA445212F5800F80F09A80BCF1004F1B
:1002F80008BF5FEA500C50F1000041EB045141EA9D
:10030800050130BD5FEA4C0C404141EB010111F49D
:10031800801FA4F10104E9D191F0000F04BF014648
:100328000020B1FA81F308BF2033A3F10B03B3F126
:1003380020020CDA0C3208DD02F1140CC2F10C02B6
:1003480001FA0CF021FA02F10CE002F11402D8BF14
:10035800C2F1200C01FA02F120FA0CFCDCBF41EAE0
:100368000C019040E41AA2BF01EB0451294330BDAF
:100378006FEA04041F3C1CDA0C340EDC04F114048C
:10038800C4F1200220FA04F001FA02F340EA030063
:1003980021FA04F345EA030130BDC4F10C04C4F1A9
:1003A800200220FA02F001FA04F340EA0300294689
:1003B80030BD21FA04F0294630BD94F0000F83F4D3
:1003C800801306BF81F480110134013D4EE77FEAB6
:1003D800645C18BF7FEA655C29D094EA050F08BF02
:1003E80090EA020F05D054EA000C04BF19461046E3
:1003F80030BD91EA030F1EBF0021002030BD5FEA27
:10040800545C05D14000494128BF41F0004130BD4E
:1004180014F580043CBF01F5801130BD01F00045A2
:1004280045F0FE4141F470014FF0000030BD7FEA15
:10043800645C1ABF194610467FEA655C1CBF0B4610
:10044800024650EA013406BF52EA033591EA030F27
:1004580041F4002130BD00BF90F0000F04BF00211F
:10046800704730B54FF4806404F132044FF0000552
:100478004FF0000150E700BF90F0000F04BF0021CB
:10048800704730B54FF4806404F1320410F0004531
:1004980048BF40424FF000013EE700BF42004FEA2C
:1004A800E2014FEA31014FEA02701FBF12F07F43A9
:1004B80093F07F4F81F06051704792F0000F14BFA6
:1004C80093F07F4F704730B54FF4607401F00045EA
:1004D80021F0004120E700BF50EA010208BF704741
:1004E80030B54FF000050AE050EA010208BF704736
:1004F80030B511F0004502D5404261EB41014FF49F
:10050800806404F132045FEA915C3FF4DCAE4FF0A2
:1005180003025FEADC0C18BF03325FEADC0C18BF89
:10052800033202EBDC02C2F1200300FA03FC20FADA
:1005380002F001FA03FE40EA0E0021FA02F1144427
:10054800C1E600BF70B54FF0FF0C4CF4E06C1CEA3C
:1005580011541DBF1CEA135594EA0C0F95EA0C0FB1
:1005680000F0DEF82C4481EA030621EA4C5123EA24
:100578004C5350EA013518BF52EA033541F4801153
:1005880043F4801338D0A0FB02CE4FF00005E1FB06
:1005980002E506F00042E0FB03E54FF00006E1FB50
:1005A80003569CF0000F18BF4EF0010EA4F1FF0493
:1005B800B6F5007F64F5407404D25FEA4E0E6D41D3
:1005C80046EB060642EAC62141EA55514FEAC520E4
:1005D80040EA5E504FEACE2EB4F1FD0C88BFBCF560
:1005E800E06F1ED8BEF1004F08BF5FEA500E50F111
:1005F800000041EB045170BD06F0004646EA0101D7
:1006080040EA020081EA0301B4EB5C04C2BFD4EB08
:100618000C0541EA045170BD41F480114FF0000E01
:10062800013C00F3AB8014F1360FDEBF002001F06F
:10063800004170BDC4F10004203C35DA0C341BDCE9
:1006480004F11404C4F1200500FA05F320FA04F0BB
:1006580001FA05F240EA020001F0004221F00041EF
:1006680010EBD37021FA04F642EB06015EEA430E62
:1006780008BF20EAD37070BDC4F10C04C4F1200592
:1006880000FA04F320FA05F001FA04F240EA020045
:1006980001F0004110EBD37041F100015EEA430E16
:1006A80008BF20EAD37070BDC4F1200500FA05F236
:1006B8004EEA020E20FA04F301FA05F243EA0203B5
:1006C80021FA04F001F0004121FA04F220EA0200C4
:1006D80000EBD3705EEA430E08BF20EAD37070BD0A
:1006E80094F0000F0FD101F00046400041EB0101EA
:1006F80011F4801F08BF013CF7D041EA060195F0CC
:10070800000F18BF704703F00046520043EB030385
:1007180013F4801F08BF013DF7D043EA0603704772
:1007280094EA0C0F0CEA135518BF95EA0C0F0CD07D
:1007380050EA410618BF52EA4306D1D181EA0301C3
:1007480001F000414FF0000070BD50EA410606BFBD
:100758001046194652EA430619D094EA0C0F02D102
:1007680050EA013613D195EA0C0F05D152EA033647
:100778001CBF104619460AD181EA030101F0004165
:1007880041F0FE4141F470014FF0000070BD41F0AE
:10079800FE4141F4780170BD70B54FF0FF0C4CF488
:1007A800E06C1CEA11541DBF1CEA135594EA0C0FA7
:1007B80095EA0C0F00F0A7F8A4EB050481EA030EF4
:1007C80052EA03354FEA013100F088804FEA0333DB
:1007D8004FF0805545EA131343EA12634FEA0222A9
:1007E80045EA111545EA10654FEA00260EF000416A
:1007F8009D4208BF964244F1FD0404F5407402D2BC
:100808005B084FEA3202B61A65EB03055B084FEA4C
:1008180032024FF480104FF4002CB6EB020E75EB49
:10082800030E22BFB61A754640EA0C005B084FEA71
:100838003202B6EB020E75EB030E22BFB61A7546EE
:1008480040EA5C005B084FEA3202B6EB020E75EB39
:10085800030E22BFB61A754640EA9C005B084FEAB1
:100868003202B6EB020E75EB030E22BFB61A7546BE
:1008780040EADC0055EA060E18D04FEA051545EAAD
:1008880016754FEA06164FEAC30343EA52734FEA56
:10089800C2025FEA1C1CC0D111F4801F0BD141EACF
:1008A80000014FF000004FF0004CB6E711F4801F34
:1008B80004BF01430020B4F1FD0C88BFBCF5E06F14
:1008C8003FF6AFAEB5EB030C04BFB6EB020C5FEA24
:1008D800500C50F1000041EB045170BD0EF0004E79
:1008E8004EEA113114EB5C04C2BFD4EB0C0541EAAB
:1008F800045170BD41F480114FF0000E013C90E6A8
:1009080045EA060E8DE60CEA135594EA0C0F08BF6B
:1009180095EA0C0F3FF43BAF94EA0C0F0AD150EA6A
:1009280001347FF434AF95EA0C0F7FF425AF1046FD
:1009380019462CE795EA0C0F06D152EA03353FF425
:10094800FDAE1046194622E750EA410618BF52EAA2
:1009580043067FF4C5AE50EA41047FF40DAF52EA76
:1009680043057FF4EBAE12E74FF0FF3C06E000BF13
:100978004FF0010C02E000BF4FF0010C4DF804CD20
:100988004FEA410C7FEA6C5C4FEA430C18BF7FEAE0
:100998006C5C1BD001B050EA410C0CBF52EA430C0E
:1009A80091EA030F02BF90EA020F0020704710F18E
:1009B800000F91EA030F58BF994208BF90422CBF1D
:1009C800D8176FEAE37040F0010070474FEA410C16
:1009D8007FEA6C5C02D150EA013C07D14FEA430C34
:1009E8007FEA6C5CD6D152EA033CD3D05DF8040BA5
:1009F800704700BF8446104662468C4619466346D7
:100A080000E000BF01B5FFF7B7FF002848BF10F1AD
:100A1800000F01BD4DF808EDFFF7F4FF0CBF0120F2
:100A280000205DF808FB00BF4DF808EDFFF7EAFF6E
:100A380034BF012000205DF808FB00BF4DF808ED29
:100A4800FFF7E0FF94BF012000205DF808FB00BF1E
:100A58004DF808EDFFF7CEFF94BF012000205DF8A8
:100A680008FB00BF4DF808EDFFF7C4FF34BF0120B5
:100A780000205DF808FB00BF4FEA410212F50012A2
:100A880015D211D56FF47873B3EB625212D94FEACD
:100A9800C12343F0004343EA505311F0004F23FAB7
:100AA80002F018BF404270474FF00000704750EA0C
:100AB800013005D111F0004008BF6FF000407047C9
:100AC8004FF00000704700BF024B58221A604FF0E9
:100AD800FF307047F8060020024B58221A604FF08A
:100AE800FF307047F8060020024B58221A60002099
:100AF800704700BFF8060020024B58221A604FF0DA
:100B0800FF307047F8060020024B58221A604FF059
:100B1800FF307047F8060020094B1A680AB9094ADD
:100B28001A601B686A461844904205D9064B0C2285
:100B38001A604FF0FF307047014A1060184670473E
:100B48008804002000070020F806002070B50F4E2A
:100B58000F4D761BB61007D0043D0024013455F81C
:100B6800043F9847A642F9D10A4E0B4D761B05F073
:100B780013F8B61008D0043D0024013455F8043F9A
:100B88009847A642F9D170BD70BD00BF8C5F0008C0
:100B98008C5F0008945F00088C5F0008F0B484073D
:100BA80043D0541E002A3ED0CDB2034603E0621E55
:100BB800002C38D0144603F8015B9A07F7D1032CB0
:100BC8002AD9CDB245EA05250F2C45EA054515D9A0
:100BD800A4F110073F0903F1100606EB07161A46A1
:100BE800156055609560D5601032B242F8D104F0B6
:100BF8000F040137032C03EB07130DD91E462246B9
:100C0800043A032A46F8045BFAD8221F22F00302AA
:100C18000432134404F003042CB1C9B21C4403F891
:100C2800011BA342FBD1F0BC704714460346C6E73C
:100C3800024B13B1024800F005B8704700000000ED
:100C4800590C0008014600200246034600F018B877
:100C580038B5094D094C641BA41018BF05EB840571
:100C680005D0013C55F8043D9847002CF9D1BDE862
:100C7800384004F097BF00BF945F0008985F0008F1
:100C8800F0B5274C2668D6F8484185B00746002CB1
:100C980041D065681F2D1EDD224818B94FF0FF307E
:100CA80005B0F0BD4FF4C87003910292019304F0AF
:100CB800E5FA0399029A019B04460028EED0D6F87B
:100CC80048512560002060600546C6F84841C4F8D0
:100CD8008801C4F88C013FB9AB1C00200135656060
:100CE80044F8231005B0F0BD04EB85004FF0010C6B
:100CF800C0F88820D4F888610CFA05F21643022F50
:100D0800C4F88861C0F80831E6D1D4F88C311A43A8
:100D1800C4F88C21E0E706F5A674C6F84841B8E7A0
:100D2800BC5B000885520008DFF834D0002103E0DE
:100D38000C4B5B58435004310B480C4B42189A42F9
:100D4800F6D30B4A02E0002342F8043B094B9A42CF
:100D5800F9D300F013F8FFF7F9FE02F055F87047E1
:100D680000000220985F0008000000206C040020AA
:100D78006C040020FC060020FEE7000010B4104AB6
:100D8800104BD2F88810104C41F47001C2F888104A
:100D98001968002041F0010119609860196821F074
:100DA800847121F4803119605C601C684FF0006127
:100DB80024F480241C60D86091605DF8044B70476F
:100DC80000ED00E0003802401030002410B5084A59
:100DD800084B1268A3FB02130446980900F0F6FAC0
:100DE80021464FF0FF30002200F0ACFA002010BD81
:100DF8002C040020D34D621008B50B4B1A6842F43E
:100E080000721A601A6842F480621A601A6842F422
:100E180080721A60032000F083FA0020FFF7D6FFE3
:100E280002F0DEF9002008BD003C0240024B1A68BF
:100E380001321A60704700BF18050020014B18687E
:100E4800704700BF1805002010B50446002800F0C0
:100E5800B880036C3BB1236CDB060CD5002384F807
:100E68003C30012010BD436480F83C3002F0E8F9C2
:100E7800236CDB06F2D4226C534B544922F488527B
:100E880022F0020242F0020222645A6822F440323E
:100E98005A605868626802435A6023685A6822F4A4
:100EA80080725A6023682269586840EA02225A60B0
:100EB80023685A6822F040725A602368A26858680A
:100EC80002435A6023689A6822F400629A60236891
:100ED800E268986802439A60A36A8B4223689A681A
:100EE80022F070629A6023684ED09968A26A0A4319
:100EF8009A6023689A6822F040529A602368E26AEE
:100F080099680A439A6023689A6822F002029A60F4
:100F18002368A269996841EA42029A60236A002B11
:100F280037D123685A6822F400625A602368DA6A63
:100F380022F47002DA622368E269D96A013A41EA66
:100F48000252DA6223689A6822F400729A6023686F
:100F5800226B996841EA42229A6023689A6822F4CF
:100F680080629A60236862699968002041EA822257
:100F78009A606064236C23F0030343F00103236445
:100F8800002384F83C3010BD9A6822F040529A60E1
:100F9800B9E723685A6842F400625A6023685A68BD
:100FA80022F460425A6023684FF46040596890FA0E
:100FB800A0F0626AB0FA80F0013A82400A435A60AF
:100FC800B4E7012010BD00BF002301400100000F5D
:100FD80030B490F83C3082B00022012B019256D0F8
:100FE8000122036880F83C209A68D40715D42C495C
:100FF8002C4A0C689968A2FB0452920C02EB42023C
:1010080041F0010199600192019B2BB1019B013BC9
:101018000193019B002BF9D103689A68D10732D557
:10102800026C22F4E06222F0010242F4807202644F
:101038005A68520505D5026C22F4405242F4805297
:101048000264026C12F480521CBF426C22F0060249
:10105800426400246FF02201134A80F83C40196072
:10106800536813F01F0F03680AD1986810F04050B6
:1010780009D19A6842F080429A6002B030BC704749
:101088000A4A934207D0002002B030BC70470220C1
:1010980002B030BC70479A6812F04050E9D0F2E7CD
:1010A8002C04002083DE1B43002301400020014064
:1010B80090F83C30012B18D00368012280F83C20BE
:1010C8009A6822F001029A6003689B68DB0707D4DC
:1010D800036C23F4885323F0010343F001030364F2
:1010E800002380F83C30184670470220704700BF44
:1010F80070B503689A68520505460C4602D59B6888
:10110800DE053CD4FFF79AFE06462A6801E0601C1B
:1011180026D113689907FAD56FF0120313602A6C69
:101128002B6842F400722A649A6812F0405F15D165
:10113800AA699AB9DA6A12F4700F0CD12B6C23F4ED
:1011480080732B642B6C13F4805007D12B6C43F005
:1011580001032B6470BD9B685B05EFD5002070BD53
:1011680024B1FFF76BFE801B8442CED22A6C002389
:1011780042F004022A6485F83C30032070BD026CFA
:10118800002342F02002026480F83C30012070BD48
:101198000368D86C704700BF30B490F83C3082B018
:1011A8000022012B01926ED0012380F83C300B689D
:1011B800092B36D802680725146903EB430305FA9F
:1011C80003F324EA0303136103680A888C681D6922
:1011D80002EB420294402C431C614B680268062BC8
:1011E80039D803EB8303546B1F25053B05FA03F33A
:1011F80024EA030353634A6803680D885C6B02EBB7
:101208008202053A05FA02F222435A63404A036809
:10121800934250D0002380F83C30184602B030BCCE
:10122800704702689BB203EB4303D46807251E3B53
:1012380005FA03F324EA0303D3600A8803688C6879
:10124800DD6802EB42021E3A94402C43DC604B6896
:101258000268062BC5D90C2B03EB830317D8146B34
:101268001F25233B05FA03F324EA030313634A68A3
:1012780003680D881C6B02EB8202233A05FA02F21E
:1012880022431A63C2E7022002B030BC7047D46A16
:101298001F25413B05FA03F324EA0303D3624A6896
:1012A80003680D88DC6A02EB8202413A05FA02F211
:1012B8002243DA62AAE70A68122A1ED0103A012AE3
:1012C800A8D8144B5A6842F400025A600B68102BD5
:1012D800A0D1114A114B1268A3FB02139B0C03EB1C
:1012E80083035B000193019B002B93D0019B013B7F
:1012F8000193019B002BF9D18CE7064A546844F40A
:101308008004546002689A4284D10A68D6E700BF14
:1013180000200140002301402C04002083DE1B43F1
:10132800074AD1684FF6FF030B4043F0BF6300F054
:10133800070043F4003343EA0023D360704700BF3B
:1013480000ED00E030B4194BDC68C4F30224C4F1AA
:101358000703251D042B28BF0423062D19D9033C98
:101368000125A540013D2A40012505FA03F3013B6B
:10137800194001FA04F4002844EA02040CDB00F1E5
:10138800604000F561402401E4B280F8004330BCBD
:10139800704700221446E7E7054B00F00F002401D0
:1013A8000344E4B21C7630BC704700BF00ED00E097
:1013B800FCEC00E000F01F0201214009024B01FA99
:1013C80002F243F82020704700E100E00138B0F154
:1013D800807F10B40DD2094B094C58600022F020D0
:1013E800072184F823009A60196010465DF8044BC1
:1013F800704701205DF8044B704700BF10E000E023
:1014080000ED00E0044B1A6804280CBF42F0040207
:1014180022F004021A60704710E000E0704700BF35
:1014280008B5FFF7FBFF08BD2DE9F8438046FFF735
:1014380005FD0446B8F1000F00F091800222D8F8AB
:10144800003088F83520002188F834101A6822F016
:1014580001021A6004E0FFF7F1FC001B052856D8CA
:10146800D8F800000368DA07F5D4D8F80830D8F8B7
:101478000470D8F80C60D8F81050D8F81440D8F890
:101488001810D8F81C20D0F80090DFF818C11F43B6
:101498003E4335432C4321430A43D8F82040D8F82B
:1014A800241042EA040309EA0C0C042943EA0C0359
:1014B80036D00360D8F80020D8F824305169042BBE
:1014C80021F0070141EA030131D05161D8F8003019
:1014D8003248334AD9B21039A0FB0141090923F433
:1014E8007F73525CC8F85C2023F00303032988BF8C
:1014F80004333F20904001210022C8F858309860FA
:10150800C8F8542088F835101046BDE8F88303233E
:101518002022C8F8542088F835301846BDE8F883EA
:10152800D8F83010D8F82C200A431343C1E7D8F86C
:101538002830D8F818001943A0B9012B28D001D3B6
:10154800022BC2D1D8F82C30DB01BED501234022B2
:10155800C8F8542088F835301846BDE8F8830120CB
:10156800BDE8F883B0F5005F04D0022BEED9032B59
:10157800ABD1E7E7032BA8D801A454F823F000BFA8
:10158800551500084D15000855150008991500084F
:10159800D8F82C30B3F1C07F97D1D7E7ABAAAAAA65
:1015A800C05B00083F8010F0F0B490F83440856DBF
:1015B800012C0CD090F835400126B44280F83460F4
:1015C80008D0002380F83430F0BC02207047022095
:1015D800F0BC704704680026022780F8357046651D
:1015E800266826F480262660046863608368402B9A
:1015F800036820D099600368DA60C36D3F2202FA5D
:1016080003F3AB6003681A6842F016021A600368B5
:101618005A6942F080025A61036C23B103681A6860
:1016280042F008021A6003681A6842F001021A6060
:101638000020F0BC70479A600368D960DDE700BFFE
:10164800F0B583B00023866D0193C36D356808211A
:10165800044601FA03F265482A42076803D0226863
:101668001068400779D462499940294203D022681A
:10167800526912066AD45F499940294203D0226808
:10168800126890075BD410219940294203D0226840
:101698001268120741D4202101FA03F32B4203D028
:1016A80022681268D50626D4636D13B3636DDA0712
:1016B8001BD50522236884F8352019684E4A21F085
:1016C8000101A2FB07021960920A03E023681B6864
:1016D800DB0704D5019B01339A420193F6D200221D
:1016E800012384F8342084F83530E36C0BB12046AC
:1016F800984703B0F0BDB36094F83530052B2368E4
:101708001A683ED050035AD51B68190365D5E36B98
:10171800002BC9D020469847C6E7B16023681A68ED
:10172800500327D41A68D20503D41A6822F0080295
:101738001A60236C0BB120469847E36DABE7B160A4
:10174800626DE36D42F0040262659CE7B160626D10
:10175800E36D42F0020262658DE7136823F004032B
:101768001360E36D9940B160626DE36D42F0010270
:10177800626578E71B681903DBD5A36C002BDAD107
:10178800DBE722F016021A6023685A6922F0800209
:101798005A61236C2BB323681A6822F008021A6076
:1017A800E36D3F2202FA03F3B360236D00210122A7
:1017B80084F8341084F83520002B98D199E71A68FA
:1017C80012F48072A3D11868012120F0100018606B
:1017D80084F8342084F8351099E7636C002B99D18C
:1017E80062E7A36C002BD6D1DAE700BF2C040020F7
:1017F8000100800004008000B5814E1B2DE9F00F28
:10180800DFF8E0C16F4CDFF8E0A182B0002303E00D
:101818000133102B00F0B78001220D689A4002EACC
:1018280005089045F4D14E6826F01002022A13D11B
:10183800DA0800EB820203F007060D69176AB600A2
:101848004FF00F0909FA06F927EA090905FA06F619
:1018580049EA060515624E685A000325D0F800903B
:10186800954006F00306ED43964005EA090946EA65
:10187800090606604E6826F01006013E012E13D8B0
:101888008768CE6805EA070906FA02F749EA0706F3
:1018980086604E68D0F80490C6F300169E4029EA88
:1018A800080949EA06064660C6688F68354007FA9F
:1018B80002F22A43C2604A68D200A9D5424D0026E6
:1018C80001966A6C42F480426A646D6C23F00302EC
:1018D80002F1804205F4804502F59C32019503F03F
:1018E8000305DDF80490D2F808B0AD004FF00F09F9
:1018F80009FA05F960452BEA090948D0504548D04E
:10190800324EB04249D0324FB8424AD0314EB0423E
:101918004BD0314FB8424CD0304EB0424DD0304E03
:10192800B0420CBF0726082606FA05F545EA090560
:1019380095604D6826686FEA0802EF0354BF02EA13
:10194800060548EA060525604D686668AD0354BF7C
:1019580002EA060548EA060565604D68A668EF02D2
:1019680054BF02EA060548EA0605A5604D68E66820
:10197800AD0203F1010354BF324048EA0602102BBE
:10198800E2607FF449AF02B0BDE8F00F704735461A
:10199800CCE7012606FA05F5C8E7022606FA05F59A
:1019A800C4E7032606FA05F5C0E7042606FA05F596
:1019B800BCE7052606FA05F5B8E7062606FA05F592
:1019C800B4E700BF003C0140003802400008024074
:1019D800000C0240001002400014024000180240AF
:1019E800001C024000000240000402400369194242
:1019F8000CBF00200120704702B9090481617047BB
:101A080038B50446002871D090F83D3003F0FF0245
:101A1800002B56D02368364D242284F83D201A68BE
:101A280022F001021A6000F0C1FB324A2368A2FBCF
:101A38000012920C5A6094E80A00AB4238D801327E
:101A48000A6263682A4922688B4226D85B00B0FB89
:101A5800F3F0C0F30B03032B98BF0420D061216A75
:101A6800E26923680A431A60E168226923680A4325
:101A78009A60A169626923680A43DA60226810687B
:101A8800002340F0010020211060236484F83D10F9
:101A9800236384F83E30184638BDA168B1B903EB1A
:101AA8004303B0FBF3F0C0F30B03E3B90120D5E720
:101AB8004FF49675104B05FB02F2A3FB02529209F4
:101AC800BDE780F83C2001F0D3FBA3E703EB8303D9
:101AD80003EB8303B0FBF3F0C0F30B03002BE5D05B
:101AE80040F44040BAE740F40040B7E7012038BD71
:101AF800A086010083DE1B43D34D6210C369012B0E
:101B080019D00E4B5A6812F4800F5A6814BF0C484B
:101B18000C480A4B02F03F02B0FBF2F2D3F8840003
:101B2800D3F88430C0F3881000FB02F0C3F30273CB
:101B3800B0FBF3F070470448704700BF003802401C
:101B480000127A000024F4000080BB00F8B50446B7
:101B5800002800F0958090F83D3003F0FF02002B3C
:101B68004CD00222216884F83D20CB6923F47B63A2
:101B780023F00F03CB6123681A6262692368022A83
:101B8800DF6975D0E3682046002B14BF02260126C2
:101B9800FFF7B4FF25696369B5F5007F16BF7601C5
:101BA800000AB0FBF6F000EB80004100B1FBF3F156
:101BB800344B0531A3FB0101C9084A08931EFD2BCC
:101BC80001F0010023688CBF022242EA00222A4366
:101BD8001A626668A568E068A26923683E4346F40D
:101BE8000066354328430243DA61236A012B0AD091
:101BF80000200123206484F83D30F8BD80F83C20A3
:101C080001F062FBADE7204A2568204B95420CBFE6
:101C18001D464FF040250226E86920F47B6020F03D
:101C28000F00E861206890420CBF18464FF0402032
:101C3800066225686068954218BF4FF0402330F46B
:101C48000070DB6917D14FF48071A068E2680E4F0D
:101C58000E4E184340F400600243A069BD420CBF19
:101C680035464FF0402542EA00031943E961BFE7D2
:101C780025690021ABE7B0F5807F08BF0021E4E7C4
:101C88000120F8BDCDCCCCCC003800400034004059
:101C9800F0B50368DD0783B0044622D5914A916800
:101CA80001F00C01042900F0EA80916801F00C01B0
:101CB800082900F0E0808C4B22791A706368002BA9
:101CC80000F0CB80FFF7BAF8864D064605E0FFF72F
:101CD800B5F8801B642800F29F802B689A03F6D51C
:101CE80023689F072DD57F4B9A6812F00C0F00F0E0
:101CF8009A809A6802F00C02082A00F09080E36843
:101D0800002B00F0D880794B764D01221A60FFF73E
:101D180095F8064604E0FFF791F8801B02287BD867
:101D28002B68704A9807F6D51168F82090FAA0F049
:101D38002369B0FA80F021F0F80183400B43136067
:101D480023681A0720D4590734D4A369CBB1654A4C
:101D5800916801F00C0108296CD0022B644B4FF0FC
:101D68000001196000F0B8801446FFF767F80546CF
:101D780004E0FFF763F8401B02284DD823689B0155
:101D8800F7D4002003B0F0BD6369002B55D0594B40
:101D9800544D01221A60FFF751F8064604E0FFF798
:101DA8004DF8801B022837D86B6F9F07F7D523683B
:101DB8005907CAD54B4B504D002201921A6C42F07C
:101DC80080521A641B6C03F080530193019B2B68AB
:101DD80043F480732B60FFF731F8064604E0FFF701
:101DE8002DF8801B022817D82B68DA05F7D5434B46
:101DF800227A1A70A368002B00F0C480FFF71EF83F
:101E0800384D074641F288362B6F9B079DD4FFF764
:101E180015F8C01BB042F7D9032003B0F0BD5B68CA
:101E28005E023FF56CAF2F4B1B689D0731D5E36809
:101E3800012B2ED0012003B0F0BD2E4A294D13608E
:101E4800FEF7FCFF064604E0FEF7F8FF801B0228B9
:101E5800E2D86B6F9807F7D4A9E7FEF7EFFF214D9B
:101E6800064604E0FEF7EAFF801B6428D4D82B68F6
:101E78009B03F7D434E7526850027FF51CAF194A28
:101E8800126891037FF52DAF6268002A7FF429AFAD
:101E9800D0E7144BF820196890FAA0F02269B0FA3C
:101EA80080F021F0F80182400A431A6023681A077B
:101EB8007FF549AF68E70D4A0A4D1360FEF7BEFF8C
:101EC800064604E0FEF7BAFF801B0228A4D82B6858
:101ED8009907F7D4236834E71546FEF7AFFF06469F
:101EE80013E000BF003802400238024000004742B9
:101EF80060004742800E4742007000407038024040
:101F0800FEF79CFF801B022886D82B68254A99017A
:101F1800F6D447F6C07595FAA5F54FF44030B5FAF2
:101F280085F590FAA0F04FF07061B0FA80F091FA60
:101F3800A1F1A66AD4F824C0D4F820E0E769E46ADD
:101F4800194B76080CFA05F54EEA0707013E3D43A2
:101F5800B1FA81F106FA00F004FA01F128430843C6
:101F68000121506019601446FEF768FF054605E038
:101F7800FEF764FF401B02283FF64EAF23689A0124
:101F8800F6D5FEE6FEF75AFF064D074641F28836BB
:101F98002B6F98077FF5D9AEFEF750FFC01BB042F4
:101FA800F6D939E7003802406000474210B41D4BAB
:101FB8009A6802F00C02042A2FD0082A03D01A4883
:101FC8005DF8044B704758685A685C6812F4800FD3
:101FD80000F03F0147F6C07292FAA2F247F6C073CA
:101FE80014BF12481048B2FA82F22340D340B0FB23
:101FF800F1F000FB03F00B4B4FF440325B6892FAB0
:10200800A2F2B2FA82F203F44033D34001335B0008
:10201800B0FBF3F05DF8044B704704485DF8044BDF
:10202800704700BF003802400024F40000127A0014
:102038002DE9F041564B1A6802F00F028A420C460D
:10204800054609D2CAB21A701B6803F00F038B4207
:1020580002D00120BDE8F0812B689A0707D54D4BC7
:10206800AA68996821F0F0010A439A602B68DF0793
:1020780026D56B68012B00F085809A1E012A454AF7
:10208800126879D99107E4D5424FBA6822F0030261
:102098001343BB60FEF7D2FE6B68012B064641F284
:1020A80088384DD0022B56D0032B05D15EE0FEF7C1
:1020B800C5FE801B404562D8BB6813F00C0FF6D1F3
:1020C800334B1A6802F00F02944206D2E2B21A7039
:1020D8001B6803F00F03A342BBD12B685A0707D52F
:1020E8002C4BEA68996821F4E0510A439A602B68FE
:1020F8001B0707D5274B29699A6822F4604242EAF0
:10210800C1029A60FFF752FF224A0146F023926803
:1021180093FAA3F3B3FA83F302F0F002DA401E480D
:102128001E4B825C002021FA02F21A60FEF74EFE76
:102138000020BDE8F081FEF781FE801B40451ED8D7
:10214800BB6803F00C03042BF5D1B9E7FEF776FE64
:10215800801B404513D8BB6803F00C03082BF5D14E
:10216800AEE7FEF76BFE801B404508D8BB6803F05E
:102178000C030C2BF5D1A3E7900185D469E7032064
:10218800BDE8F081034A126896033FF57DAF60E72A
:10219800003C024000380240C85B00082C040020C4
:1021A800014B1868704700BF2C040020084B4FF4FF
:1021B800E0529B6892FAA2F2B2FA82F203F4E05378
:1021C800D3400449044ACB5C1068D840704700BF2C
:1021D80000380240C85B00082C040020084B4FF46C
:1021E80060429B6892FAA2F2B2FA82F203F4604368
:1021F800D3400449044ACB5C1068D840704700BFFC
:1022080000380240C85B00082C040020F0B50368C1
:10221800DA0783B006464FD413F0020001D103B0A9
:10222800F0BD4D4B4D4C002201921A6C42F0805289
:102238001A641B6C03F080530193019B236843F4D9
:1022480080732360FEF7FAFD054604E0FEF7F6FD0D
:10225800401B02282DD82368D905F7D53E4BF168D5
:102268001A6F12F4407201F4407010D090420ED0F0
:10227800196F3B4A21F4407101240020146010605A
:1022880019671A6FD2074DD4F16801F44070324BC8
:10229800B0F5407F9A6855D022F4F8129A602E4B18
:1022A800F268196FC2F30B020A4300201A6703B0E1
:1022B800F0BD032003B0F0BD2A4B274C00221A6062
:1022C800FEF7BCFD054604E0FEF7B8FD401B0228FA
:1022D800EFD82368204A1F01F6D447F6C07494FA51
:1022E800A4F44FF0E045B4FA84F495FAA5F5B16882
:1022F80073681C48B5FA85F5A940A3400B4301242F
:10230800C2F8843004601446FEF798FD054604E0E0
:10231800FEF794FD401B0228CBD823681801F7D597
:10232800336879E71C46FEF789FD41F28835074690
:1023380004E0FEF783FDC01BA842BAD8226F9307BA
:10234800F7D5A1E721F0704121F4407122F4F81289
:1023580011439960A3E700BF0038024000700040B5
:10236800400E4742680047422DE9F0418046002868
:102378004DD090F85130002203F0FF018262002B0B
:1023880040D0D8F80030022288F851201A6822F08C
:1023980040021A60D8F80800D8F80470D8F80C6021
:1023A800D8F81050D8F81440D8F81C10D8F82020C5
:1023B800D8F8283007433E4335432C4321430A438A
:1023C8001343D8F8182002F400700343D8F800002B
:1023D8000360B8F81A10D8F82420D8F8003001F0B3
:1023E80004010A435A60D8F80020D069002320F479
:1023F80000600121D061C8F8543088F8511018469F
:10240800BDE8F08180F8501000F092FFB9E7012094
:10241800BDE8F0812DE9F0470368C268196921F425
:1024280040510A431A61026806698568D368044600
:102438004069E169354323F416432843014323F0F7
:102448000C030B43D3602368A269596921F44071D6
:102458000A435A61E3692668B3F5004F61D0B14B6E
:102468009E4200F0048103F580639E4200F0FF80E5
:10247800FFF79CFE6368AC4D00EB80009B0000EB0F
:102488008000B0FBF3F8FFF791FEA5FB08386368FE
:1024980000EB80009B0000EB8000B0FBF3F9FFF736
:1024A80085FE636800EB800000EB80009B00B0FBBA
:1024B800F3F3A5FB03235B09642707FB13994FEA92
:1024C8000919FFF773FE09F13209A5FB0939636899
:1024D80000EB80009B0000EB8000B0FBF3FAFFF7F5
:1024E80065FE636800EB800000EB80009B00B0FB9A
:1024F800F3F3A5FB03235B0907FB13A73F0132375F
:102508004FEA5919A5FB07354FEA581809F0F009A1
:10251800C5F343154FEA08184D444544B560BDE876
:10252800F08703F1804303F510439E425DD003F525
:1025380080639E4259D0FFF739FE63687A4D00EBFD
:1025480080005B0000EB8000B0FBF3F8FFF72EFE85
:10255800A5FB0838636800EB80005B0000EB800097
:10256800B0FBF3F9FFF722FE636800EB800000EB95
:1025780080005B00B0FBF3F3A5FB03235B09642732
:1025880007FB13994FEAC909FFF710FE09F1320951
:10259800A5FB0939636800EB80004FEA58184FEA39
:1025A800191900EB80005B004FEA081809F4F87964
:1025B800B0FBF3FAFFF7FAFD636800EB800000EB6D
:1025C80080005B00B0FBF3F3A5FB03235B0907FB6B
:1025D80013A3DB003233A5FB0323C3F34213984450
:1025E80008EB0903B360BDE8F087FFF7F7FD636800
:1025F8004D4D00EB80005B0000EB8000B0FBF3F872
:10260800FFF7ECFD636800EB80005B0000EB8000E7
:10261800B0FBF3F9FFF7E2FD636800EB800000EB25
:1026280080005B00B0FBF3F3A5FB03235B09642781
:1026380007FB13994FEAC909FFF7D0FD09F13209E1
:10264800A5FB09396368A5FB082800EB80005B003F
:102658004FEA58184FEA191900EB80004FEA08189A
:1026680009F4F879B0FBF3FAFFF7B8FDA4E7FFF730
:10267800B5FD63682C4D00EB80009B0000EB8000EB
:10268800B0FBF3F8FFF7AAFDA5FB0838636800EB79
:1026980080009B0000EB8000B0FBF3F9FFF79EFD84
:1026A800636800EB800000EB80009B00B0FBF3F355
:1026B800A5FB03235B09642707FB13994FEA091954
:1026C800FFF78CFD09F13209A5FB0939636800EBB6
:1026D80080009B0000EB8000B0FBF3FAFFF77EFD63
:1026E800636800EB800000EB80009B00B0FBF3F315
:1026F800A5FB03235B0907FB13A31B0132334FEA36
:102708005919A5FB0323C3F343134FEA581809F0DB
:10271800F0094FEA0818994409EB0803B360BDE8CB
:10272800F08700BF001001401F85EB512DE9F041F3
:1027380007460C4690461E463D6801E0731C06D1CC
:10274800296821408C42F9D10020BDE8F08136B1DA
:10275800FEF774FBC8EB00008642EDD23D68EB68DB
:1027680023F4D073EB603A685069202320F001000D
:102778000021506187F8393087F8381087F83A30E7
:102788000320BDE8F08100BF10B5044660B390F89F
:10279800393003F0FF0213B32368242284F8392068
:1027A800DA6822F40052DA602046FFF733FE236825
:1027B8001A6922F490421A6123685A6922F02A029F
:1027C8005A612168C8680022202340F40050C8607C
:1027D800E26384F8393084F83A30104610BD80F846
:1027E800382000F0CDFDD7E7012010BD2DE9F041DC
:1027F8000D4690F83910202982B004461E4603D0B1
:10280800022002B0BDE8F081002D40D0002A3ED061
:1028180090F83830012BF3D0002001212123E06308
:1028280084F8381084F839300192FEF707FB019AD2
:10283800A2848046E28406E0FFF778FF48BB23685D
:102848002A785A600135E78CBFB22046802142467B
:10285800334607B3B4F826E0A7680EF1FF3E1FFA27
:102868008EFEB7F5805FA4F826E0E5D120468021EA
:1028780042463346FFF75AFF58B92A882368C2F3FD
:1028880008025A602369002BDCD10235DBE70120FE
:10289800B7E70320B5E74021FFF748FF0028F8D144
:1028A800202384F8380084F83930AAE7F8B50446BC
:1028B80090F83A002028134601D00220F8BD0029DC
:1028C80032D0002A30D094F83820012AF5D0626B33
:1028D8001648A162002501272226A385E56384F80E
:1028E800387084F83A60D063626B11481064626B88
:1028F8001048D064626B15652668606B0A46311D06
:10290800FEF752FE2368DA6842F48072DA602368C0
:102918005A693A435A6123685A6942F040025A6137
:1029280084F838502846F8BD0120F8BD452900082C
:102938008529000895290008704700BF08B5036875
:10294800806B1B6813F4807312D10268C385D36847
:1029580023F48073D36003685A6922F001025A6134
:1029680003685969202221F04001596180F83A2012
:10297800FFF7E2FF08BD00BF704700BF08B5806BD6
:10298800FFF7FAFF08BD00BF704700BF08B5806BAE
:102998000368596990F83920212A1CD0596990F8A0
:1029A8003A20222A06D0C36B43F01003C363FFF713
:1029B800EBFF08BD4A06F6D50022C285DA6822F484
:1029C8009072DA6003685969202221F00101596187
:1029D80080F83A20E7E70906E0D50022C284DA68E1
:1029E80022F0C002DA602022036880F83920D5E797
:1029F800F0B599B000212C4A0191106C2B4B40F096
:102A080080501064126C02F080520192019A029177
:102A18001A6842F480421A601B6803F480430293E8
:102A280001250723022408214FF4A8724FF48006D9
:102A38000CA81793029F0C950D9512941694139653
:102A480014911592FFF724F9034600B1FEE70F270A
:102A58004FF4A0564FF4805207A805210894099313
:102A680007970A960B92FFF7E3FA00B1FEE7C02337
:102A780003A8059403950493FFF7C8FB044600B127
:102A8800FEE7FFF78DFB0A4BA3FB00208009FEF74A
:102A98009DFC0420FEF7B6FC214622464FF0FF308D
:102AA800FEF750FC19B0F0BD00380240007000403D
:102AB800D34D621030B5012291B00021831810ADBA
:102AC80013F8013CA3F120045E2C0D4447D9002BD8
:102AD80048D19B4905F8403C684600F053FD9949A8
:102AE800044600F031FD00287CD02046964900F0CD
:102AF8002BFD002838D02046944900F025FD0028F9
:102B080074D02046924900F01FFD10BB9148FEF793
:102B18005FFA4FF0FF318F48FEF7EAFA8D48FEF76B
:102B280037FB04468B48FEF7C3FA21468A4800F073
:102B38008BFC8A4BB3FBF4F007EE900AF8EEE77AC9
:102B480017EE900AFDF7AAFC02460B46844800F0EF
:102B58007BFC6946834800F077FC11B030BD05F86E
:102B6800403C01310132A9E7754900F00BFD7E496F
:102B7800044600F0E9FC054600285CD020467B4965
:102B880000F0E2FC0546002874D02046784900F0A1
:102B9800DBFC0546002800F08C802046754900F0D3
:102BA800D3FC04460028D4D1734800F0C5FC204665
:102BB800634900F0E7FC7149044600F0C5FC0028B1
:102BC80000F0A98020466E4900F0BEFC0028C0D164
:102BD8006C4800F0B1FC6C484FF400510022FEF73D
:102BE8000BFFB6E7694800F0A7FCB2E74FF40051C5
:102BF8006548FEF7FBFE0146654800F025FC4FF4EA
:102C080080516148FEF7F2FE0146624800F01CFC64
:102C18004FF400415C48FEF7E9FE01465E4800F0CB
:102C280013FC4FF480415848FEF7E0FE01465B482C
:102C380000F00AFC8DE75A4800F07EFC404928461F
:102C480000F0A0FC4D49044600F07EFC00284ED060
:102C580020464B4900F078FC044600287FF479AF01
:102C6800484800F069FC224647484FF48041FEF787
:102C7800C3FE6EE74B4800F05FFC3149284600F080
:102C880081FC3E49044600F05FFC002839D020460C
:102C98003B4900F059FC044600287FF45AAF3948F4
:102CA80000F04AFC224638484FF40041FEF7A4FEE3
:102CB8004FE73D4800F040FC2149284600F062FCFF
:102CC8002E49044600F040FC78B320462C4900F019
:102CD8003BFC044600287FF43CAF2A4800F02CFC5B
:102CE800224629484FF48051FEF786FE31E72F48E7
:102CF80000F022FC24484FF480410122FEF77CFEBC
:102D080027E72A4800F018FC1F484FF40041012229
:102D1800FEF772FE1DE7254800F00EFC1A484FF436
:102D280000510122FEF768FE13E7204800F004FC7A
:102D380015484FF480510122FEF75EFE09E700BFF7
:102D4800D85B0008DC5B0008F45B0008505C0008F6
:102D5800945C0008D00500209C5C000800A04B0093
:102D6800AC5C0008BC5C0008F85B00081C5C000850
:102D78002C5C00083C5C0008445C0008045C00080B
:102D8800105C0008145C0008000C0240E45B0008BA
:102D9800585C0008685C0008785C0008845C0008DF
:102DA800FC5B0008245C0008345C0008085C000830
:102DB80038B50446FEF742F8104B114D1B68C01A8F
:102DC800B0F5FA6F07D22B883F2B14D90A2C09D0FB
:102DD8000D2C07D038BD002301220A492A800A2C6D
:102DE800CC54F5D1074B2A88002418469C54FFF789
:102DF80061FE2C8038BD5A1C92B2EEE718060020FE
:102E0800CC040020D00400202DE9F04F8DB0002420
:102E1800DFF8DCB2FDF7F0FFFFF7EAFD0094DBF81E
:102E28003020A54842F01002CBF83020DBF83020E3
:102E380002F010020092009A0194DBF8302042F070
:102E48000402CBF83020DBF8302002F004020192B3
:102E5800019A0294DBF8302042F08002CBF830204F
:102E6800DBF8302002F080020292029A0394DBF829
:102E7800302042F00102CBF83020DBF8302002F09D
:102E880001020392039A0494DBF8302042F0020214
:102E9800CBF83020DBF8302002F002020492049ACA
:102EA8000594DBF8302042F00802CBF83020DBF83C
:102EB800305003264FF6F57205F0080507A9059569
:102EC8004FF008080792059D089601250994FEF71A
:102ED80095FC07A9784809940A94CDF81C800895B0
:102EE800FEF78CFC42F6763207A9744807920896DA
:102EF8000994FEF783FC07A97048079502274FF04D
:102F08000509089509940A94FEF778FC07A96B4807
:102F18000897CDF82C90CDF81C8009940A94FEF7F8
:102F28006DFC674B6748089307A907950994FEF756
:102F380065FC48F2021207A96248089607920994AC
:102F4800FEF75CFC4FF6B31207A95F480896079294
:102F58000994FEF753FC042207A95B4807920894DA
:102F68000994FEF74BFC4FF4806207A95648CDF848
:102F78002C900897079209940A94FEF73FFC40F6B4
:102F8800CF7207A95148079208964FF2100A099480
:102F9800FEF734FC07A94D48089509940A94CDF822
:102FA8001CA04FF40076FEF729FC07A945480894B1
:102FB800099407964FF00A09FEF720FC4FF4E052F7
:102FC80007A940480897079209940A94CDF82C90CD
:102FD800FEF714FC202207A93C480792089409949C
:102FE800FEF70CFC364B3448089307A90797099459
:102FF800FEF704FC414622462F48354FFEF7FCFCFD
:1030080029462A462D48FEF7F7FC514622462F4806
:10301800FEF7F2FC0694DBF8302042F40012CBF8FD
:103028003020DBF8303003F40013214622460693A3
:103038001020069BFEF786F91020FEF7BBF9254BFA
:1030480025499C604FF4804218461A61DC605C6137
:103058009C61DC611C621F605960FEF7D1FC02466E
:1030680000B1FEE71D4B1E491E4C9A601846DA60F7
:103078009A61DA611A625E601E611C605961FEF72E
:1030880065FD024600B1FEE7174B184C98604FF4F7
:1030980082711846DA601A615A619E61DA611A62B1
:1030A8005A629A62C3F82C901C605960FFF75CF969
:1030B8000346F8B1FEE700BF0010024000080240D6
:1030C800000012100000024000040240000C024000
:1030D800005400407C050020A0860100B4060020B2
:1030E80000770100003C00401C0600200030014031
:1030F800003802402B4E2C4CB0604FF4E1310C22CA
:103108003046F3603361B361F361346071607261BA
:10311800FFF73AFB034600B1FEE7244C2449A060C0
:103128004FF4803220462361A3612362E362E360A7
:10313800E5612363656184E80600FDF785FE00B15B
:10314800FEE707231122204607A90993089507924D
:10315800FEF722F8034600B1FEE71649164CDFF8E1
:103168006080164F3046402289461E46FFF79EFB78
:10317800254622883B685968C1F140019142FAD03E
:10318800BFF36F8F23885A1C92B23F2A19F80300A5
:1031980094BF2A802E80FFF70BFEFDF74FFEC8F87C
:1031A8000000E6E77406002000440040D005002037
:1031B800002001408C040020CE0400201C050020C3
:1031C8001806002010B54FF0FF331446024892B29B
:1031D800FFF70CFB204610BD74060020FEE700BF79
:1031E80008B50720FEF79CF800210A466FF00B008F
:1031F800FEF7A8F800210A466FF00A00FEF7A2F8C9
:1032080000210A466FF00900FEF79CF800210A46E3
:103218006FF00400FEF796F800210A466FF00300ED
:10322800FEF790F800210A466FF00100FEF78AF8D1
:1032380000210A464FF0FF30BDE80840FEF782B88B
:1032480002680A4B9A4282B001D002B0704703F577
:103258008C33002201925A6C42F480725A645B6C7F
:1032680003F480730193019B02B070470020014072
:1032780030B5124B02689A4287B001D007B030BD12
:1032880004234FF4107101220024019112250DEB43
:1032980003010B480392059302950494FEF7AEFAD6
:1032A800084B00941A6C42F400121A641B6C03F465
:1032B80000130093009B07B030BD00BF00540040CE
:1032C800000402400038024070B5164B02689A426A
:1032D80086B001D006B070BD002403F5FE3300941B
:1032E8001A6C114842F400421A641B6C039403F4EC
:1032F8000043009301A9102302260625009A019392
:10330800049402960595FEF779FA4FF4A45301A99F
:10331800064802960394049405950193FEF76EFA05
:1033280006B070BD003C00400000024000080240AA
:1033380070B5104B02689A4286B001D006B070BDD5
:1033480000230D4A0093516C0C4841F4805151649C
:10335800526C039302F480520092E0250522022465
:1033680001A9009E0493019502940592FEF746FA7E
:1033780006B070BD00300140003802400000024035
:103388002DE9F041244A0368934286B0044602D0EE
:1033980006B0BDE8F0810026204B00961A6C204D3F
:1033A800204842F400321A641B6C03F40033009383
:1033B8004FF0020E032207234FF00C0C012701A93E
:1033C800CDF808E0039704920593DDF80080CDF866
:1033D80004C04FF00067FEF711FADFF84CE0AE606A
:1033E8004FF480614FF480724FF400332846EE604A
:1033F8006E61AE616E62C5F800E06F602961EA61D6
:103408002B62FEF711F820B96563AC6306B0BDE81E
:10341800F081FFF7E3FEF7E7004400400038024080
:103428001C050020000002408860024008B5FDF736
:10343800FDFCBDE80840FDF7F3BF00BF0148FEF7FB
:10344800FFB800BF1C0500200FB40A4B13B51C6859
:1034580024B1A36913B9204601F054FE05AB2046F8
:10346800A168049A019300F013F902B0BDE8104076
:1034780004B070472804002070B50E46054618B100
:1034880083690BB901F03EFEAC68A389190701D521
:10349800236983B92846214600F07CFE58B14FF0D5
:1034A800FF3070BD002B0EDB236816F8012C1A7054
:1034B800236801332360A36816F8012B013BA3603E
:1034C800002AEFD117E0A269934209DB236816F8B6
:1034D800012C1A70236819780A29EAD1284602E0D3
:1034E80016F8011C2846224600F000FEB0F1FF3213
:1034F80050425041D2E7002B16DAA269934208DB0A
:1035080023680A221A7023681978914210D1284634
:1035180001E028460A21224600F0E8FDB0F1FF3319
:103528005842584130B1BAE723680A221A70236812
:10353800013323600A2070BD024B01461868FFF76B
:103548009BBF00BF280400200D4B70B51D680022EA
:10355800845C2B195B7803F00303012B8B5C05EB70
:10356800030608BF2034767806F00306012E08BF4C
:103578002033E41A02D10132002BE9D1204670BD74
:1035880030040020174B2DE9F0411D68AC6D06464C
:103598000F46FCB9502001F071FEA8658460AB6D40
:1035A800046044601C61DC60AB6D9C615C61AB6D68
:1035B800DC629C62AB6D5C631C63AB6DDC639C631B
:1035C800AB6D5C641C64AB6DDC649C64AB6D1C7798
:1035D800AB6D5C6230463946AA6D0123BDE8F04107
:1035E80000F002B828040020F0B508B9106828B324
:1035F80004460F4614F8015B17F8016B3EB1B5425B
:10360800FAD10BB12046F3E714600370F0BD4DB951
:1036180015602846F0BD17F8016BAE4207D0002EA2
:10362800F9D11C4623460F4613F8015BF3E715B1A1
:103638000021217000E02B461360F0BDF0BD9368B7
:10364800013B002B10B5936005DA9469A34208DBAF
:10365800CBB20A2B05D01368581C10601970C8B279
:1036680010BDBDE8104000F041BDF8B505460E4656
:103678001446D718BC4208D0284614F8011B324615
:10368800FFF7DDFF431CF5D100E00020F8BD000086
:103698002DE9F0439DB00D4617460393064618B131
:1036A80083690BB901F02EFD734B9D4201D17568FA
:1036B80008E0724B9D4201D1B56803E0704B9D4212
:1036C80008BFF568AB8918070AD52B6943B10023F1
:1036D800099320238DF8293030238DF82A3038E0DB
:1036E8003046294600F056FD0028F0D04FF0FF3054
:1036F800BFE0039A111D12680391002A70DB07923C
:10370800013423782E2B7DD05E4F21783846032252
:1037180001F0BCFD30B1C71B049B4020B8400343F7
:1037280004930134217858488DF828100622671C24
:1037380001F0ACFD002800F08A80544B002B7DD1AD
:10374800039B073323F0070308330393099B434480
:1037580009933B461C4613F8012B1AB9B4EB070929
:103768000ED002E0252AF5D1F8E7304629463A4638
:103778004B46FFF77AFF013076D0099B4B440993FB
:103788002378002B70D000234FF0FF320493079367
:10379800059206938DF853301A9304F101094C46AB
:1037A8003B4F21783846052201F070FD09F10109E7
:1037B800049B28B1C71B0120B84003430493EEE7DC
:1037C800D90644BF20228DF853201A0744BF2B2264
:1037D8008DF8532022782A2A8BD0079B214605E0B2
:1037E800524243F002030792049389E70C460131E1
:1037F8002278303A092A03D80A2000FB0323F5E788
:1038080007937EE763782A2B0AD1039B1A1D1B684E
:103818000392002B04F10204B8BF4FF0FF330BE012
:10382800611C00230C4601312278303A092A03D85A
:103838000A2000FB0323F5E7059365E703AB009334
:10384800304604A92A46134B00F0BAF807E003AB48
:103858000093304604A92A460E4B00F033FBB0F122
:10386800FF3F80467FF472AFAB895B063FF53EAF02
:1038780009981DB0BDE8F083205E0008405E00088E
:10388800605E0008D25C0008D65C0008C9390008F0
:10389800CC5C0008733600082DE9F04F55EC104B4E
:1038A80085B0002D88469246DDF8389004DA05F197
:1038B80000473D462D2200E000221A700F9B23F09E
:1038C800200BBBF1460F05D0BBF1450F04D108F121
:1038D800010801E0032100E0022102AB009303ABE1
:1038E800019345EC104B42464B4600F051FDBBF1AD
:1038F800470F064602D11AF0010F25D0BBF1460F3B
:1039080006EB080710D13378302B0AD12046294618
:1039180000220023FDF77EF818B9C8F10103C9F8A1
:103928000030D9F800301F442046294600220023E1
:10393800FDF770F800B10397039BBB4204D25A1CF1
:10394800039230221A70F7E7039B9A1B109B3046AC
:103958001A6005B0BDE8F08F034673B5002903F877
:10396800022B03DA49421A462D2401E01A462B2479
:10397800092944701ADD0DF106040A2691FBF6F5B3
:1039880006FB15113031092D234604F80119294683
:10399800F3DC05F1300103F8011D0DF107018B423D
:1039A8000AD213F8011B02F8011BF6E730241A4665
:1039B800214402F8024B5970101A02B070BD000081
:1039C8002DE9F04F8BB00C4616461F46DDF8509097
:1039D800054601F001FCD0F800A0504602F06BF853
:1039E80000230893D9F8003094F81880059007331D
:1039F80023F0070393ED000B03F10802C9F8002038
:103A080084ED120B01F0E0FF012819D1D4E912016D
:103A180000220023FDF708F810B12D2384F8433065
:103A2800914B924AB8F1470F8CBF914699460323B0
:103A38002361236823F0040323604FF0000B87E021
:103A480094ED120B01F0C0FF226860B9884B8949D8
:103A580022F00402B8F1470F8CBF89469946032328
:103A680023612260E9E76368591C28F0200B01D123
:103A7800062304E0BBF1470F02D10BB901236360B1
:103A880007AB8DE8080108AB42F48062029300237B
:103A980003936168226094ED120B28460DF11B0315
:103AA800FFF7FAFEBBF1470F8146079909D1C81CF9
:103AB80002DB6368994230DDA8F102085FFA88F8F2
:103AC80002E0B8F1650F12D80139424604F15000FE
:103AD8000791FFF741FF089A8318012A834623615B
:103AE80002DC2268D2072DD5013323612AE0B8F120
:103AF800660F14D10029636807DD216113B92268B4
:103B0800D0071CD501330B4418E013B92268D2073B
:103B180001D5023312E0012310E04FF06708089A3C
:103B2800914205DB23682161D80708D54B1C05E0C5
:103B38000029D4BFC1F10203012313442361A16505
:103B48004FF0000B9DF81B3013B12D2384F8433040
:103B580000972846214609AA334600F041F901306A
:103B680002D14FF0FF3037E123685A0504D42846C4
:103B780031464A46236909E1B8F1650F40F2CC8025
:103B8800D4E9120100220023FCF744FF00282AD0C0
:103B980028463146384A0123B8470130E1D0089B0E
:103BA800079A9A4207DB2368D80704D423689B073F
:103BB80000F1F980FEE0284631465246059BB84799
:103BC8000130CED04FF00008089B013B9845EDDA54
:103BD8002846314604F11A020123B8470130C0D003
:103BE80008F10108F0E7079B002B28DC284631463E
:103BF800214A0123B8470130B3D0079B23B9089B5A
:103C080013B92368D907D1D5284631465246059BB2
:103C1800B8470130A5D04FF00008079B5B42984594
:103C28002846314608DA04F11A020123B847013060
:103C380097D008F10108F0E74A46089BA6E0A36D73
:103C4800089A9A42B4BF93469B46BBF1000F02DC28
:103C58004FF000081DE0284631464A465B46B84703
:103C68000130F5D17DE700BFDD5C0008E15C0008AC
:103C7800E55C0008E95C0008ED5C00082846314670
:103C880004F11A020123B84701303FF46AAF08F182
:103C98000108A36D2BEAEB729A1A9045EEDB09EB4B
:103CA8000308079A089B9A420FDB2368DA070CD4AB
:103CB800089B079A9944C8EB09099B1A9945A8BF1C
:103CC8009946B9F1000F08DC0FE028463146524604
:103CD800059BB8470130EBD143E7284631464246B9
:103CE8004B46B84701303FF43CAF4FF000080AE0BC
:103CF8002846314604F11A020123B84701303FF43F
:103D080030AF08F10108079B089A29EAE971D31A2C
:103D18005B1A9845ECDB49E7089A012A01DCDB07C6
:103D280039D5284631464A460123B84701303FF481
:103D380018AF284631465246059BB84701303FF434
:103D480010AFD4E9120100220023FCF763FE10B182
:103D58004FF0000811E0089B2846314609F101029E
:103D6800013B1CE02846314604F11A020123B847FA
:103D780001303FF4F6AE08F10108089B013B984575
:103D8800F0DB2846314604F150025B46B847013063
:103D98007FF40CAFE5E6284631464A460123B8478A
:103DA8000130EED1DDE64FF00008E268099BD31A36
:103DB800984505DBE068099B9842B8BF18460BE0B8
:103DC8002846314604F119020123B84701303FF46F
:103DD800C8AE08F10108E8E70BB0BDE8F08F00BFF6
:103DE8002DE9F84315461F468A680B69DDF82080DF
:103DF8009A42A8BF13462B6091F8432006460C460A
:103E08000AB101332B602368990602D52B68023367
:103E18002B60236813F006091DD094F843302268FC
:103E2800003318BF012392061FD5E1185A1C302011
:103E380081F84300224494F8451082F84310023375
:103E480013E03046394604F119020123C047013016
:103E580007D009F10109E2682B68D31A9945F0DB0C
:103E6800DBE74FF0FF30BDE8F8833046394604F110
:103E78004302C0470130F4D023682A68E16803F0A0
:103E88000603042B08BFC2EB01052369A2680CBF17
:103E980025EAE57500259A42C4BFC3EB0203ED1875
:103EA8004FF00009A9450ADA3046394604F11A02EA
:103EB8000123C0470130D4D009F10109F2E70020FD
:103EC800BDE8F8832DE9FF470E7E0C9D6E2E8046D7
:103ED8000C4691469A4601F1430000F0A58011D89E
:103EE800632E22D009D8002E00F0AF80582E40F063
:103EF800BF8081F845607B4A4FE0642E1ED0692E52
:103F08001CD0B5E0732E00F0A48009D86F2E2BD0FA
:103F1800702E40F0AD800B6843F020030B6038E052
:103F2800752E21D0782E34D0A2E02B681A1D1B687C
:103F38002A6001F1420781F842309DE022682B682F
:103F480012F0800F03D01A1D2A601D6805E0510683
:103F5800F9D51A1D2A60B3F90050002D39DA2D233E
:103F68006D4284F8433034E022682B6812F0800FE9
:103F780003D01A1D2A601D6804E05206F9D51A1DDF
:103F88002A601D88237E574A6F2B14BF0A230823F3
:103F98001BE07823544A84F845302368296813F0D5
:103FA800800F01F104062E6001D00D6802E05F0663
:103FB800FBD50D88DE0744BF43F0200323601DB9FD
:103FC800236823F0200323601023002184F8431082
:103FD80001E0444A0A236668A660002E03DB2168D4
:103FE80021F00401216005B96EB104F14201B5FB6D
:103FF800F3F603FB16550F46555D01F80159354692
:10400800002EF4D100E00746082B0AD12368DD070B
:1040180007D5626823699A4203DC302307F8013C1C
:10402800013FC01B20612CE009682B68626911F010
:10403800800F04D0191D29601B681A6005E0490625
:10404800F8D5191D29601B681A80002323610746CB
:1040580017E02B681A1D2A601F68384601F02BFDEF
:1040680063682061984288BF23612369636005E023
:1040780004F1420784F8426001232361002384F895
:104088004330CDF800A04046214603AA4B46FFF72F
:10409800A7FE013002D14FF0FF301FE040464946ED
:1040A8003A462369D0470130F5D023689B0705D4E9
:1040B800E068039B9842B8BF18460FE00025E26805
:1040C800039BD31A9D42F3DA4046494604F119028C
:1040D8000123D0470130DED00135F0E704B0BDE858
:1040E800F08700BFEF5C0008005D000870B50E4661
:1040F8001446054618B183690BB901F003F8224B41
:104108009C4201D16C6808E0204B9C4201D1AC680C
:1041180003E01F4B9C4208BFEC68A369A360A38916
:104128001A0709D523693BB123692068C01A636956
:104138009842F6B20FDB08E02846214600F02AF83C
:104148000028F1D04FF0FF3070BD2846214600F01E
:104158005BFF0028F6D1A368013BA36023685A1CC3
:1041680022601E7063690130984204D0A389DB077E
:1041780007D50A2E05D12846214600F045FF00281C
:10418800E0D1304670BD00BF205E0008405E0008E8
:10419800605E0008324B70B51D6806460C4625B1B6
:1041A800AB6913B9284600F0ADFF2E4B9C4201D1F4
:1041B8006C6808E02C4B9C4201D1AC6803E02B4BA7
:1041C8009C4208BFEC68A28993B2190720D4DD0687
:1041D80005D4092342F040023360A2813BE058072E
:1041E80012D5616B41B104F14403994202D03046C3
:1041F80001F052FB00236363A38923F02403A38106
:104208000023636023692360A38943F00803A38123
:1042180023694BB9A38903F42073B3F5007F03D056
:104228003046214600F0DCFFA38913F0010205D0D7
:104238000022A26062695242A26103E0990758BF56
:104248006269A26022694AB903F0800080B230B185
:1042580043F04003A3814FF0FF3070BD002070BDD4
:1042680028040020205E0008405E0008605E000808
:104278002DE9F74F03690C69A3428046C0F281809B
:10428800013C01F11407A20000F1140591460092C7
:1042980057F824602A44019255F824200136B2FBCD
:1042A800F6F6B944002E3AD04FF0000E3A462846AA
:1042B800F34652F804CB03681FFA8CFA4FEA1C4CF9
:1042C8000AFB06EA0CFB06FC0CEB1A4C1FFA8AFAEE
:1042D800CAEB0B0A4FEA1C4E1FFA8CFC1AFA83FA37
:1042E800CCEB134C0CEB2A4C1FFA8AFA4AEA0C4A1C
:1042F8004A454FEA2C4B40F804ABDAD9009AAB5840
:104308006BB9019A131FAB421A4602D8C8F810407D
:1043180005E01268043B002AF8D1013CF3E7404667
:1043280001F0E1F900282ADB01362B46002057F876
:1043380004CB1A681FFA8CF1411A4FEA1C4C11FA87
:1043480082F1CCEB124202EB214289B210144F45A4
:1043580041EA024243F8042BE9D955F8242005EB39
:10436800840362B9043BAB421A4602D8C8F810402D
:1043780005E01268043B002AF8D1013CF3E7304617
:1043880000E0002003B0BDE8F08F0000000000004E
:104398002DE9F04F456A9BB082460D910E92149319
:1043A800249C8DED020B45B9102000F067FFCAF878
:1043B8002400456085600560C560DAF82430196816
:1043C80061B15B684B60012202FA03F38B605046CF
:1043D80000F0A9FFDAF8243000221A6003990029B6
:1043E80005DA012321F000422360039201E0002353
:1043F8002360039C9A4A24F000431B0D1B0593423B
:104408001DD1149F029942F20F733B6041B9954B3D
:10441800954AC4F3130000280CBF1046184600E064
:104428009048259F002F00F06585C37813B100F1EF
:10443800080300E0C31C259F3B6000F05BBDDDE97D
:1044480002890022404649460023FCF7E3FA054664
:1044580058B1149F01233B60259F002F00F047852A
:1044680082483860013800F045BD504649EC108B51
:1044780019A918AA01F0B2F9C4F30A56834656B12D
:10448800C9F3130343F07F51404641F44011A6F2AB
:10449800FF3615951CE0199B189E1E446FF4826325
:1044A8009E4209DB02991F3306F212409B1B21FA38
:1044B80000F09C40204304E06D48029A801B02FAF9
:1044C80000F0FBF7C9FF0127A1F1F871013E15972C
:1044D8000022684BFBF782FE5BA3D3E90023FCF7BD
:1044E80031F85BA3D3E90023FBF77AFE0446304694
:1044F8000D46FBF7C1FF58A3D3E90023FCF722F8C8
:1045080002460B4620462946FBF76AFE04460D463E
:10451800FCF7B2FA29468146002220460023FCF720
:1045280083FA58B14846FBF7A7FF02460B462046D8
:104538002946FCF76FFA08B909F1FF39B9F1160FE6
:104548000DD84D4B03EBC903D3E90001DDE9022384
:10455800FCF788FA30B109F1FF39002700E001279C
:10456800119700E01190189B9E1B013E069604D5FA
:10457800774205970027069701E000270597B9F1CC
:10458800000F07DB069FCDF840904F4406970027A1
:104598000B9708E0059FC9EB07070597C9F10007C6
:1045A8000B97002710970D9F092F28D8052FC4BFF8
:1045B800043F0D970D9FA7F10203CCBF00250125ED
:1045C800032B21D8DFE803F0060F0204012702E0DD
:1045D800012709E000270C970E9F002F1EDD0A9780
:1045E80004973B461FE000270C970E9F4F440A97FD
:1045F80001373B460497012BB8BF012313E001257F
:1046080000270D970C9501E001270C974FF0FF3715
:104618000A970497002712230E9704E001270A97A8
:1046280004973B460E97DAF8244000226260042182
:1046380001F114029A4221D862680132626049008D
:10464800F6E700BFAFF3008061436F63A787D23FEF
:10465800B3C8608B288AC63FFB799F501344D33F69
:104668000000F07F1B5E0008125E0008EE5C000888
:10467800EEFBFFFF0000F83F905E000850466168BF
:1046880000F01CFEDAF82430049F20601B680793B2
:104698000E2F00F26981002D00F066819DED027BEE
:1046A800B9F1000F8DED127B31DD804A09F00F035F
:1046B80002EBC30393ED007B4FEA2914E0068DED6E
:1046C800087B0CD57A4BDDE91201D3E90823FCF706
:1046D80063F804F00F04CDE90201032700E0022784
:1046E800734D6CB1E10708D5DDE90801D5E9002370
:1046F800FBF728FFCDE90801013764100835F0E71A
:10470800DDE90201DDE90823FCF746F81BE0C9F101
:104718000004DCB1654B664D04F00F0203EBC203E5
:10472800DDE91201D3E90023FBF70CFF241102276E
:104738004CB1E20704D5D5E900230137FBF702FFA6
:1047480064100835F4E7CDE9020100E00227119969
:10475800E1B1DDE90245002220462946554BFCF728
:1047680063F9C0B1049ADAB10A9B002B40F3F880D0
:1047780009F1FF310F910022204629464E4BFBF7E5
:10478800E1FE0137CDE902010A9A0CE0049BCDF85D
:104798003C90089308E00499CDF83C90089103E018
:1047A800049ACDF83C9008923846FBF765FEDDE99F
:1047B8000223FBF7C7FE0022404BFBF711FD089FC1
:1047C8000446A1F15075CFB900223D4BDDE9020145
:1047D800FBF704FD22462B4606460F46FCF742F936
:1047E800002840F04B82224605F100433046394606
:1047F800FCF71AF9002840F03782B1E0089F2B4BEC
:104808007A1E0C9F03EBC203002F5DD0D3E900236F
:1048180000202C49FBF7C0FF22462B46FBF7DEFCA5
:10482800DDE90267DDF81C8004460D46394630464E
:10483800FCF722F90090FBF71FFE02460B463046B4
:104848003946FBF7CBFCDDF800C00CF1300308F863
:10485800013B22462B4606460F46FCF7E5F80028A2
:1048680040F0338332463B4600201249FBF7B6FC42
:1048780022462B46FCF7D8F8002840F0D480079948
:10488800089AC1EB080393426ADA204629460022B7
:10489800094BFBF757FE002204460D4630463946C1
:1048A800054BFBF74FFE06460F46BFE7905E000834
:1048B800585F00080000F03F0000244000001C4042
:1048C800000014400000E03FD3E9000122462B46D7
:1048D800FBF738FEDDF81C80089B079CCDE9160124
:1048E800DDE90267984439463046FCF7C5F80546C5
:1048F800FBF7C2FD303502460B4630463946FBF71A
:104908006DFC04F8015B444506460F4621D10022A0
:10491800874BDDE91601FBF763FC02460B46304680
:104928003946FCF79FF800287DD1DDE916230020E1
:104938007F49FBF753FC02460B4630463946FCF7E5
:1049480073F868B1A046013C18F8013C302BF9D047
:10495800BBE20022774BFBF7F5FD06460F46C2E7A0
:104968009DED127B8DED027B199B002B7CDBB9F151
:104978000E0F79DC704B0E9F03EBC903002FD3E9B0
:10498800004514DA049F002F11DC40F06F812046A7
:1049980029460022694BFBF7D5FDDDE90223FCF728
:1049A80057F8049D2C46002840F062816AE1DDE951
:1049B8000267DDF81C8022462B4630463946FBF755
:1049C800EBFEFCF759F80290FBF756FD22462B4602
:1049D800FBF7B8FD02460B4630463946FBF7FEFBAF
:1049E800029F07F1300608F8016B079FC7EB08061E
:1049F800049FBE4202460B4629D1FBF7F1FB224633
:104A08002B4606460F46FCF72DF870B93046394656
:104A180022462B46FBF7FEFF002800F05882029F33
:104A2800FB0702D453E2DDF83C9043469846013B2D
:104A380018F8012C392A06D1079F9F42F6D1302257
:104A480009F101093A701A7801321A703FE200221E
:104A5800384BFBF777FD0022002306460F46FBF78D
:104A6800D9FF0028A7D032E20C9F002F30D00D9F2D
:104A7800012F0ADC159F17B103F2334302E0189B9C
:104A8800C3F136030B9D059E16E0049F7D1E0B9F08
:104A9800AF4201DB7D1B06E00B9F0B95EB1B109FC4
:104AA8001F4410970025049F002F03DA059900235F
:104AB800CE1B01E0059E049B059F1F440597069F9A
:104AC80050461F440121069700F0CBFC044602E043
:104AD8000B9D059E0C9C6EB1069F002F0ADD3B4680
:104AE800059FB342A8BF3346FF1A0597069FFF1AD2
:104AF800F61A06970B9F002F28DD0C9F07B3002D91
:104B080010DD21462A46504600F04CFD04465A4620
:104B18002146504600F0AEFC59460746504600F084
:104B280002FCBB460B9F7A1B10D0504659460AE040
:104B38000000E03F00002440905E000800001440A0
:104B48000B9A5046594600F02DFD834650460121E8
:104B580000F087FC109F002F054605DD29465046CA
:104B68003A4600F01FFD05460D9F012F12DC029901
:104B780081B9039AC2F3130373B922F000473F0DBA
:104B88003F0557B1059F01370597069F01370697DF
:104B9800012702E0002700E0029F109941B12B692C
:104BA80005EB8303186900F00FFCC0F1200000E05A
:104BB8000120069B034413F01F0308D0C3F1200211
:104BC800042A02DDC3F11C0302E008D013461C339B
:104BD800059A06991A44194405921E440691059AA5
:104BE800002A04DD5946504600F02AFD8346069BFC
:104BF800002B05DD294650461A4600F021FD0546E2
:104C08001199E1B15846294600F06DFD002816DAE1
:104C180059460A225046002300F09CFB0C9A09F1E1
:104C2800FF3983464AB12146002350460A2200F044
:104C380091FB0A9B0493044601E00A990491049AA3
:104C4800002A29DC0D9B022B26DD8AB9294605227C
:104C5800049B504600F07EFB05462946584600F066
:104C680042FD00280EDC03E0089D00E000252C46EC
:104C78000E9FDDF81C806FEA07090AE0089DDDF841
:104C88003C902C46079F312307F101083B7009F13E
:104C980001092746002407E10C99002900F0BB8090
:104CA800002E05DD21465046324600F0C9FC044678
:104CB8009FB16168504600F001FB22690232064646
:104CC80004F10C0192000C3000F0EFFA5046314626
:104CD800012200F0B5FC074600E02746079E29465A
:104CE8005846FFF7C5FA214600F1300C8046584671
:104CF800CDF800C000F0F7FC3A460590294650462A
:104D080000F00EFDC368DDF800C002464BB911463D
:104D18005846019200F0E7FC019ADDF800C003460E
:104D280000E00123504611460193CDF800C000F081
:104D3800FAFA019BDDF800C063B90D9A52B90299DD
:104D480001F0010232B9BCF1390F35D0059B002BB7
:104D580024DC25E00599002902DA002B08DC1FE095
:104D680023D10D9A0ABB029901F00102EAB9F4E7CE
:104D7800594601225046CDF800C000F061FC294692
:104D8800834600F0B0FC0028DDF800C003DC07D142
:104D98001CF0010F04D0BCF1390F0DD008F1310C13
:104DA80006F1010886F800C07EE0002B06F1010834
:104DB80009DDBCF1390F03D13923337001365BE0CB
:104DC8000CF1010368E0079A04994646C2EB080310
:104DD8008B4206F801CC3CD059460A2200235046A3
:104DE80000F0B8FABC428346214650464FF00A020A
:104DF8004FF0000304D100F0ADFA044607466EE711
:104E080000F0A8FA394604460A225046002300F06A
:104E1800A1FA074663E70C9E58462946FFF728FA89
:104E2800079F00F1300C07F806C0049F0136BE4208
:104E380007DB079E012FACBFF61901362746002471
:104E480007E0594650460A22002300F083FA8346B9
:104E5800E2E7594601225046CDF800C000F0F0FBC9
:104E68002946834600F03FFC0028DDF800C003DC3B
:104E780014D11CF0010F11D016F8013C392BB046A3
:104E880006F1FF3607D10799B142F5D1312309F16F
:104E980001090B7008E00133337005E0B046013EAC
:104EA80018F8013C302BF9D05046294600F03BFA5F
:104EB8006FB12CB1BC4203D05046214600F033FA02
:104EC8005046394600F02FFA01E0DDF83C90504694
:104ED800594600F028FA0023149F88F8003009F199
:104EE80001033B60259F27B1C7F8008001E0034814
:104EF80000E007981BB0BDE8F08F00BFED5C00082C
:104F08008A892DE9F041054610070C4657D44B68AD
:104F1800002B02DC0B6C002B18DDE66AB6B102F43C
:104F28008052002392B22F682B600AB1626D10E0A4
:104F3800216A28460123B047411C024609D12B6843
:104F48003BB11D2B01D0162B46D12F600020BDE8A8
:104F5800F081A3895B0705D56368D21A636B0BB12F
:104F6800236CD21AE66A216A28460023B047461CF9
:104F7800A28905D12B681BB11D2B01D0162B19D185
:104F880000236360D1042369236004D5421C01D146
:104F98002B6803B96065616B2F600029D6D004F1D6
:104FA8004403994202D0284600F076FC0020606352
:104FB800BDE8F08142F04002A281BDE8F0810E69AF
:104FC800002EC3D00B680E60C6EB030893070CBF16
:104FD8004B6900238B6012E0A38943F04003A3814F
:104FE8004FF0FF30BDE8F081A76A216A28463246B3
:104FF8004346B8470028EFDD0644C0EB0808B8F17F
:10500800000FF1DCA2E7000038B50B6905460C4635
:10501800DBB118B183690BB900F074F80C4B9C42F2
:1050280001D16C6808E00B4B9C4201D1AC6803E0ED
:10503800094B9C4208BFEC68B4F90C302BB12846E8
:105048002146BDE83840FFF75BBF002038BD00BFF0
:10505800205E0008405E0008605E0008F8B507465C
:1050680000F1480494B1A5686668013E0CD4AB8988
:10507800012B07D9B5F90E30013303D0384629463C
:10508800FFF7C2FF6835F0E72468EBE7F8BD0000DA
:10509800002310B504460360436083608181436642
:1050A800C28103614361836119465C300822FBF7C2
:1050B80075FD054B6362054BA362054BE362054B27
:1050C8002462236310BD00BF395A00085B5A0008E8
:1050D800935A0008B75A000870B54B1E68255D43FF
:1050E8000E4605F1740100F01BFC044640B1002196
:1050F80080E842000C30A06005F16802FBF74EFD25
:10510800204670BD836910B5044633BB8364C3640D
:105118000365124B124A1B688262984204BF01233E
:10512800836100F01FF86060204600F01BF8A06063
:10513800204600F017F80421E06000226068FFF7BD
:10514800A7FFA06809210122FFF7A2FFE06812214A
:105158000222FFF79DFF0123A36110BDBC5B00087D
:1051680065500008F8B51B4B1E68B369074613B9AC
:105178003046FFF7C7FF4836B4687368013B04D46C
:10518800B4F90C5075B16834F8E733682BB9384670
:105198000421FFF7A1FF306008B13668ECE70C2363
:1051A8003B60F8BD4FF6FF73E3810123A381656679
:1051B8002560A560656025616561A56104F15C00F5
:1051C80029460822FBF7EAFC6563A563A564E56444
:1051D8002046F8BDBC5B0008004870473404002036
:1051E800F0B58B899E0791B005460C4626D4B1F9D7
:1051F8000E10002909DAA38913F0800F4FF0000779
:1052080014BF40264FF480660DE001AA00F07EFC32
:105218000028F0DB029F07F47047B7F500514F42B2
:105228004F414FF480662846314600F079FB60B95B
:10523800A3899A051DD443F00203A38104F147030F
:10524800236023610123636113E00B4BAB62A389E5
:10525800206043F08003A381206166614FB1284636
:10526800B4F90E1000F064FC18B1A38943F00103EF
:10527800A38111B0F0BD00BF65500008024B014684
:10528800186800F04DBB00BF2804002010B5C9B253
:1052980002449042034606D01C788C4200F101007B
:1052A800F7D1184610BD002010BD10B50023934259
:1052B80003D0CC5CC4540133F9E710BD70B5456A1E
:1052C80004460E463DB91020FFF7D8FF60624560DE
:1052D80085600560C560656AEB6843B1636ADA6832
:1052E80052F8260078B1016842F8261017E02046E7
:1052F8000421212200F0C2FA636AE860DB68002B0F
:10530800ECD1002070BD012101FA06F56A1D204686
:10531800920000F0B3FA0028F3D0466085600022BE
:105328000261C26070BD70B5446A06460D463CB95C
:105338001020FFF7A3FF7062446084600460C460BB
:105348003DB1736A6A68DB6853F82210296043F834
:10535800225070BD2DE9F0410C461E460D690746E6
:105368001431002308681FFA80FC000C02FB0C6C47
:10537800504300EB1C4001331FFA8CFC060CAB4277
:105388000CEB004041F8040BECDBD6B1A3689D425E
:1053980012DB616838460131FFF790FF226902325B
:1053A80004F10C01804692000C30FFF77EFF214685
:1053B8003846FFF7B8FF444604EB850301355E61C4
:1053C80025612046BDE8F081030C1B0413B90004D5
:1053D800102300E0002310F07F4F04BF00020833C1
:1053E80010F0704F04BF0001043310F0404F04BFA9
:1053F80080000233002803DB420003D5581C7047A5
:105408001846704720207047036813F007020BD036
:10541800D90722D49A0703D55B0803600120704797
:105428009B0803600220704799B209B91B0C10222F
:1054380013F0FF0F04BF1B0A0832190704BF1B092A
:105448000432990704BF9B080232D90702D45B08CB
:1054580005D00132036010467047002070472020B5
:10546800704710B50C460121FFF728FF012244615F
:10547800026110BD2DE9F04F16460A6933699A4258
:1054880085B00D4601DA35460E46D5F810803769E5
:10549800AB68696808EB07049C42C8BF0131FFF795
:1054A8000DFF00F1140303EB840101911A46DDF8A6
:1054B80004A0524503D2002142F8041BF7E705F186
:1054C800140106F1140201EB880802EB8707CDF8F6
:1054D80008800397039EB242154656D2B5F800C01D
:1054E8000432BCF1000F25D00F461D46002657F8A0
:1054F800049BD5F800801FFA89FB1FFA88FA0CFB79
:105508000BAA4FEA19494FEA1848B2440CFB09881C
:1055180008EB1A481FFA8AFA4AEA084A4FEA184674
:10552800DDF80880AB46B8454BF804AB01D95D46B9
:10553800DDE76E6032F8028CB8F1000F23D01E68E8
:105548000F461D464FF00009B7F800A0B5F802C095
:1055580008FB0ACCE144B6B2AC4646EA09464CF828
:10556800046B57F8046BB5F804A0360C08FB06A6C4
:10557800DDF808A006EB194657454FEA164901D24F
:105588006546E1E76E600433A4E7019B002C03DC69
:10559800046105B0BDE8F08F53F8042D002AF7D157
:1055A800013CF3E712F003032DE9F04105460E46EE
:1055B800174607D0013B214A52F823200023FFF762
:1055C800C9FE0646BF1035D06C6A3CB91020FFF7FB
:1055D80055FE6862446084600460C460D5F8248025
:1055E800D8F808407CB9284640F27121FFF739FF06
:1055F8000023C8F808000446036004E07F1019D0AF
:10560800206870B10446FB07F8D531462246284683
:10561800FFF730FF314680462846FFF784FE4646AE
:10562800ECE7284621462246FFF724FF00232060A6
:105638000360E7E73046BDE8F08100BF805F0008FF
:105648002DE9F0470C464FEA621A236949680AEBCC
:105658000309A3688046154609F101079F4202DD48
:1056680001315B00FAE74046FFF728FE00230646B3
:1056780000F11402534504DA002142F823100133E3
:10568800F8E720692AEAEA7104F1140315F01F0CFF
:1056980002EB810103EB800E16D0CCF1200A002525
:1056A80018680A4600FA0CF0054342F8045B53F800
:1056B800045B734525FA0AF501D21146F0E74D60FF
:1056C80045B109F1020705E053F8042B41F8042B12
:1056D8007345F9D3013F404637612146FFF723FE62
:1056E8003046BDE8F08702690B69D21A10B513D1AC
:1056F8009C00143001F114020319224453F8044D9C
:1057080052F8041D8C4203D008D24FF0FF3010BD70
:105718009842F3D3002010BD104610BD012010BDE3
:105728002DE9F04706460C46084611461546FFF790
:10573800DAFF071E08D130463946FFF7BFFD0123BF
:1057480003614761BDE8F08701DB002703E02346DA
:1057580001272C461D4661683046FFF7AFFD2269D8
:105768002B69C760143405F1140606EB830A04EBB1
:10577800820C00F11403002154F8047B56F8049BB2
:1057880011FA87F11FFA89F54FEA1949C5EB0108A3
:10579800C9EB174707EB28471FFA88F83914B245B1
:1057A80048EA0747254643F8047BE5D865450DD206
:1057B80055F8044B11FA84F6240C04EB2644B6B2CF
:1057C800211446EA044443F8044BEFE753F8041D58
:1057D80009B9013AFAE70261BDE8F0872DE9F74314
:1057E8008946012155EC104B9046FFF767FDC5F33C
:1057F8000A570646C5F313030FB143F48013019308
:10580800D4B102A840F8084D6846FFF7FDFD009B9B
:1058180048B1019AC0F1200102FA01F10B43C240DC
:105828007361019200E07361019BB361002B0CBFAF
:1058380001240224346107E001A8FFF7E5FD0124F3
:10584800019B7361346120303FB1A7F233470744AD
:10585800C9F80070C0F135000AE006EB8403A0F235
:105868003240C9F800001869FFF7AEFDC0EB4410DC
:10587800C8F80000304603B0BDE8F08338B502FB35
:1058880001F4214600F04CF8054618B100212246E3
:10589800FBF784F9284638BD30B500293CD051F8CB
:1058A800042C0B1F1D49002AB8BF9B180A680C4618
:1058B80012B95A600B6030BD93420DD2196858185E
:1058C800904203D15A581144426819605A602360C3
:1058D80030BD994203D80A4651680029F9D11468A5
:1058E80015199D420AD11B682344D01888421360B9
:1058F80012D10868034413604B680CE002D90C23EA
:10590800036030BD18681C188C4203D10C684968C4
:10591800204418605960536030BD00BF1405002052
:1059280070B5CD1C25F0030508350C2D38BF0C25A6
:10593800002D06463FDB8D423DD3214B1C6818469F
:105948002146A1B10B685B1B0ED40B2B03D90B604E
:10595800CC18CD501FE08C4202D1626802601AE078
:105968004B6863600C4616E00C464968E9E7154C3D
:1059780023681BB9304600F04BF8206029463046B2
:1059880000F046F8431C014615D0C41C24F003045B
:1059980084420AD1256004F10B00231D20F0070082
:1059A800C31A0BD05A42E25070BD3046611A00F05B
:1059B8002FF80130EED10C233360002070BD00BFFA
:1059C800140500201005002051EC100B31F00043A5
:1059D80010B500D178B10C4AA3F5801494420CD9C3
:1059E800B3F5801F0BD3094A93420AD1D0F10100C5
:1059F80038BF002010BD022010BD042010BD0320B8
:105A080010BD002010BD00BFFFFFDF7F0000F07F4A
:105A180038B5064C0023054608462360FBF77CF89A
:105A2800431C02D1236803B12B6038BDF80600205F
:105A380010B50C46B1F90E1000F09CF8002803DBF5
:105A4800636D0344636510BDA38923F48053A38168
:105A580010BD2DE9F0411D468B89DB0507460C4634
:105A6800164605D5B1F90E100022022300F070F891
:105A7800A389B4F90E1023F48053A3813846324623
:105A88002B46BDE8F04100F01FB810B50C46B1F93F
:105A98000E1000F05DF8431CA38903D123F4805352
:105AA800A38110BD43F48053A381606510BDB1F993
:105AB8000E1000F01BB8034613F8012B002AFBD187
:105AC800181A01387047000038B5074C0546002001
