:020000040800F2
:10000000000002208D080008DD080008DD08000857
:10001000DD080008DD080008DD0800080000000019
:10002000000000000000000000000000D51D0008D6
:10003000DD08000800000000611E000865390008A6
:10004000DD080008DD080008DD080008DD080008FC
:10005000DD080008DD080008DD080008DD080008EC
:10006000DD080008DD080008DD080008DD080008DC
:10007000DD080008DD080008DD080008DD080008CC
:10008000DD080008DD080008DD080008DD080008BC
:10009000DD080008DD080008DD080008DD080008AC
:1000A000DD08000869390008DD080008DD080008DF
:1000B000DD080008DD080008DD080008DD0800088C
:1000C000DD080008DD080008DD080008DD0800087C
:1000D000DD080008DD080008DD080008DD0800086C
:1000E000DD080008DD080008DD080008DD0800085C
:1000F000DD080008DD080008DD080008DD0800084C
:10010000DD080008DD080008DD080008DD0800083B
:10011000DD080008DD080008DD080008DD0800082B
:10012000DD080008DD080008DD080008DD0800081B
:10013000DD080008DD080008DD080008DD0800080B
:10014000DD080008DD080008DD080008DD080008FB
:10015000DD080008DD080008DD080008DD080008EB
:10016000DD080008DD080008DD080008DD080008DB
:10017000DD080008DD080008DD08000800000000B8
:08018000DD080008DD0800089D
:1001880010B5054C237833B9044B13B10448AFF3C9
:1001980000800123237010BD980400200000000097
:1001A8008839000808B5064B1BB106480649AFF365
:1001B80000800648036813B1054B03B1984708BD92
:1001C80000000000883900089C04002098040020E2
:1001D8000000000070B50F4E0F4D761BB61007D00B
:1001E800043D0024013455F8043F9847A642F9D14C
:1001F8000A4E0B4D761B03F0C3FBB61008D0043D26
:100208000024013455F8043F9847A642F9D170BD3F
:1002180070BD00BFBC3A0008BC3A0008C43A0008E8
:10022800BC3A0008F0B4840743D0541E002A3ED0DC
:10023800CDB2034603E0621E002C38D0144603F802
:10024800015B9A07F7D1032C2AD9CDB245EA0525D7
:100258000F2C45EA054515D9A4F110073F0903F10C
:10026800100606EB07161A46156055609560D560AE
:100278001032B242F8D104F00F040137032C03EB1B
:1002880007130DD91E462246043A032A46F8045B92
:10029800FAD8221F22F003020432134404F00304A4
:1002A8002CB1C9B21C4403F8011BA342FBD1F0BC1A
:1002B800704714460346C6E7024B13B1024800F0E4
:1002C80005B8704700000000E10200080146002060
:1002D8000246034600F018B838B5094D094C641BAE
:1002E800A41018BF05EB840505D0013C55F8043D62
:1002F8009847002CF9D1BDE8384003F047BB00BF50
:10030800C43A0008C83A0008F0B5274C2668D6F861
:10031800484185B00746002C41D065681F2D1EDD79
:10032800224818B94FF0FF3005B0F0BD4FF4C8703F
:10033800039102920193AFF300800399029A019B03
:1003480004460028EED0D6F84851256000206060A9
:100358000546C6F84841C4F88801C4F88C013FB97D
:10036800AB1C00200135656044F8231005B0F0BDD2
:1003780004EB85004FF0010CC0F88820D4F88861A0
:100388000CFA05F21643022FC4F88861C0F8083148
:10039800E6D1D4F88C311A43C4F88C21E0E706F58D
:1003A800A674C6F84841B8E7043A000800000000FF
:1003B800704700BF10B582B0002304468DF807309F
:1003C80003F04AF902A8202100F8014D012203F0A8
:1003D8005DF902B010BD00BF10B582B002AC0023B9
:1003E80004F8013D03F038F920460F21012203F0FB
:1003F8004FF99DF8070002B010BD00BF30B583B0BB
:1004080002AC002304F8013D0546212120460122C3
:1004180003F03EF99DF8073023F02F031D432046D3
:10042800212101228DF8075003F030F903B030BDC7
:1004380000B585B004A8002300F8093D3921012240
:1004480003F026F902A82721062203F021F905B0B6
:100458005DF804FB00B583B00DF1070021210122EE
:1004680003F016F99DF807300DF1070043F040033B
:10047800212101228DF8073003F008F903B05DF857
:1004880004FB00BF10B586B0044620210DF107001B
:10049800012203F0FDF802A82921062203F0F8F84A
:1004A8009DF807309DF908109DF90A209DF90C0068
:1004B80013F0200F14BF4823122301FB03F102FBA2
:1004C80003F200FB03F321806280A38006B010BD15
:1004D80030B583B002AC002304F8013D054638214D
:1004E8002046012203F0D4F869782B78AA780B43C8
:1004F80013432046382101228DF8073003F0C6F84F
:1005080003B030BD70B582B002AC00238DF8033063
:100518003F2603F0B9F820234021102201A88DF8C6
:1005280006308DF804108DF80520FFF7D1FF04F888
:10053800056D22212046012203F0A8F82046502309
:10054800382101228DF8033003F0A0F82046AA23B1
:100558003B2101228DF8033003F098F820460A2346
:100568003C2101228DF8033003F090F820464C23FB
:10057800302101228DF8033003F088F80323204648
:100588003D2101228DF803307F2503F07FF82046B6
:100598003E2101228DF8035003F078F820463146B9
:1005A80001228DF8035003F071F802B070BD00BF4E
:1005B800704700BF30B583B002AC002305468DF804
:1005C800073003F049F804F8015D20212046012294
:1005D80003F05CF82D0A2046242101228DF80750EB
:1005E80003F054F803B030BD10B582B002AC00235C
:1005F80004F8013D03F030F820460F21012203F0F2
:1006080047F89DF8070002B010BD00BF00B583B0E1
:100618000DF107002521012203F03AF89DF8073073
:100628000DF1070063F07F03252101228DF80730C3
:1006380003F02CF803B05DF804FB00BF30B585B0BB
:1006480024210122054602AC0DF1070003F020F831
:1006580020462821012203F01BF80DF10900292169
:10066800012203F015F80DF10A002A21012203F0F6
:100678000FF80DF10B002B21012203F009F803A854
:100688002C21012203F004F801220DF10D002D2187
:1006980002F0FEFF9DF8073003F03803083BDBB299
:1006A800182B97BF0E4A9FED0F7A02EB830393ED49
:1006B800007A0023E118E25691F9011002EB0122B9
:1006C80007EE902AF8EEE77A67EE877AFDEEE77A8A
:1006D80017EE902AEA520233062BEBD105B030BD53
:1006E800083A00088FC2753D30B5017843788278A2
:1006F80083B002AD0B43134305F8013D04462321A3
:100708002846012202F0C2FF2279E37828461343E3
:10071800212101228DF8073002F0B8FFA279637910
:1007280028461343222101228DF8073002F0AEFF3C
:1007380003B030BD70B584B00026012404AD8DF837
:10074800076002F0A1FF402302A88DF80A308DF857
:1007580009608DF808608DF80B608DF80E608DF8D3
:100768000D40FFF7C1FF032305F8093D224628463F
:10077800522102F08BFF28462246C82354218DF8C7
:10078800073002F083FF28462246452356218DF87C
:10079800073002F07BFF28462246FC235A218DF8B9
:1007A800073002F073FFA123284622465B218DF80B
:1007B800073002F06BFF284622465C218DF807407F
:1007C80002F064FF284622467B2102F05FFF28469C
:1007D8002246602102F05AFF28462246062361215C
:1007E8008DF8073002F052FF28462246282362215E
:1007F8008DF8073002F04AFF11232846224663216C
:100808008DF8073002F042FF04B070BD38B50F4CC8
:10081800A36898473B2806D00D4CA36898473F2803
:100828000CD0012038BD0B4D23682C604720984719
:100838002B682D209B6A9847002038BD054A2368FD
:10084800146067209847002038BD00BF28040020A6
:100858005C040020B404002038B5084C23681B6BE6
:10086800054623B198472268054B9A4200D038BD07
:100878002B886A882A805B426B8038BDB4040020CC
:1008880028040020DFF834D0002103E00C4B5B582B
:10089800435004310B480C4B42189A42F6D30B4A8A
:1008A80002E0002342F8043B094B9A42F9D300F0D6
:1008B80013F8FFF78FFC02F055FD70470000022087
:1008C800C83A00080000002098040020980400207E
:1008D80048430020FEE7000010B4104A104BD2F83D
:1008E8008810104C41F47001C2F888101968002073
:1008F80041F0010119609860196821F0847121F4B0
:10090800803119605C601C684FF0006124F4802419
:100918001C60D86091605DF8044B704700ED00E002
:10092800003802401030002408B50B4B1A6842F416
:1009380000721A601A6842F480621A601A6842F4F7
:1009480080721A60032000F017F8002002F0C6FF3A
:1009580002F00CFF002008BD003C0240024B1A6860
:1009680001321A60704700BF00420020014B18682E
:10097800704700BF00420020074AD1684FF6FF03C6
:100988000B4043F0BF6300F0070043F4003343EA31
:100998000023D360704700BF00ED00E030B4194B6E
:1009A800DC68C4F30224C4F10703251D042B28BF07
:1009B8000423062D19D9033C0125A540013D2A40F1
:1009C800012505FA03F3013B194001FA04F4002854
:1009D80044EA02040CDB00F1604000F561402401A8
:1009E800E4B280F8004330BC704700221446E7E7C1
:1009F800054B00F00F0024010344E4B21C7630BC20
:100A0800704700BF00ED00E0FCEC00E000F01F02C2
:100A180001214009024B01FA02F243F820207047F5
:100A280000E100E00138B0F1807F10B40DD2094B2D
:100A3800094C58600022F020072184F823009A60AE
:100A4800196010465DF8044B704701205DF8044BAF
:100A5800704700BF10E000E000ED00E0044B1A68AA
:100A680004280CBF42F0040222F004021A60704706
:100A780010E000E02DE9F00FDFF8E0C16F4CDFF87F
:100A8800E0A182B0002303E00133102B00F0B7800F
:100A980001220D689A4002EA05089045F4D14E6893
:100AA80026F01002022A13D1DA0800EB820203F0C2
:100AB80007060D69176AB6004FF00F0909FA06F91B
:100AC80027EA090905FA06F649EA060515624E6895
:100AD8005A000325D0F80090954006F00306ED4330
:100AE800964005EA090946EA090606604E6826F0B6
:100AF8001006013E012E13D88768CE6805EA07095B
:100B080006FA02F749EA070686604E68D0F80490AC
:100B1800C6F300169E4029EA080949EA0606466017
:100B2800C6688F68354007FA02F22A43C2604A68ED
:100B3800D200A9D5424D002601966A6C42F4804243
:100B48006A646D6C23F0030202F1804205F480456B
:100B580002F59C32019503F00305DDF80490D2F804
:100B680008B0AD004FF00F0909FA05F960452BEA06
:100B7800090948D0504548D0324EB04249D0324F8A
:100B8800B8424AD0314EB0424BD0314FB8424CD027
:100B9800304EB0424DD0304EB0420CBF072608262A
:100BA80006FA05F545EA090595604D6826686FEA75
:100BB8000802EF0354BF02EA060548EA0605256065
:100BC8004D686668AD0354BF02EA060548EA0605A3
:100BD80065604D68A668EF0254BF02EA060548EA58
:100BE8000605A5604D68E668AD0203F1010354BF30
:100BF800324048EA0602102BE2607FF449AF02B0A7
:100C0800BDE8F00F70473546CCE7012606FA05F532
:100C1800C8E7022606FA05F5C4E7032606FA05F52D
:100C2800C0E7042606FA05F5BCE7052606FA05F529
:100C3800B8E7062606FA05F5B4E700BF003C014010
:100C48000038024000080240000C02400010024038
:100C58000014024000180240001C0240000002403C
:100C68000004024002B909048161704738B504469E
:100C7800002871D090F83D3003F0FF02002B56D0C9
:100C88002368364D242284F83D201A6822F0010298
:100C98001A6000F0C1FB324A2368A2FB0012920CD2
:100CA8005A6094E80A00AB4238D801320A62636895
:100CB8002A4922688B4226D85B00B0FBF3F0C0F3C8
:100CC8000B03032B98BF0420D061216AE2692368D3
:100CD8000A431A60E168226923680A439A60A16995
:100CE800626923680A43DA6022681068002340F0CA
:100CF800010020211060236484F83D10236384F8E8
:100D08003E30184638BDA168B1B903EB4303B0FBC8
:100D1800F3F0C0F30B03E3B90120D5E74FF4967560
:100D2800104B05FB02F2A3FB02529209BDE780F8C3
:100D38003C2002F04BFDA3E703EB830303EB8303A3
:100D4800B0FBF3F0C0F30B03002BE5D040F44040B8
:100D5800BAE740F40040B7E7012038BDA08601009B
:100D680083DE1B43D34D6210C369012B19D00E4B90
:100D78005A6812F4800F5A6814BF0C480C480A4B82
:100D880002F03F02B0FBF2F2D3F88400D3F88430CB
:100D9800C0F3881000FB02F0C3F30273B0FBF3F05A
:100DA80070470448704700BF0038024000127A00BC
:100DB8000024F4000080BB00F8B50446002800F0C9
:100DC800958090F83D3003F0FF02002B4CD00222B2
:100DD800216884F83D20CB6923F47B6323F00F035B
:100DE800CB6123681A6262692368022ADF6975D0B9
:100DF800E3682046002B14BF02260126FFF7B4FF44
:100E080025696369B5F5007F16BF7601000AB0FB56
:100E1800F6F000EB80004100B1FBF3F1344B0531F3
:100E2800A3FB0101C9084A08931EFD2B01F001002C
:100E380023688CBF022242EA00222A431A626668AB
:100E4800A568E068A26923683E4346F40066354316
:100E580028430243DA61236A012B0AD000200123C8
:100E6800206484F83D30F8BD80F83C2002F0DAFCBC
:100E7800ADE7204A2568204B95420CBF1D464FF030
:100E880040250226E86920F47B6020F00F00E86125
:100E9800206890420CBF18464FF040200662256833
:100EA8006068954218BF4FF0402330F40070DB694A
:100EB80017D14FF48071A068E2680E4F0E4E1843A8
:100EC80040F400600243A069BD420CBF35464FF0B4
:100ED800402542EA00031943E961BFE7256900217B
:100EE800ABE7B0F5807F08BF0021E4E70120F8BD3B
:100EF800CDCCCCCC0038004000340040F0B50368BD
:100F0800DD0783B0044622D5914A916801F00C01AF
:100F1800042900F0EA80916801F00C01082900F02A
:100F2800E0808C4B22791A706368002B00F0CB802C
:100F3800FFF71CFD864D064605E0FFF717FD801BF1
:100F4800642800F29F802B689A03F6D523689F07D0
:100F58002DD57F4B9A6812F00C0F00F09A809A6892
:100F680002F00C02082A00F09080E368002B00F0E1
:100F7800D880794B764D01221A60FFF7F7FC0646B8
:100F880004E0FFF7F3FC801B02287BD82B68704A2B
:100F98009807F6D51168F82090FAA0F02369B0FAFE
:100FA80080F021F0F80183400B43136023681A078F
:100FB80020D4590734D4A369CBB1654A916801F0AC
:100FC8000C0108296CD0022B644B4FF0000119600A
:100FD80000F0B8801446FFF7C9FC054604E0FFF7A7
:100FE800C5FC401B02284DD823689B01F7D400207C
:100FF80003B0F0BD6369002B55D0594B544D012205
:101008001A60FFF7B3FC064604E0FFF7AFFC801B4D
:10101800022837D86B6F9F07F7D523685907CAD5B9
:101028004B4B504D002201921A6C42F080521A64C8
:101038001B6C03F080530193019B2B6843F480736E
:101048002B60FFF793FC064604E0FFF78FFC801B3C
:10105800022817D82B68DA05F7D5434B227A1A707D
:10106800A368002B00F0C480FFF780FC384D0746CA
:1010780041F288362B6F9B079DD4FFF777FCC01B86
:10108800B042F7D9032003B0F0BD5B685E023FF5BC
:101098006CAF2F4B1B689D0731D5E368012B2ED011
:1010A800012003B0F0BD2E4A294D1360FFF75EFC06
:1010B800064604E0FFF75AFC801B0228E2D86B6F53
:1010C8009807F7D4A9E7FFF751FC214D064604E03D
:1010D800FFF74CFC801B6428D4D82B689B03F7D4FB
:1010E80034E7526850027FF51CAF194A1268910321
:1010F8007FF52DAF6268002A7FF429AFD0E7144B43
:10110800F820196890FAA0F02269B0FA80F021F06E
:10111800F80182400A431A6023681A077FF549AF2D
:1011280068E70D4A0A4D1360FFF720FC064604E005
:10113800FFF71CFC801B0228A4D82B689907F7D45A
:10114800236834E71546FFF711FC064613E000BF95
:10115800003802400238024000004742600047421F
:10116800800E47420070004070380240FFF7FEFBD7
:10117800801B022886D82B68254A9901F6D447F6A1
:10118800C07595FAA5F54FF44030B5FA85F590FA93
:10119800A0F04FF07061B0FA80F091FAA1F1A66A60
:1011A800D4F824C0D4F820E0E769E46A194B76083B
:1011B8000CFA05F54EEA0707013E3D43B1FA81F105
:1011C80006FA00F004FA01F12843084301215060AF
:1011D80019601446FFF7CAFB054605E0FFF7C6FB92
:1011E800401B02283FF64EAF23689A01F6D5FEE66B
:1011F800FFF7BCFB064D074641F288362B6F980770
:101208007FF5D9AEFFF7B2FBC01BB042F6D939E77C
:10121800003802406000474210B41D4B9A6802F043
:101228000C02042A2FD0082A03D01A485DF8044B70
:10123800704758685A685C6812F4800F00F03F01E4
:1012480047F6C07292FAA2F247F6C07314BF12486A
:101258001048B2FA82F22340D340B0FBF1F000FB11
:1012680003F00B4B4FF440325B6892FAA2F2B2FAE9
:1012780082F203F44033D34001335B00B0FBF3F058
:101288005DF8044B704704485DF8044B704700BF95
:10129800003802400024F40000127A002DE9F041E1
:1012A800564B1A6802F00F028A420C46054609D2CC
:1012B800CAB21A701B6803F00F038B4202D00120D8
:1012C800BDE8F0812B689A0707D54D4BAA68996845
:1012D80021F0F0010A439A602B68DF0726D56B6876
:1012E800012B00F085809A1E012A454A126879D997
:1012F8009107E4D5424FBA6822F003021343BB605A
:10130800FFF734FB6B68012B064641F288384DD055
:10131800022B56D0032B05D15EE0FFF727FB801B7D
:10132800404562D8BB6813F00C0FF6D1334B1A68EE
:1013380002F00F02944206D2E2B21A701B6803F060
:101348000F03A342BBD12B685A0707D52C4BEA6879
:10135800996821F4E0510A439A602B681B0707D566
:10136800274B29699A6822F4604242EAC1029A60CE
:10137800FFF752FF224A0146F023926893FAA3F33B
:10138800B3FA83F302F0F002DA401E481E4B825C87
:10139800002021FA02F21A6002F0A0FA0020BDE84B
:1013A800F081FFF7E3FA801B40451ED8BB6803F0C5
:1013B8000C03042BF5D1B9E7FFF7D8FA801B404599
:1013C80013D8BB6803F00C03082BF5D1AEE7FFF781
:1013D800CDFA801B404508D8BB6803F00C030C2BE2
:1013E800F5D1A3E7900185D469E70320BDE8F08132
:1013F800034A126896033FF57DAF60E7003C024060
:10140800003802406C3A000890040020014B18682C
:10141800704700BF90040020084B4FF4E0529B68CF
:1014280092FAA2F2B2FA82F203F4E053D3400449EA
:10143800044ACB5C1068D840704700BF00380240AF
:101448006C3A000890040020084B4FF460429B68F7
:1014580092FAA2F2B2FA82F203F46043D34004494A
:10146800044ACB5C1068D840704700BF003802407F
:101478006C3A00089004002010B40E4B0F22026052
:101488009C680D4A04F0030444609C6804F0F0046E
:1014980084609C6804F4E054C4609B685DF8044B65
:1014A80003F46043DB080361136803F00F030B6068
:1014B800704700BF00380240003C0240F0B50368A6
:1014C800DA0783B006464FD413F0020001D103B007
:1014D800F0BD4D4B4D4C002201921A6C42F08052E7
:1014E8001A641B6C03F080530193019B236843F437
:1014F80080732360FFF73AFA054604E0FFF736FAEF
:10150800401B02282DD82368D905F7D53E4BF16832
:101518001A6F12F4407201F4407010D090420ED04D
:10152800196F3B4A21F440710124002014601060B7
:1015380019671A6FD2074DD4F16801F44070324B25
:10154800B0F5407F9A6855D022F4F8129A602E4B75
:10155800F268196FC2F30B020A4300201A6703B03E
:10156800F0BD032003B0F0BD2A4B274C00221A60BF
:10157800FFF7FCF9054604E0FFF7F8F9401B0228DD
:10158800EFD82368204A1F01F6D447F6C07494FAAE
:10159800A4F44FF0E045B4FA84F495FAA5F5B168DF
:1015A80073681C48B5FA85F5A940A3400B4301248C
:1015B800C2F8843004601446FFF7D8F9054604E001
:1015C800FFF7D4F9401B0228CBD823681801F7D5B8
:1015D800336879E71C46FFF7C9F941F288350746B1
:1015E80004E0FFF7C3F9C01BA842BAD8226F9307DB
:1015F800F7D5A1E721F0704121F4407122F4F812E7
:1016080011439960A3E700BF003802400070004012
:10161800400E4742680047422DE9F04180460C469B
:1016280017461E46D8F8005001E0721C09D1A96877
:101638002140631A594259418F42F6D10020BDE832
:10164800F0813EB1FFF792F9069BC01A8642E9D8AD
:10165800D8F800506B6823F0E0036B60D8F80430CA
:10166800B3F5827F1BD0D8F82830B3F5005F08D0D7
:101678000122002388F8512088F850300320BDE863
:10168800F081D8F8002011684DF6FF730B40136005
:10169800D8F800301A6842F400521A60E8E7D8F81F
:1016A8000830B3F5004F02D0B3F5806FDBD1D8F81E
:1016B80000301A6822F040021A60D4E710B582B0F0
:1016C8000B460092802100220446FFF7A5FF20B1B7
:1016D800636D43F020036365032002B010BD00BFB3
:1016E8002DE9F041804600284DD090F85130002275
:1016F80003F0FF018262002B40D0D8F800300222AC
:1017080088F851201A6822F040021A60D8F80800B8
:10171800D8F80470D8F80C60D8F81050D8F81440ED
:10172800D8F81C10D8F82020D8F8283007433E43B2
:1017380035432C4321430A431343D8F8182002F4B5
:1017480000700343D8F800000360B8F81A10D8F8FE
:101758002420D8F8003001F004010A435A60D8F870
:101768000020D069002320F400600121D061C8F86E
:10177800543088F851101846BDE8F08180F85010B0
:1017880002F084F8B9E70120BDE8F0812DE9F043C3
:10179800044690F8500085B001280F460C9D164667
:1017A800984603D1022005B0BDE8F083012384F8F0
:1017B8005030FFF7DBF894F851306168DBB2012B49
:1017C800814611D0B1F5827F09D002200122002381
:1017D80084F8512084F8503005B0BDE8F083A26841
:1017E800002AF2D1042BF0D1002F63D0002E61D053
:1017F800B8F1000F5ED094F851302268A663012B2F
:1018080004BF052384F8513000236365A4F83C80A5
:10181800A4F83E802763A4F8348023646364A4F8A2
:1018280036801368580604D4136843F040031360E5
:101838006168E368B3F5006F3ED0002962D0E38E9B
:101848009BB2012B5ED04FF00108E38E9BB21BB90F
:10185800E38F9BB2002B3DD0B8F1000F10D0E38E80
:101868009BB2002B4BD023689A68910747D53A78EA
:101878001A73E38E013B9BB20137E3864FF00008F1
:10188800E38F9BB263B123689A68D20708D5DB68F7
:101898003370E38F013B9BB20136E3874FF00108B9
:1018A8006B1CD2D0FFF762F8C9EB00008542CCD898
:1018B80003208BE7012089E700295BD0E38E9BB2E8
:1018C800012B57D04FF00108E38E9BB21BBBE38F6F
:1018D8009BB203BBCDF800902046022101222B4683
:1018E800FFF79AFE0028E3D129464A462046FFF72B
:1018F800E5FE002847D020236365012066E74FF006
:101908000108BDE7236817F8012B1A73E38E013B22
:101918009BB2E38697E7B8F1000F0FD0E38E9BB236
:101928002BB323689A68910721D537F8022BDA6020
:10193800E38E013B9BB2E3864FF00008E38F9BB236
:1019480063B123689A68D20708D5DB6826F8023B9A
:10195800E38F013B9BB2E3874FF00108681CB3D0CB
:10196800FFF704F8C9EB00008542ADD8A0E74FF0B7
:101978000108E3E7236837F8022BDA60E38E013BBE
:101988009BB2E3869EE7A368002B7FF41FAF226813
:101998000393D1680391926803921846039B15E755
:1019A800704700BF034600201A68D16841F0010162
:1019B800D1601B681A6842F001021A60704700BFC4
:1019C800704700BF704700BF704700BF704700BF37
:1019D80010B503681A699107044602D5DA689207B8
:1019E80065D41A69500702D5DA6851074BD41A69C9
:1019F800120702D5DA68100732D41A69D20602D55E
:101A0800DA68D00618D41A69D10702D5DA68D2077D
:101A18006FD41A69100602D5DA68110671D41A69EA
:101A2800520602D5DA6850065BD41A69910602D5C7
:101A3800DA6892064DD410BD6FF010021A6123685F
:101A480008222276DB6913F4407F204664D1FFF731
:101A5800B7FF2046FFF7B8FF002223682276D2E7B7
:101A68006FF008021A61236804222276DB6999075D
:101A7800204657D1FFF7A4FF2046FFF7A5FF002215
:101A880023682276B9E76FF004021A6123680222FC
:101A980022769B6913F4407F204640D1FFF790FFE0
:101AA8002046FFF791FF0022236822769FE76FF018
:101AB80002021A610368012202769B699B0728D1FA
:101AC800FFF77EFF2046FFF77FFF0022236822767C
:101AD80087E76FF020021A612046BDE8104000F049
:101AE800A9B86FF040021A612046FFF76FFF23681C
:101AF8009BE76FF001021A61204601F02DFE236872
:101B080087E76FF080021A61204600F095F8236895
:101B180085E7FFF757FFD8E7FFF754FF9CE7FFF784
:101B280051FFC0E7FFF74EFFA9E700BF314A03683E
:101B3800904210B449D0B0F1804F31D0A2F57C4228
:101B480090422DD002F58062904229D002F5806241
:101B5800904225D002F57842904221D002F5705289
:101B6800904221D002F5806290421DD002F5806239
:101B7800904219D0A2F59832904215D002F58062B1
:101B8800904211D002F5806290420DD003608B68BC
:101B9800C3620B688362012343615DF8044B70479D
:101BA8004A6823F070031343CA6823F440731A4346
:101BB80002608B68C3620B6883620F4B984211D036
:101BC800012343615DF8044B70474C68CA6823F0F1
:101BD80070031C4324F44074224302608B68C36280
:101BE8000B6883620B690363012343615DF8044B4F
:101BF800704700BF000001400004014010B50446D2
:101C0800B0B190F8393003F0FF0263B102232146E6
:101C180084F8393051F8040BFFF788FF012384F862
:101C28003930002010BD80F83820FFF7B9FEEDE705
:101C3800012010BD704700BF704700BF08B500F015
:101C4800C7FE002008BD00BF70B5B0F9084086B0D7
:101C5800842C024614BFE61C0026002405AD40680B
:101C68000B461168128A009601950294039400F0BD
:101C7800A9FD01280CBF0598204606B070BD00BF1D
:101C880008B5002808BF012001F002F8002008BDAF
:101C9800002203C800F08ABB08B501F09BF90128AF
:101CA80003D0BDE8084000F007B908BD00F10803FB
:101CB8004FF0FF310022816080E80C00C3600361AF
:101CC800704700BF00230361704700BF43684B6043
:101CD8009A688A609A68516099600861036801335C
:101CE8000360704730B40D686B1C11D000F1080216
:101CF80000E01A4653681C68A542FAD24B60996006
:101D08008A605160086103680133036030BC704722
:101D180002695368F2E700BF42688168036991600D
:101D28008268416851605A68824204BF82685A607A
:101D38000022026118680138186070470A4B1B6856
:101D4800013308D04FF0500383F31188BFF36F8F2E
:101D5800BFF34F8FFEE74FF0500383F31188BFF3B3
:101D68006F8FBFF34F8FFEE794040020064800688A
:101D7800006880F3088862B661B6BFF34F8FBFF37F
:101D88006F8F00DF00BF000008ED00E0DFF80C00F7
:101D9800016841F4700101607047000088ED00E0BF
:101DA80010B4094B40F8081C4FF080746FF0020122
:101DB80040F8202C40F8044C40F80C3C40F8241C17
:101DC8005DF8044B44387047451D0008064B1968F8
:101DD8000868B0E8F04F80F30988BFF36F8F4FF0C1
:101DE800000080F311887047A44100204FF0500391
:101DF80083F31188BFF36F8FBFF34F8F0A4A1368BD
:101E08000133012B136000D07047084B1B6813F097
:101E1800FF0FF9D04FF0500383F31188BFF36F8F92
:101E2800BFF34F8FFEE700BF9404002004ED00E0ED
:101E3800084A136843B94FF0500383F31188BFF37E
:101E48006F8FBFF34F8FFEE7013B13600BB983F32E
:101E58001188704794040020EFF30980BFF36F8F57
:101E6800144B1A681EF0100F08BF20ED108A20E9E5
:101E7800F04F10604DF8043D4FF0500080F311888A
:101E8800BFF34F8FBFF36F8F00F08EFF4FF000004E
:101E980080F3118808BC19680868B0E8F04F1EF094
:101EA800100F08BFB0EC108A80F30988BFF36F8F5A
:101EB800704700BFA441002008B5EFF311834FF02D
:101EC800500282F31188BFF36F8FBFF34F8F00F07A
:101ED800C1FD18B1034B4FF080521A60002383F301
:101EE800118808BD04ED00E010B4074B074A1868D4
:101EF8000749084BA2FB0040800901380722086007
:101F08001A605DF8044B704790040020D34D6210AE
:101F180014E000E010E000E030B5324B324A1968B6
:101F2800914283B04BD01A68304B9A4250D0304B14
:101F380030481C78304AE4B2FF21019419701B78AC
:101F4800DBB28DF803309DF803409DF8033004F0B0
:101F58005004072104701C0611600FD5062300E009
:101F68000B469DF803104900C9B28DF803109DF87F
:101F78000300000603F1FF31F2D41946019D1C4805
:101F88001E4B090201F4E064E9B2146001701A689A
:101F980042F470021A601A6842F070421A60FFF741
:101FA800A3FF174B00221A60FFF7F0FE154B1A68C3
:101FB80042F040421A60FFF7D9FEFFF7BFFE4FF02C
:101FC800500383F31188BFF36F8FBFF34F8FFEE782
:101FD8004FF0500383F31188BFF36F8FBFF34F8F18
:101FE800FEE700BF00ED00E071C20F4170C20F4173
:101FF80000E400E0B8040020BC04002020ED00E06C
:102008009404002034EF00E010B4124A13688342AD
:1020180001D21A46FAE751685418844203D140683D
:1020280001445160104641684418A3420AD10A4C41
:102038002468A34206D05B681944416013681B6892
:10204800036000E00360824218BF10605DF8044B33
:10205800704700BFC8040020C40400202DE9F041E7
:10206800044600F0EFFC44480368002B58D0434B6B
:102078001E6826424ED1002C4CD004F108035907A3
:102088001CBF23F007030833002B43D03C4F3D68A7
:10209800AB423FD83B490C6803E0226822B1214695
:1020A800144662689342F8D80268944232D0226893
:1020B800D1F800800A606268D11A102910D9E01896
:1020C800420708D04FF0500383F31188BFF36F8F96
:1020D800BFF34F8FFEE741606360FFF795FF6268CB
:1020E80029480168AB1A8B4238BF03603B60324312
:1020F80000232360626008F1080500F049FD6B07C2
:102108000BD04FF0500383F31188BFF36F8FBFF3E9
:102118004F8FFEE700F03CFD00252846BDE8F08122
:102128001A4A550724D0D11D21F0070102F5705332
:102138005B1A0A461344A3F1080121F00701DFF8EE
:102148004880DFF83CC00F4FDFF830E001608B1AA1
:1021580000254FF0004687E82400C8F800304D609D
:102168000D60CCF80030CEF8006082E80A0080E705
:102178004FF47053DEE700BFC4040020D0400020B5
:10218800C0040020C8040020D4400020D00400204F
:1021980010B50446D0B1184A50F8043C12681A42E7
:1021A80008D14FF0500383F31188BFF36F8FBFF34B
:1021B8004F8FFEE750F8081C49B14FF0500383F3E6
:1021C8001188BFF36F8FBFF34F8FFEE710BD23EA6F
:1021D800020340F8043C00F035FC084B54F8041C9A
:1021E8001A68A4F108000A441A60FFF70DFFBDE859
:1021F800104000F0CDBC00BFD0400020C00400203B
:1022080038B51546026C044632B9056845BB4068C6
:1022180000F03AFF656024E06DB9806801F0A6FB24
:10222800A168236C62680B449342A36018D32368A7
:10223800A360284615E0C06801F098FB226CE368AB
:102248002168524213448B42E36002D263681A4405
:10225800E260022D04D1A36B13B1A36B013BA3630E
:102268000020A36B0133A36338BD00BF10B4026C18
:10227800034672B1C46840681444844228BF186891
:10228800DC6028BFD8605DF8044B0846D96801F0C7
:102298006DBB5DF8044B704738B50446FFF7A6FDE3
:1022A800A36C002B14DD636A93B104F1240507E0E5
:1022B800A36C013BA364A36C002B09DD636A3BB1EB
:1022C800284600F0E1FD0028F2D000F07DFEEFE79F
:1022D8004FF0FF33A364FFF7ABFDFFF787FD636C97
:1022E800002B14DD236993B104F1100507E0636C3A
:1022F800013B6364636C002B09DD23693BB128460D
:1023080000F0C2FD0028F2D000F05EFEEFE74FF0CB
:10231800FF336364BDE83840FFF78ABD38B504462B
:102328000D46C8B1FFF762FD206CE26B2368A3601D
:1023380002FB00F2101A1844002113444FF0FF3238
:10234800A163E06062646360A26405BB236963B94A
:10235800FFF76EFD012038BD4FF0500383F311885D
:10236800BFF36F8FBFF34F8FFEE704F1100000F04B
:102378008BFD0128ECD10C4B4FF080521A60BFF353
:102388004F8FBFF36F8FFFF753FD012038BD04F166
:102398001000FFF78BFC04F12400FFF787FCFFF720
:1023A80047FD012038BD00BF04ED00E0F8B5054643
:1023B8000E46174640B94FF0500383F31188BFF318
:1023C8006F8FBFF34F8FFEE799B101FB00F05530D7
:1023D800FFF744FE044698B100F154030360E56337
:1023E800266420460121FFF799FF84F850702046A3
:1023F800F8BD5420FFF732FE044608B12460EEE72A
:102408004FF0500383F31188BFF36F8FBFF34F8FE3
:10241800FEE700BF2DE9F04784B004460F4601925D
:102428001D46002800F0A280002900F09280022DAD
:1024380000F0828000F0CEFD002800F0A080FFF7B9
:10244800D5FCA26BE36BDFF860A100269A42B04688
:1024580044D239462A462046FFF7D2FE636A002B4B
:1024680063D138B1504B4FF080521A60BFF34F8F91
:10247800BFF36F8FFFF7DCFC012053E002A800F0E8
:1024880049FDFFF7D5FC00F0DDFAFFF7AFFC636C00
:10249800013308BFC4F84480A36C013308BFC4F8F3
:1024A8004880FFF7C5FC02A801A900F049FD0028F3
:1024B80072D1FFF79BFCA26BE36B9A4218D0FFF72F
:1024C800B7FC2046FFF7E8FE00F062FBFFF78EFC42
:1024D800A26BE36B9A424FF00106BAD3022DB8D033
:1024E800DDF80490B9F1000F19D0002EC9D1C5E765
:1024F800FFF79EFC04F11000019900F08DFC2046C6
:10250800FFF7CAFE00F044FB0028DFD14FF08053EC
:10251800CAF80030BFF34F8FBFF36F8FD6E7FFF7CE
:1025280087FC484604B0BDE8F08704F1240000F0B9
:10253800ABFC01289ED195E7E36B012B3FF47AAF02
:102548004FF0500383F31188BFF36F8FBFF34F8FA2
:10255800FEE7036C002B3FF46AAF4FF0500383F3A0
:102568001188BFF36F8FBFF34F8FFEE74FF0500313
:1025780083F31188BFF36F8FBFF34F8FFEE7019B83
:10258800002B3FF45CAF4FF0500383F31188BFF387
:102598006F8FBFF34F8FFEE72046FFF77DFE00F0F9
:1025A800F7FA0020BEE700BF04ED00E02DE9F04790
:1025B80084B004460E4601929946002871D000293D
:1025C80000F0AD8000F006FD002873D0FFF70EFC88
:1025D800A36BDFF874A100252F46002B36D03146B7
:1025E8002046E568FFF742FEB9F1000F40F083800E
:1025F800A26B2368013AA26313B900F09FFD6060E3
:102608002369002B40F09880FFF712FC01206BE053
:10261800FFF70EFC2368002B58D004F12400019921
:1026280000F0FAFB2046FFF737FE00F0B1FA38B9A0
:102638004FF08053CAF80030BFF34F8FBFF36F8F4E
:10264800FFF7D4FBA36B0125002BC8D1DDF804806C
:10265800B8F1000F4BD015B902A800F05BFCFFF7EA
:10266800E7FB00F0EFF9FFF7C1FB636C013308BF2C
:102678006764A36C013308BFA764FFF7D9FB02A8FE
:1026880001A900F05DFC48BBFFF7B0FBA36B002B72
:10269800BED0FFF7CDFB2046FFF7FEFD00F078FA2D
:1026A800CEE74FF0500383F31188BFF36F8FBFF36A
:1026B8004F8FFEE7019B002B88D04FF0500383F328
:1026C8001188BFF36F8FBFF34F8FFEE7FFF78EFBC5
:1026D800606800F08FFCFFF7ABFB9EE72046FFF732
:1026E800DBFD00F055FA002004B0BDE8F087FFF7E5
:1026F8009FFB4046F8E7636AE560002B84D004F14D
:10270800240000F0C1FB00283FF47EAF0E4B4FF0D1
:1027180080521A60BFF34F8FBFF36F8F74E7036C5B
:10272800002B3FF44FAF4FF0500383F31188BFF3F2
:102738006F8FBFF34F8FFEE704F1100000F0A4FB8A
:1027480001287FF461AFE1E704ED00E0074B1A6868
:10275800126822B9064B4FF0FF321A6070471A68A8
:10276800034BD268D26852681A607047DC40002078
:10277800C441002010B50E4B0E4A19681268486013
:10278800904204460BD30C4A106819680431FFF7CD
:10279800A9FA0A4B1A68944238BF1C6010BD084A4F
:1027A80010681968BDE810400431FFF79BBA00BFF4
:1027B800A4410020C0410020DC400020C44100208A
:1027C800FC4000202DE9F84F0A9E0B9F0C9D804687
:1027D8008A469346994650B1062E11D94FF05003B8
:1027E80083F31188BFF36F8FBFF34F8FFEE74FF06E
:1027F800500383F31188BFF36F8FBFF34F8FFEE74A
:10280800002D00F081805C20FFF728FC044600289A
:1028180000F082804FEA8B0B05635A462846A521B3
:10282800FDF700FD236BABF1040B5B4423F0070BB2
:10283800002501E0102D09D063191AF8052083F846
:1028480034201AF805300135002BF3D1002504F1A6
:10285800040A5046E662E66484F843502565FFF7AB
:1028680031FA04F11800FFF72DFAC6F10703656580
:10287800246184F858506462584641464A46A36128
:10288800FFF78EFA206007B13C60FFF7AFFA424BC2
:10289800424F1A6801321A603A68002A4DD0DFF8B0
:1028A8002091D9F80030002B40D03D4DDFF814E1DD
:1028B8003C4BE16ADEF80020D3F800C04FF0010875
:1028C800424408FA01FB01EB8100626451464BEA7D
:1028D8000C0405EB80001C60CEF80020FFF7F6F929
:1028E800FFF7A6FAD9F80030EBB13B68DB6A9E42E5
:1028F80019D92D4B4FF080521A60BFF34F8FBFF399
:102908006F8F4046BDE8F88F9000FFF7A7FB05469C
:1029180000287FF478AF02E02846FFF739FC4FF033
:10292800FF30BDE8F88F4046BDE8F88F3B681C4D86
:10293800DB6A9E4228BF3C60B8E73C601B68184DC4
:10294800012B02D0DFF87890B0E7A84605F18C0992
:10295800404608F11408FFF7A9F9C845F8D1DFF88F
:1029680068B0DFF86880DFF858905846FFF79EF99E
:102978004046FFF79BF90D48FFF798F90C48FFF719
:1029880095F90C48FFF792F90B4A0C4BC2F800B0C6
:10299800C3F800808AE700BFCC410020A441002092
:1029A80004410020F841002004ED00E0A841002087
:1029B80090410020E4410020DC400020FC40002041
:1029C800E0400020C8410020E8400020D04100201D
:1029D80030B585B0002400940194029403942346F2
:1029E800134814498022FFF7EDFE01280BD040B9A7
:1029F8004FF0500383F31188BFF36F8FBFF34F8FEE
:102A0800FEE705B030BD4FF0500383F31188BFF3E4
:102A18006F8FBFF34F8F0849084A094B4FF0FF35B6
:102A28000D6010601C6005B0BDE83040FFF774BA57
:102A3800192D00087C3A0008C4410020E04000201D
:102A4800C0410020024B1A6801321A60704700BF6B
:102A5800BC4100202DE9F84F424B1B68002B53D195
:102A6800414B1A6801321A601F68002F5BD03F4C37
:102A78003F4E23683F4D9F4262D3DFF810914FF0DD
:102A8800000B2EE03C4B1A68D268D2F80C80D8F8BC
:102A9800041008F1040A8F42504654D3FFF73CF95A
:102AA800D8F8281008F1180009B1FFF735F9D8F857
:102AB8002C10D9F80030012202FA01FC01EB810048
:102AC80006EB800051464CEA0303C9F80030FFF7D3
:102AD800FDF82868D8F82C10C26A914228BF4FF038
:102AE800010B254B1A681268002ACBD14FF0FF3230
:102AF80022602A68D26A02EB820256F82220022A51
:102B080028BF4FF0010B05E01C4B1A6801321A6010
:102B18004FF0000B1A4A1268002A18BF4FF0010B39
:102B28005846BDE8F88F144B1A6812686AB14FF01E
:102B3800500383F31188BFF36F8FBFF34F8FFEE706
:102B48004FF0000BD5E72160D3E70E4918680E4A0D
:102B58000C681C600860136801331360FFF7F6FD0A
:102B680085E700BFBC410020C0410020C4410020CF
:102B780004410020A4410020DC4000200041002046
:102B8800FC410020FC400020D8400020F8410020F3
:102B98002DE9F84F354C236843B94FF0500383F3C0
:102BA8001188BFF36F8FBFF34F8FFEE7FFF71EF952
:102BB8002368013B23602368002B38D12C4B1B680A
:102BC800002B34D0DFF8C0902A4D2B4EDFF8BCB074
:102BD800CA4621E0DAF80C30DC6804F1040804F194
:102BE8001800FFF799F84046FFF796F8E36A32684D
:102BF80007FA03FC03EB8300204B414603EB8000FC
:102C08004CEA02033360FFF761F8DBF80030E16A51
:102C1800DB6A994228BF2F60D9F800300127002BC2
:102C2800D8D1174C236843B92C68012C14D0002440
:102C3800FFF7FEF82046BDE8F88F2368002BF3D095
:102C48000126FFF707FF00B12E602368013B2360D0
:102C58002368002BF5D1E7E70A4B4FF080521A6042
:102C6800BFF34F8FBFF36F8FE2E700BFBC41002077
:102C7800CC410020FC410020F84100200441002004
:102C88000041002004ED00E0A8410020A4410020FC
:102C980038B5024658B1194B196889B14FF050033D
:102CA80083F31188BFF36F8FBFF34F8FFEE7144B89
:102CB8004FF080521A60BFF34F8FBFF36F8F38BD4C
:102CC80018681049104C013018600D6820680430ED
:102CD8001544FFF721F848B922680C4BD16A1A68E5
:102CE800012000FA01F122EA01021A602846FFF7E2
:102CF80041FDFFF74DFF0028D9D038BDBC41002069
:102D080004ED00E0C0410020A4410020F84100206B
:102D18001F4E204D204CDFF88880DFF888902DE981
:102D28008848B24606E02268376801322260FFF719
:102D38002FFF7FB92B68002BF5D1D9F80030012B74
:102D4800F8D9164A4FF080531360BFF34F8FBFF383
:102D58006F8FEFE7FFF74AF8DAF80C30D3F80CB0CA
:102D68000BF10400FEF7D8FFD8F80020094B013A10
:102D7800C8F800201A68013A1A60FFF759F8DBF81A
:102D88003000FFF705FA5846FFF702FAD2E700BF0E
:102D980090410020E4400020BC41002004ED00E008
:102DA800CC41002004410020164B1B682BBB164960
:102DB800164A0B601368B3FA83F3DBB2C3F11F033F
:102DC80003EB83039B00124AD15841B94FF05003DB
:102DD80083F31188BFF36F8FBFF34F8FFEE71A4459
:102DE80002F1080153685B6853608B4204BF5B685B
:102DF8005360084ADB6813607047034B01221A606E
:102E0800704700BFBC410020FC410020F841002071
:102E180004410020A441002038B50D46E0B1164C0D
:102E280021681831FEF75EFF20680430FEF774FF52
:102E380048B92268114BD16A1A68012000FA01F1D9
:102E480022EA01021A606B1C0FD00D4B1868284447
:102E5800BDE83840FFF78EBC4FF0500383F311886C
:102E6800BFF36F8FBFF34F8FFEE72168054804312A
:102E7800BDE83840FEF72ABFA4410020F8410020F1
:102E8800C0410020E4410020F8B5C368DC6834B3D1
:102E980004F118052846FEF73FFF184B1B683BBB9B
:102EA800251D2846FEF738FF154AE36A16681548B7
:102EB80001279F4003EB8303294600EB830047EA81
:102EC80006051560FEF702FF0F4BE26A1B68DB6A16
:102ED8009A4283BF0D4B012018600020F8BD4FF0C7
:102EE800500383F31188BFF36F8FBFF34F8FFEE753
:102EF80029460748FEF7EAFEE6E700BFBC41002086
:102F0800F841002004410020A4410020FC41002099
:102F1800A841002030B1084A084B12681B6880E8B5
:102F28000C0070474FF0500383F31188BFF36F8F85
:102F3800BFF34F8FFEE700BFD8400020C0410020FC
:102F4800F8B504460D4660B311B3FEF74FFF296884
:102F58001B484B1C02682DD01A4E23683768BB42A9
:102F6800636801D09A420ED2D71AB9420BD98A1A8D
:102F78001344316802682B60002584E80600FEF7D8
:102F880057FF2846F8BD0125FEF752FF2846F8BD31
:102F98004FF0500383F31188BFF36F8FBFF34F8F48
:102FA800FEE74FF0500383F31188BFF36F8FBFF331
:102FB8004F8FFEE70025FEF73BFF2846F8BD00BF10
:102FC800C0410020D8400020014B01221A60704700
:102FD800FC410020054B1B6833B1054B1B68002BD7
:102FE80014BF00200220704701207047E0400020F5
:102FF800BC410020F8B50446C0B1204DC36A2A6818
:10300800D26A934212D28269002A04DB2A68D26A01
:10301800C2F1070282611A4E626903EB830306EB71
:1030280083039A4203D02B68DB6AE362F8BD271D4D
:103038003846FEF771FEF8B9E36A03EB830256F8E7
:103048002220CAB90F4A0120116800FA03F321EAC5
:10305800030313602B681568DB6AE36201249C4054
:1030680003EB830044EA05031360394606EB80004E
:10307800BDE8F840FEF72ABE024AEBE7A44100206B
:1030880004410020F8410020F8B50446F0B1284B6F
:103098001B68984208D04FF0500383F31188BFF3A0
:1030A8006F8FBFF34F8FFEE7036D43B94FF05003A7
:1030B80083F31188BFF36F8FBFF34F8FFEE7C16AA9
:1030C800C26C013B9142036500D00BB10020F8BDF2
:1030D800071D3846FEF720FEB8B1164D164BE26CB8
:1030E800D3F800E0E262012606FA02FCC2F107000A
:1030F80002EB82023946A0614CEA0E0705EB82001A
:103108001F60FEF7E3FD3046F8BDE26A094D02EBA9
:10311800820355F823300BB1074BE0E7064B01203B
:10312800196800FA02F221EA02021A60D7E700BF22
:10313800A441002004410020F8410020044B1A68F3
:103148001AB11A68116D013111651868704700BF0E
:10315800A441002008B50120FEF792FDFBE700BF5F
:1031680010B51A4C82B002E00120FEF789FD2068F4
:103178000DF106014FF0FF320023FFF717FA002880
:10318800F2D0BDF80620124802F001024FF40051B7
:10319800FDF768FDBDF806200D48C2F340024FF464
:1031A8008051FDF75FFDBDF806200948C2F3800293
:1031B8004FF48041FDF756FDBDF806200448C2F3E0
:1031C800C0024FF40041FDF74DFDCDE76C420020F1
:1031D800000C0240F0B5204C204D83B00027042697
:1031E80016E01BB2022213F1C80FADF8022029DA4B
:1031F800BDF8023043F00803ADF802300022134650
:1032080028680DF10201FFF705F90120FEF738FDE6
:10321800206801A94FF0FF320023FFF7C7F9002803
:10322800F3D0019B1AB212F1C80F4FEA1343D8DB4F
:10323800C82A1BB2CCBF32463A4613F1C80FADF8C4
:103248000220D5DBC82BD9DDBDF8023043F00103DD
:10325800ADF80230D2E700BF044200206C420020E3
:1032680030B585B0FDF7D2FA0C4D00230293ADF8C6
:103278000C3002A8FDF7F0FABDF80830BDF80A4096
:103288002868002243EA044401A913460194FFF781
:10329800C1F83220FEF7F4FCEBE700BF044200203F
:1032A800F0B599B000212C4A0191106C2B4B40F0DD
:1032B80080501064126C02F080520192019A0291BF
:1032C8001A6842F480421A601B6803F48043029330
:1032D80001250723022408214FF4A8724FF4800621
:1032E8000CA81793029F0C950D951294169413969B
:1032F80014911592FDF702FE034600B1FEE70F2672
:103308004FF4A0574FF4805207A805210894099359
:1033180007960A970B92FDF7C1FF00B1FEE7C0239D
:1033280003A8059403950493FEF7C8F8044600B172
:10333800FEE7FEF76BF80A4BA3FB00208009FDF7B8
:1033480071FB0420FDF78AFB314622464FF0FF301F
:10335800FDF724FB19B0F0BD0038024000700040B2
:10336800D34D62102DE9F0439FB00024FDF7DCFA3D
:10337800FFF796FF7A4B00941A6B7A48DFF81882A9
:1033880042F010021A631A6B02F010020092009ABF
:1033980001941A6B42F004021A631A6B02F00402D9
:1033A8000192019A02941A6B42F080021A631A6B16
:1033B80002F080020292029A03941A6B42F0010210
:1033C8001A631A6B02F001020392039A04941A6BAF
:1033D80042F002021A631A6B02F002020492049A83
:1033E80005941A6B42F008021A631B6B224603F01D
:1033F800080308210593059BFDF734FC01210A46C3
:103408005948FDF72FFC224658484FF21001FDF7A6
:1034180029FC01254FF0080919A952481A951B944F
:103428001C94CDF86490FDF725FB19A94E48199511
:10343800022705261A951B941C94FDF71BFB19A956
:1034480049481A971D96CDF864901B941C94FDF773
:1034580011FB19A9464819951B94CDF86880FDF70A
:1034680009FB042319A9434819931A941B94FDF7DF
:1034780001FB4FF4806319A93E481D961A971993CA
:103488001B941C94FDF7F6FA4FF2100319A937485C
:1034980019931A951B941C944FF40075FDF7EAFADA
:1034A80019A933481A941B9419950A26FDF7E2FACC
:1034B8004FF4E05319A92E481A9719931B941C949A
:1034C8001D96FDF7D7FA202319A9284819931A94AD
:1034D8001B94FDF7CFFA19A922481997CDF86880EF
:1034E8001B94FDF7C7FA244B2449254F9C604FF4E1
:1034F800804218461A61DC605C619C61DC611C6278
:103508001F605960FDF7B2FB024600B1FEE71D4B94
:103518001D491E4C9A601846DA609A61DA611A628F
:103528005D601D611C605961FDF746FC024600B1F3
:10353800FEE7174B174F986018214FF4827418460E
:10354800DE62DA601A615A619D611A625A629A6291
:103558001F605C60D961FEF7C3F80646F0B1FEE76C
:10356800003802400010024000080240000C0240EF
:1035780000000240000402400C420020A086010026
:1035880000540040C842002000770100003C004081
:10359800704200200030014000001210274C0FCC70
:1035A8000AAF0FC72546314655F8043B3B600AA8C9
:1035B800FEF74AFB224B18600FCD0FAF0FC72B68E1
:1035C8003B6031460FA8FEF73FFB1E4B04F118077E
:1035D80018600FCF14AD0FC53B682B60314614A897
:1035E800FEF732FB184B04F12C0718600FCF19AD0A
:1035F8000FC53B682B60314619A8FEF725FB134A17
:1036080004F14003106093E8030006AB83E803006D
:1036180018463146FEF73CFB0D4B4834186094E8D9
:10362800030008AB83E8030018463146FEF730FB79
:10363800084B1860FEF702FBFEE700BFA039000840
:1036480008420020684200206442002060420020B6
:103658006C4200200442002070B50A4E86B0012456
:1036680000230825304601A9039301950294049488
:10367800FDF700FA304629462246FDF7F3FA06B070
:1036880070BD00BF00100240704700BF704700BF08
:103698002DE9F0411546012D04460F4684B02C480B
:1036A8004FF008014FF0000239D9FDF7DBFA0DF1B0
:1036B8000F064FF0FF3367F03F0700934FF0000EFF
:1036C800324624488DF80E700DF10E0101238DF855
:1036D8000FE0FEF75BF805F1FF381FFA88F808F1EC
:1036E8000108A04400254FF0FF370123009719482F
:1036F8008DF80D500DF10D0132468DF80F50FEF783
:1037080045F89DF80F3004F8013B4445EDD11048C9
:1037180008210122FDF7A6FA04B0BDE8F081FDF703
:10372800A1FA0DF10F064FF0FF3367F07F07009302
:103738004FF0000E324607488DF80E700DF10E015D
:1037480001238DF80FE0FEF721F8002DC3D1DEE745
:1037580000100240704200200268034B9A4200D0D9
:103768007047FDF7FBB800BF0000014008B5032013
:10377800FDF702F900210A466FF00B00FDF70EF97C
:1037880000210A466FF00A00FDF708F900210A46F1
:103798006FF00900FDF702F900210A466FF00400F6
:1037A800FDF7FCF800210A466FF00300FDF7F6F874
:1037B8006FF001000F210022FDF7F0F84FF0FF3005
:1037C8000F210022BDE80840FDF7E8B830B5124BDC
:1037D80002689A4287B001D007B030BD04234FF485
:1037E800107101220024019112250DEB03010B48F1
:1037F8000392059302950494FDF73CF9084B009455
:103808001A6C42F400121A641B6C03F40013009340
:10381800009B07B030BD00BF0054004000040240C8
:103828000038024070B5164B02689A4286B001D043
:1038380006B070BD002403F5FE3300941A6C1148DD
:1038480042F400421A641B6C039403F4004300938F
:1038580001A9102302260625009A019304940296D2
:103868000595FDF707F94FF4A45301A906480296F8
:103878000394049405950193FDF7FCF806B070BD18
:10388800003C0040000002400008024070B5104BA8
:1038980002689A4286B001D006B070BD00230D4A76
:1038A8000093516C0C4841F480515164526C03935D
:1038B80002F480520092E0250522022401A9009E0C
:1038C8000493019502940592FDF7D4F806B070BDF3
:1038D80000300140003802400000024070B5014647
:1038E80088B000221920FDF759F81920FDF78EF845
:1038F8000025164B02955A6C154C42F001025A6489
:103908005B6C03F0010301A9029303A8029BFDF776
:10391800B3FDFDF799FD0F4B0F4A25614000A3FB4E
:103928000061890C013940F2E73320466160A560E7
:103938002260E360FEF762F910B1012008B070BDA3
:103948002046FEF72FF808B070BD00BF00380240CF
:103958000C43002083DE1B4300000140FEF79CB9A6
:103968000148FEF735B800BF0C43002010B500230E
:10397800934203D0CC5CC4540133F9E710BD000076
:10398800F8B500BFF8BC08BC9E467047F8B500BF44
:08399800F8BC08BC9E46704714
:1039A000B03A00085D31000800000000000000008F
:1039B00080000000A43A00086931000800000000FF
:1039C0000000000080000000943A0008DD3100088B
:1039D000000000000000000080000000843A0008A1
:1039E00069320008000000000000000080000000B4
:1039F0001000000002000000200000000400000091
:103A000043000000000000208FC2F53D8FC2753DCD
:103A10008FC2753D8FC2753D8FC2753D8FC2753D9A
:103A20008FC2753D8FC2753DEC51383E8FC2753DDA
:103A30008FC2753D8FC2753D8FC2753D8FC2753D7A
:103A40008FC2753D8FC2753D8FC2753E8FC2753D69
:103A50008FC2753D8FC2753D8FC2753D8FC2753D5A
:103A60008FC2753D8FC2753D48E13A3F00000000AE
:103A700001020304010203040607080949444C45F6
:103A800000000000416363656C65726F5461736B85
:103A9000000000004465636973696F6E5461736B65
:103AA0000000000056697375616C5461736B00000F
:0C3AB00064656661756C745461736B0092
:083ABC00C1020008AD01000881
:043AC400890100086C
:103AC80000000000EC02002054030020BC0300208A
:103AD80000000000000000000000000000000000DE
:103AE80000000000000000000000000000000000CE
:103AF80000000000003A000800000000000000007C
:103B080000000000000000000000000000000000AD
:103B1800000000000000000000000000000000009D
:103B2800000000000000000000000000000000008D
:103B3800000000000000000000000000000000007D
:103B4800000000000000000000000000000000006D
:103B5800000000000000000000000000000000005D
:103B6800000000000000000001000000000000004C
:103B78000E33CDAB34126DE6ECDE05000B00000011
:103B8800000000000000000000000000000000002D
:103B9800000000000000000000000000000000001D
:103BA800000000000000000000000000000000000D
:103BB80000000000000000000000000000000000FD
:103EE8000000000000000000BD030008B90300083E
:103EF800E10300085D0400080D050008000000004B
:103F08000000000000000000000000003904000864
:103F180005040008000000008D040008BD05000825
:103F2800B9050008F1050008150600083D07000856
:103F38000000000000000000000000000000000079
:103F48000000000000000000000000004506000816
:083F58000024F400AAAAAAAAA1
:040000050800088D5A
:00000001FF
