:020000040800F2
:10000000000002204D0C00089D0C00089D0C00080B
:100010009D0C00089D0C00089D0C000800000000CD
:100020000000000000000000000000009D0C00081F
:100030009D0C0008000000009D0C0008893E00088F
:100040009D0C00089D0C00089D0C00089D0C0008EC
:100050009D0C00089D0C00089D0C00089D0C0008DC
:100060009D0C00089D0C00089D0C00089D0C0008CC
:100070009D0C00089D0C00089D0C00089D0C0008BC
:100080009D0C00089D0C00089D0C00089D0C0008AC
:100090009D0C00089D0C00089D0C00089D0C00089C
:1000A0009D0C00089D0C00089D0C00089D0C00088C
:1000B0009D0C00089D0C00089D0C00089D0C00087C
:1000C0009D0C00089D0C00089D0C00089D0C00086C
:1000D0009D0C00089D0C00089D0C00089D0C00085C
:1000E0009D0C00089D0C00089D0C00089D0C00084C
:1000F0009D0C00089D0C00089D0C00089D0C00083C
:100100009D0C00089D0C00089D0C00089D0C00082B
:100110009D0C00089D0C00089D0C00089D0C00081B
:100120009D0C00089D0C00089D0C00089D0C00080B
:100130009D0C00089D0C00089D0C00089D0C0008FB
:100140009D0C00089D0C00089D0C0008993E0008BD
:100150009D0C00089D0C00089D0C00089D0C0008DB
:100160009D0C00089D0C00089D0C00089D0C0008CB
:100170009D0C00089D0C00089D0C0008000000006C
:080180009D0C00089D0C000815
:1001880010B5054C237833B9044B13B10448AFF3C9
:1001980000800123237010BD4005002000000000EE
:1001A8000C57000808B5064B1BB106480649AFF3C3
:1001B80000800648036813B1054B03B1984708BD92
:1001C800000000000C5700084405002040050020EE
:1001D8000000000081F0004102E000BF83F000430E
:1001E80030B54FEA41044FEA430594EA050F08BFCA
:1001F80090EA020F1FBF54EA000C55EA020C7FEA8E
:10020800645C7FEA655C00F0E2804FEA5454D4EB0A
:100218005555B8BF6D420CDD2C4480EA020281EAD4
:10022800030382EA000083EA010180EA020281EA0C
:100238000303362D88BF30BD11F0004F4FEA01315E
:100248004FF4801C4CEA113102D0404261EB41016D
:1002580013F0004F4FEA03334CEA133302D05242F3
:1002680063EB430394EA050F00F0A780A4F10104AF
:10027800D5F1200E0DDB02FA0EFC22FA05F28018E9
:1002880041F1000103FA0EF2801843FA05F35941CF
:100298000EE0A5F120050EF1200E012A03FA0EFC4E
:1002A80028BF4CF0020C43FA05F3C01851EBE37178
:1002B80001F0004507D54FF0000EDCF1000C7EEB95
:1002C80000006EEB0101B1F5801F1BD3B1F5001FD3
:1002D8000CD349085FEA30004FEA3C0C04F10104F2
:1002E8004FEA445212F5800F80F09A80BCF1004F1B
:1002F80008BF5FEA500C50F1000041EB045141EA9D
:10030800050130BD5FEA4C0C404141EB010111F49D
:10031800801FA4F10104E9D191F0000F04BF014648
:100328000020B1FA81F308BF2033A3F10B03B3F126
:1003380020020CDA0C3208DD02F1140CC2F10C02B6
:1003480001FA0CF021FA02F10CE002F11402D8BF14
:10035800C2F1200C01FA02F120FA0CFCDCBF41EAE0
:100368000C019040E41AA2BF01EB0451294330BDAF
:100378006FEA04041F3C1CDA0C340EDC04F114048C
:10038800C4F1200220FA04F001FA02F340EA030063
:1003980021FA04F345EA030130BDC4F10C04C4F1A9
:1003A800200220FA02F001FA04F340EA0300294689
:1003B80030BD21FA04F0294630BD94F0000F83F4D3
:1003C800801306BF81F480110134013D4EE77FEAB6
:1003D800645C18BF7FEA655C29D094EA050F08BF02
:1003E80090EA020F05D054EA000C04BF19461046E3
:1003F80030BD91EA030F1EBF0021002030BD5FEA27
:10040800545C05D14000494128BF41F0004130BD4E
:1004180014F580043CBF01F5801130BD01F00045A2
:1004280045F0FE4141F470014FF0000030BD7FEA15
:10043800645C1ABF194610467FEA655C1CBF0B4610
:10044800024650EA013406BF52EA033591EA030F27
:1004580041F4002130BD00BF90F0000F04BF00211F
:10046800704730B54FF4806404F132044FF0000552
:100478004FF0000150E700BF90F0000F04BF0021CB
:10048800704730B54FF4806404F1320410F0004531
:1004980048BF40424FF000013EE700BF42004FEA2C
:1004A800E2014FEA31014FEA02701FBF12F07F43A9
:1004B80093F07F4F81F06051704792F0000F14BFA6
:1004C80093F07F4F704730B54FF4607401F00045EA
:1004D80021F0004120E700BF50EA010208BF704741
:1004E80030B54FF000050AE050EA010208BF704736
:1004F80030B511F0004502D5404261EB41014FF49F
:10050800806404F132045FEA915C3FF4DCAE4FF0A2
:1005180003025FEADC0C18BF03325FEADC0C18BF89
:10052800033202EBDC02C2F1200300FA03FC20FADA
:1005380002F001FA03FE40EA0E0021FA02F1144427
:10054800C1E600BF70B54FF0FF0C4CF4E06C1CEA3C
:1005580011541DBF1CEA135594EA0C0F95EA0C0FB1
:1005680000F0DEF82C4481EA030621EA4C5123EA24
:100578004C5350EA013518BF52EA033541F4801153
:1005880043F4801338D0A0FB02CE4FF00005E1FB06
:1005980002E506F00042E0FB03E54FF00006E1FB50
:1005A80003569CF0000F18BF4EF0010EA4F1FF0493
:1005B800B6F5007F64F5407404D25FEA4E0E6D41D3
:1005C80046EB060642EAC62141EA55514FEAC520E4
:1005D80040EA5E504FEACE2EB4F1FD0C88BFBCF560
:1005E800E06F1ED8BEF1004F08BF5FEA500E50F111
:1005F800000041EB045170BD06F0004646EA0101D7
:1006080040EA020081EA0301B4EB5C04C2BFD4EB08
:100618000C0541EA045170BD41F480114FF0000E01
:10062800013C00F3AB8014F1360FDEBF002001F06F
:10063800004170BDC4F10004203C35DA0C341BDCE9
:1006480004F11404C4F1200500FA05F320FA04F0BB
:1006580001FA05F240EA020001F0004221F00041EF
:1006680010EBD37021FA04F642EB06015EEA430E62
:1006780008BF20EAD37070BDC4F10C04C4F1200592
:1006880000FA04F320FA05F001FA04F240EA020045
:1006980001F0004110EBD37041F100015EEA430E16
:1006A80008BF20EAD37070BDC4F1200500FA05F236
:1006B8004EEA020E20FA04F301FA05F243EA0203B5
:1006C80021FA04F001F0004121FA04F220EA0200C4
:1006D80000EBD3705EEA430E08BF20EAD37070BD0A
:1006E80094F0000F0FD101F00046400041EB0101EA
:1006F80011F4801F08BF013CF7D041EA060195F0CC
:10070800000F18BF704703F00046520043EB030385
:1007180013F4801F08BF013DF7D043EA0603704772
:1007280094EA0C0F0CEA135518BF95EA0C0F0CD07D
:1007380050EA410618BF52EA4306D1D181EA0301C3
:1007480001F000414FF0000070BD50EA410606BFBD
:100758001046194652EA430619D094EA0C0F02D102
:1007680050EA013613D195EA0C0F05D152EA033647
:100778001CBF104619460AD181EA030101F0004165
:1007880041F0FE4141F470014FF0000070BD41F0AE
:10079800FE4141F4780170BD70B54FF0FF0C4CF488
:1007A800E06C1CEA11541DBF1CEA135594EA0C0FA7
:1007B80095EA0C0F00F0A7F8A4EB050481EA030EF4
:1007C80052EA03354FEA013100F088804FEA0333DB
:1007D8004FF0805545EA131343EA12634FEA0222A9
:1007E80045EA111545EA10654FEA00260EF000416A
:1007F8009D4208BF964244F1FD0404F5407402D2BC
:100808005B084FEA3202B61A65EB03055B084FEA4C
:1008180032024FF480104FF4002CB6EB020E75EB49
:10082800030E22BFB61A754640EA0C005B084FEA71
:100838003202B6EB020E75EB030E22BFB61A7546EE
:1008480040EA5C005B084FEA3202B6EB020E75EB39
:10085800030E22BFB61A754640EA9C005B084FEAB1
:100868003202B6EB020E75EB030E22BFB61A7546BE
:1008780040EADC0055EA060E18D04FEA051545EAAD
:1008880016754FEA06164FEAC30343EA52734FEA56
:10089800C2025FEA1C1CC0D111F4801F0BD141EACF
:1008A80000014FF000004FF0004CB6E711F4801F34
:1008B80004BF01430020B4F1FD0C88BFBCF5E06F14
:1008C8003FF6AFAEB5EB030C04BFB6EB020C5FEA24
:1008D800500C50F1000041EB045170BD0EF0004E79
:1008E8004EEA113114EB5C04C2BFD4EB0C0541EAAB
:1008F800045170BD41F480114FF0000E013C90E6A8
:1009080045EA060E8DE60CEA135594EA0C0F08BF6B
:1009180095EA0C0F3FF43BAF94EA0C0F0AD150EA6A
:1009280001347FF434AF95EA0C0F7FF425AF1046FD
:1009380019462CE795EA0C0F06D152EA03353FF425
:10094800FDAE1046194622E750EA410618BF52EAA2
:1009580043067FF4C5AE50EA41047FF40DAF52EA76
:1009680043057FF4EBAE12E74FF0FF3C06E000BF13
:100978004FF0010C02E000BF4FF0010C4DF804CD20
:100988004FEA410C7FEA6C5C4FEA430C18BF7FEAE0
:100998006C5C1BD001B050EA410C0CBF52EA430C0E
:1009A80091EA030F02BF90EA020F0020704710F18E
:1009B800000F91EA030F58BF994208BF90422CBF1D
:1009C800D8176FEAE37040F0010070474FEA410C16
:1009D8007FEA6C5C02D150EA013C07D14FEA430C34
:1009E8007FEA6C5CD6D152EA033CD3D05DF8040BA5
:1009F800704700BF8446104662468C4619466346D7
:100A080000E000BF01B5FFF7B7FF002848BF10F1AD
:100A1800000F01BD4DF808EDFFF7F4FF0CBF0120F2
:100A280000205DF808FB00BF4DF808EDFFF7EAFF6E
:100A380034BF012000205DF808FB00BF4DF808ED29
:100A4800FFF7E0FF94BF012000205DF808FB00BF1E
:100A58004DF808EDFFF7CEFF94BF012000205DF8A8
:100A680008FB00BF4DF808EDFFF7C4FF34BF0120B5
:100A780000205DF808FB00BF4FEA410212F50012A2
:100A880015D211D56FF47873B3EB625212D94FEACD
:100A9800C12343F0004343EA505311F0004F23FAB7
:100AA80002F018BF404270474FF00000704750EA0C
:100AB800013005D111F0004008BF6FF000407047C9
:100AC8004FF00000704700BF094B1A680AB9094A7D
:100AD8001A601B686A461844904205D9064B0C22D6
:100AE8001A604FF0FF307047014A1060184670478F
:100AF8005C050020400E00203C0E002070B50F4E13
:100B08000F4D761BB61007D0043D0024013455F86C
:100B1800043F9847A642F9D10A4E0B4D761B04F0C4
:100B2800F1FDB61008D0043D0024013455F8043F07
:100B38009847A642F9D170BD70BD00BF7059000832
:100B4800705900087859000870590008024B13B111
:100B5800024800F005B8704700000000750B000857
:100B6800014600200246034600F018B838B5094D82
:100B7800094C641BA41018BF05EB840505D0013C83
:100B880055F8043D9847002CF9D1BDE8384004F0E9
:100B9800BFBD00BF785900087C590008F0B5274C44
:100BA8002668D6F8484185B00746002C41D06568CC
:100BB8001F2D1EDD224818B94FF0FF3005B0F0BDDB
:100BC8004FF4C87003910292019304F0E3FC039977
:100BD800029A019B04460028EED0D6F848512560B9
:100BE800002060600546C6F84841C4F88801C4F88A
:100BF8008C013FB9AB1C00200135656044F8231017
:100C080005B0F0BD04EB85004FF0010CC0F888205A
:100C1800D4F888610CFA05F21643022FC4F88861EB
:100C2800C0F80831E6D1D4F88C311A43C4F88C21C5
:100C3800E0E706F5A674C6F84841B8E72C5700085F
:100C48009D550008DFF834D0002103E00C4B5B58B9
:100C5800435004310B480C4B42189A42F6D30B4AC6
:100C680002E0002342F8043B094B9A42F9D300F012
:100C780013F8FFF743FF02F005FF7047000002205A
:100C88007C59000800000020400500204005002095
:100C9800400E0020FEE7000010B4104A104BD2F8B6
:100CA8008810104C41F47001C2F8881019680020AF
:100CB80041F0010119609860196821F0847121F4EC
:100CC800803119605C601C684FF0006124F4802456
:100CD8001C60D86091605DF8044B704700ED00E03F
:100CE800003802401030002410B5084A084B12683A
:100CF800A3FB02130446980900F098F821464FF028
:100D0800FF30002200F04EF8002010BD2C04002017
:100D1800D34D621008B50B4B1A6842F400721A6082
:100D28001A6842F480621A601A6842F480721A6083
:100D3800032000F025F80020FFF7D6FF02F0E8FFB7
:100D4800002008BD003C0240024B1A6801321A60BC
:100D5800704700BF6C050020014B1868704700BF42
:100D68006C05002010B582B00190FFF7F5FF04462E
:100D7800FFF7F2FF019B001B9842F9D302B010BDA8
:100D8800074AD1684FF6FF030B4043F0BF6300F0FA
:100D9800070043F4003343EA0023D360704700BFE1
:100DA80000ED00E030B4194BDC68C4F30224C4F150
:100DB8000703251D042B28BF0423062D19D9033C3E
:100DC8000125A540013D2A40012505FA03F3013B11
:100DD800194001FA04F4002844EA02040CDB00F18B
:100DE800604000F561402401E4B280F8004330BC63
:100DF800704700221446E7E7054B00F00F00240176
:100E08000344E4B21C7630BC704700BF00ED00E03C
:100E1800FCEC00E000F01F0201214009024B01FA3E
:100E280002F243F82020704700E100E00138B0F1F9
:100E3800807F10B40DD2094B094C58600022F02075
:100E4800072184F823009A60196010465DF8044B66
:100E5800704701205DF8044B704700BF10E000E0C8
:100E680000ED00E0044B1A6804280CBF42F00402AD
:100E780022F004021A60704710E000E0704700BFDB
:100E880008B5FFF7FBFF08BD2DE9F00FDFF8E0C15B
:100E98006F4CDFF8E0A182B0002303E00133102B90
:100EA80000F0B78001220D689A4002EA05089045D3
:100EB800F4D14E6826F01002022A13D1DA0800EBAA
:100EC800820203F007060D69176AB6004FF00F0992
:100ED80009FA06F927EA090905FA06F649EA0605AC
:100EE80015624E685A000325D0F80090954006F028
:100EF8000306ED43964005EA090946EA0906066035
:100F08004E6826F01006013E012E13D88768CE6879
:100F180005EA070906FA02F749EA070686604E68F5
:100F2800D0F80490C6F300169E4029EA080949EA59
:100F380006064660C6688F68354007FA02F22A43FB
:100F4800C2604A68D200A9D5424D002601966A6C53
:100F580042F480426A646D6C23F0030202F180421D
:100F680005F4804502F59C32019503F00305DDF890
:100F78000490D2F808B0AD004FF00F0909FA05F94E
:100F880060452BEA090948D0504548D0324EB04256
:100F980049D0324FB8424AD0314EB0424BD0314F8F
:100FA800B8424CD0304EB0424DD0304EB0420CBF5B
:100FB8000726082606FA05F545EA090595604D68ED
:100FC80026686FEA0802EF0354BF02EA060548EAFA
:100FD800060525604D686668AD0354BF02EA06053C
:100FE80048EA060565604D68A668EF0254BF02EA44
:100FF800060548EA0605A5604D68E668AD0203F1F6
:10100800010354BF324048EA0602102BE2607FF425
:1010180049AF02B0BDE8F00F70473546CCE701266E
:1010280006FA05F5C8E7022606FA05F5C4E7032619
:1010380006FA05F5C0E7042606FA05F5BCE7052615
:1010480006FA05F5B8E7062606FA05F5B4E700BF7F
:10105800003C01400038024000080240000C0240F9
:10106800001002400014024000180240001C024018
:101078000000024000040240036919420CBF00202E
:101088000120704702B909048161704738B50446E8
:10109800002871D090F83D3003F0FF02002B56D0A5
:1010A8002368364D242284F83D201A6822F0010274
:1010B8001A6001F089F8324A2368A2FB0012920CE8
:1010C8005A6094E80A00AB4238D801320A62636871
:1010D8002A4922688B4226D85B00B0FBF3F0C0F3A4
:1010E8000B03032B98BF0420D061216AE2692368AF
:1010F8000A431A60E168226923680A439A60A16971
:10110800626923680A43DA6022681068002340F0A5
:10111800010020211060236484F83D10236384F8C3
:101128003E30184638BDA168B1B903EB4303B0FBA4
:10113800F3F0C0F30B03E3B90120D5E74FF496753C
:10114800104B05FB02F2A3FB02529209BDE780F89F
:101158003C2002F00DFEA3E703EB830303EB8303BC
:10116800B0FBF3F0C0F30B03002BE5D040F4404094
:10117800BAE740F40040B7E7012038BDA086010077
:1011880083DE1B43D34D6210C369012B19D00E4B6C
:101198005A6812F4800F5A6814BF0C480C480A4B5E
:1011A80002F03F02B0FBF2F2D3F88400D3F88430A7
:1011B800C0F3881000FB02F0C3F30273B0FBF3F036
:1011C80070470448704700BF0038024000127A0098
:1011D8000024F4000080BB00F8B50446002800F0A5
:1011E800958090F83D3003F0FF02002B4CD002228E
:1011F800216884F83D20CB6923F47B6323F00F0337
:10120800CB6123681A6262692368022ADF6975D094
:10121800E3682046002B14BF02260126FFF7B4FF1F
:1012280025696369B5F5007F16BF7601000AB0FB32
:10123800F6F000EB80004100B1FBF3F1344B0531CF
:10124800A3FB0101C9084A08931EFD2B01F0010008
:1012580023688CBF022242EA00222A431A62666887
:10126800A568E068A26923683E4346F400663543F2
:1012780028430243DA61236A012B0AD000200123A4
:10128800206484F83D30F8BD80F83C2002F09CFDD5
:10129800ADE7204A2568204B95420CBF1D464FF00C
:1012A80040250226E86920F47B6020F00F00E86101
:1012B800206890420CBF18464FF04020066225680F
:1012C8006068954218BF4FF0402330F40070DB6926
:1012D80017D14FF48071A068E2680E4F0E4E184384
:1012E80040F400600243A069BD420CBF35464FF090
:1012F800402542EA00031943E961BFE72569002157
:10130800ABE7B0F5807F08BF0021E4E70120F8BD16
:10131800CDCCCCCC0038004000340040F0B50446B9
:101328008BB0002865D0032380F88133064602F08D
:10133800CBFD206801F0BEF856F810EB37460FCF0A
:101348006D460FC50FCF0FC597E8030085E803006A
:10135800251D95E80E00704601F06CF80021206804
:1013680001F0B0F8002211462346012083F8382006
:10137800DA8701320F2A83F8390083F83B101964A1
:101388005964D96403F11C03F0D1002211462346A5
:1013980083F8DC21DA8783F8DD1183F8DF11C3F8DD
:1013A800E411C3F8E811C3F8F011206802F140070E
:1013B80000EB870001320F2A03F11C034160E7D1DB
:1013C8000FCE6F46D4F800E00FC70FCE0FC796E8D0
:1013D800030087E80300704695E80E0001F08CF8DA
:1013E800012384F88133206801F072FC00200BB0DF
:1013F800F0BD01200BB0F0BD10B590F88033012B83
:10140800044601D1022010BD012380F88033006812
:1014180001F052FC206801F045F8002084F88003B0
:1014280010BD00BF2DE9F04F066887B0044630466E
:1014380001F08CFC10B107B0BDE8F08F206801F016
:1014480053FC0028F7D0206801F04EFC810704D532
:1014580023685A6902F002025A61206801F044FCCC
:10146800020300F19D810027206801F03DFC400344
:1014780000F1D280206801F037FC0028C0F2FB811F
:10148800206801F031FC030509D5D6F80838DD07D6
:1014980000F1CC8123685A6902F400625A6120681D
:1014A80001F022FCC00477D4206801F01DFC8104FF
:1014B80052D4206801F018FCC20619D523689A692D
:1014C80022F010029A61356A05F00F03C3EBC303DB
:1014D800C5F3434204EB8303022A03F5EE7800F0D8
:1014E800B281062A2AD023689A6942F010029A61CA
:1014F800206801F0F9FB030700F14981206801F039
:10150800F3FBC60200F13981206801F0EDFB85028A
:1015180000F12981206801F0E7FB400000F11A8101
:10152800206801F0E1FB410785D523685D686A07FB
:1015380000F177815A6815435D607CE7304604F511
:101548006171082201F056FBD8F81830C5F30A1566
:101558002B44C8F81830C6E7206801F0FBFB236865
:10156800DA6822F47052DA60206801F091F80028F5
:1015780040F0BD814FF400722368E0606261DA6870
:1015880042F41052DA60204602F0F8FC23685A69E7
:1015980002F400525A618CE706F500656B6823F087
:1015A80001036B600021206801F060F8636863B193
:1015B80006F510630022FF219960C3F808126068DD
:1015C8000132904203F12003F6D84FF0FF33AB61AC
:1015D800EB6943F00113EB61236B002B00F02A81C8
:1015E800D5F8843043F00B03C5F884306B6C43F0B6
:1015F8000B036B64D6F8003823F4FE63C6F8003892
:1016080004F561722068217C01F0C0FB23685A69E7
:1016180002F480525A6147E7206801F071FB834663
:10162800002800F08081254606F5106A00270396F9
:1016380009E05FEA5B0B07F1010705F11C050AF1F8
:10164800200A00F0E5801BF0010FF2D05FFA87F85E
:101658004146206801F066FBC107064618D5039984
:1016680001F50063012101FA07F2596B21EA020230
:101678005A630122CAF808202369934200F01781AF
:101688004146204602F06CFC2169012900F00281E4
:10169800320744BF0823CAF80830F30644BF1023B2
:1016A800CAF80830700644BF4023CAF80830B107AA
:1016B80044BF0221CAF808103206BAD5D4F80090FF
:1016C800E96CD5F850C02B6C09F5106202EB471293
:1016D8000492049ECCEB0102B0699A4234BF1646CC
:1016E8001E4680B206F1030EB0EB9E0F25D9614568
:1016F80023D911B3696C05971846049E04E0EA6C77
:101708009A4218D9286CD21A824234BF1746074623
:10171800237C00934246BBB2484601F057FA696CF5
:101728002B6D39443B4469642B65B269F81C92B24D
:10173800B2EB900FE3D83E46059F002E7FF479AFB9
:10174800D9F83428012101FA07F322EA0303C9F87A
:1017580034386EE7204602F045FC23685A6902F0E7
:1017680080425A61DCE6F9B2204602F033FC236875
:101778005A6902F400125A61CCE62046F9B202F026
:101788002DFC23685A6902F480125A61BCE620468F
:1017980002F0F0FB23685A6902F008025A61ADE6CC
:1017A800206801F0A5FA054600283FF45CAE06F56E
:1017B8003068A346002708E06D0807F1010708F123
:1017C80020080BF11C0B3FF44FAEEB07F4D55FFA82
:1017D80087FA5146206801F09BFA10F0010F814604
:1017E8000CD00121C8F8081023698B4270D05146EB
:1017F800204602F0ABFB216901295DD019F0080FE2
:1018080008D119F0100F1CBF1023C8F80830D3E70F
:10181800039E2FE6204602F093FB0822C8F8082012
:10182800EFE7204602F0E2FB236883E6204602F059
:10183800B5FB2FE66B6943F00B036B612B6943F033
:101848000B032B61D6E647F6F0732B40002B3FF4D1
:101858004AAE1D092A463046D8F80C1001F0CAF9DC
:10186800D8F80C20D8F818302A442B44C8F80C2093
:10187800C8F8183037E6D6F8042822F00102C6F86E
:101888000428204602F0A2FB23685A6902F00042AD
:101898005A61F5E5002F7FF4FBAEE36C002B7FF473
:1018A800F7AE206804F5617201F070FAF0E66A6C30
:1018B8002B6C13446B64E3E6002F9FD1D4F8F0310E
:1018C800002B9BD1206804F5617201F05FFA95E75F
:1018D800D8F81010DBF8E431DBF8E821C1F3120185
:1018E800591A1344CBF8F411CBF8E8317FE70322F7
:1018F8004023E260636100F061FC364B364A0344E2
:10190800934205D82368DA6842F47052DA603AE6FE
:10191800324B334A0344934207D82368DA6842F4C7
:101928006052DA602FE60746A4E5A0F574032D4A55
:10193800A3F51053934205D82368DA6842F450524D
:10194800DA6020E6A0F18373274AA3F5E7439342C0
:1019580005D82368DA6842F44052DA6013E6234B6C
:10196800234A0344934205D82368DA6842F4305284
:10197800DA6008E61F4B204A0344934205D82368DF
:10198800DA6842F42052DA60FDE51C4B1C4A034435
:10199800934205D82368DA6842F41052DA60F2E517
:1019A800A0F1B773174AA3F55853934205D8236893
:1019B800DA6842F40052DA60E5E5134B134A03444F
:1019C80093422368DA6894BF42F4E05242F4C0526A
:1019D800DA60D8E5405327FFFF340C00401E1BFF98
:1019E8003F420F007F4F12001FD6130060B6E5FE7E
:1019F8005FE3160000D3CEFE3F771B00C05BB3FE4B
:101A0800BF9121001F753800E05459FEDF9C41004A
:101A180010B590F88033012B044601D1022010BD87
:101A2800012380F88033006801F036F9002084F83B
:101A3800800310BD70B50546080620D4C1EBC1006F
:101A480005EB800000F5EE74002680F8DC11A2603A
:101A5800E3706670022B04BF0023237195F880336E
:101A6800012B01D1022070BD0123214685F8803366
:101A7800286800F02BFE002085F8800370BD01F077
:101A88007F01C1EBC100800038302C180126295491
:101A9800A260E370E1806670DCE700BFCAB213069B
:101AA80010B5044619D4C1EBC10300EB830303F559
:101AB800EE73D2095A70197094F88023012A01D163
:101AC800022010BD0122194684F88023206800F006
:101AD80045FE002084F8800310BD01F07F01C1EBB2
:101AE800C10300EB83033833E3E700BF70B501F0AF
:101AF8007F050446C5EBC50004EB800000F5EE71D8
:101B08000026CA604B618E614E7080F8DC512369F3
:101B1800012B08BF0A6194F88033012B11D00123EF
:101B280084F880332068227C2DB100F059FE002013
:101B380084F8800370BD00F091FF002084F88003D2
:101B480070BD022070BD00BFF8B501F07F05C5EB80
:101B5800C5018900044601F1380021180126002733
:101B6800CA604B618F614E7025542369B34208BF28
:101B78000A6194F88033012B11D0012384F8803353
:101B88002068227C2DB100F02BFE002084F8800311
:101B9800F8BD00F063FF002084F88003F8BD022040
:101BA800F8BD00BFCAB238B5130604461CD4C1EB51
:101BB800C10300EB830303F5EE730D46D20901213F
:101BC8005A701D70997094F880238A4201D10220BE
:101BD80038BD84F880132068194601F01FF85DB1FC
:101BE800002084F8800338BD01F07F05C5EBC503EC
:101BF80000EB83033833E1E72068217C04F5617248
:101C080001F0C4F8ECE700BFCAB238B513060446C1
:101C18001BD4C1EBC10300EB830303F5EE73D209B8
:101C280000255A7019709D7094F88023012A01D1FB
:101C3800022038BD0122194684F88023206801F06B
:101C48000DF884F88053284638BD01F07F01C1EBB8
:101C5800C10300EB83033833E1E700BF30B4056804
:101C68006B6AC9B1A86A013903EB10400BD0002395
:101C780003F1400405EB840401336468DBB28B4252
:101C880000EB1440F4D3403105EB810540EA0240F3
:101C9800686030BC0020704743EA0243AB62002012
:101CA80030BC70470368002059627047F0B503687C
:101CB800DD0783B0044622D5914A916801F00C01F2
:101CC800042900F0EA80916801F00C01082900F06D
:101CD800E0808C4B22791A706368002B00F0CB806F
:101CE800FFF73AF8864D064605E0FFF735F8801B02
:101CF800642800F29F802B689A03F6D523689F0713
:101D08002DD57F4B9A6812F00C0F00F09A809A68D4
:101D180002F00C02082A00F09080E368002B00F023
:101D2800D880794B764D01221A60FFF715F80646E0
:101D380004E0FFF711F8801B02287BD82B68704A53
:101D48009807F6D51168F82090FAA0F02369B0FA40
:101D580080F021F0F80183400B43136023681A07D1
:101D680020D4590734D4A369CBB1654A916801F0EE
:101D78000C0108296CD0022B644B4FF0000119604C
:101D880000F0B8801446FEF7E7FF054604E0FEF7CA
:101D9800E3FF401B02284DD823689B01F7D400209D
:101DA80003B0F0BD6369002B55D0594B544D012247
:101DB8001A60FEF7D1FF064604E0FEF7CDFF801B50
:101DC800022837D86B6F9F07F7D523685907CAD5FC
:101DD8004B4B504D002201921A6C42F080521A640B
:101DE8001B6C03F080530193019B2B6843F48073B1
:101DF8002B60FEF7B1FF064604E0FEF7ADFF801B3F
:101E0800022817D82B68DA05F7D5434B227A1A70BF
:101E1800A368002B00F0C480FEF79EFF384D0746EC
:101E280041F288362B6F9B079DD4FEF795FFC01BA8
:101E3800B042F7D9032003B0F0BD5B685E023FF5FE
:101E48006CAF2F4B1B689D0731D5E368012B2ED053
:101E5800012003B0F0BD2E4A294D1360FEF77CFF28
:101E6800064604E0FEF778FF801B0228E2D86B6F75
:101E78009807F7D4A9E7FEF76FFF214D064604E05F
:101E8800FEF76AFF801B6428D4D82B689B03F7D41D
:101E980034E7526850027FF51CAF194A1268910363
:101EA8007FF52DAF6268002A7FF429AFD0E7144B85
:101EB800F820196890FAA0F02269B0FA80F021F0B1
:101EC800F80182400A431A6023681A077FF549AF70
:101ED80068E70D4A0A4D1360FEF73EFF064604E028
:101EE800FEF73AFF801B0228A4D82B689907F7D47D
:101EF800236834E71546FEF72FFF064613E000BFB8
:101F08000038024002380240000047426000474261
:101F1800800E47420070004070380240FEF71CFFF8
:101F2800801B022886D82B68254A9901F6D447F6E3
:101F3800C07595FAA5F54FF44030B5FA85F590FAD5
:101F4800A0F04FF07061B0FA80F091FAA1F1A66AA2
:101F5800D4F824C0D4F820E0E769E46A194B76087D
:101F68000CFA05F54EEA0707013E3D43B1FA81F147
:101F780006FA00F004FA01F12843084301215060F1
:101F880019601446FEF7E8FE054605E0FEF7E4FE94
:101F9800401B02283FF64EAF23689A01F6D5FEE6AD
:101FA800FEF7DAFE064D074641F288362B6F980792
:101FB8007FF5D9AEFEF7D0FEC01BB042F6D939E79F
:101FC800003802406000474210B41D4B9A6802F086
:101FD8000C02042A2FD0082A03D01A485DF8044BB3
:101FE800704758685A685C6812F4800F00F03F0127
:101FF80047F6C07292FAA2F247F6C07314BF1248AD
:102008001048B2FA82F22340D340B0FBF1F000FB53
:1020180003F00B4B4FF440325B6892FAA2F2B2FA2B
:1020280082F203F44033D34001335B00B0FBF3F09A
:102038005DF8044B704704485DF8044B704700BFD7
:10204800003802400024F40000127A002DE9F04123
:10205800564B1A6802F00F028A420C46054609D20E
:10206800CAB21A701B6803F00F038B4202D001201A
:10207800BDE8F0812B689A0707D54D4BAA68996887
:1020880021F0F0010A439A602B68DF0726D56B68B8
:10209800012B00F085809A1E012A454A126879D9D9
:1020A8009107E4D5424FBA6822F003021343BB609C
:1020B800FEF752FE6B68012B064641F288384DD078
:1020C800022B56D0032B05D15EE0FEF745FE801BA0
:1020D800404562D8BB6813F00C0FF6D1334B1A6831
:1020E80002F00F02944206D2E2B21A701B6803F0A3
:1020F8000F03A342BBD12B685A0707D52C4BEA68BC
:10210800996821F4E0510A439A602B681B0707D5A8
:10211800274B29699A6822F4604242EAC1029A6010
:10212800FFF752FF224A0146F023926893FAA3F37D
:10213800B3FA83F302F0F002DA401E481E4B825CC9
:10214800002021FA02F21A60FEF7CEFD0020BDE859
:10215800F081FEF701FE801B40451ED8BB6803F0E6
:102168000C03042BF5D1B9E7FEF7F6FD801B4045BB
:1021780013D8BB6803F00C03082BF5D1AEE7FEF7C4
:10218800EBFD801B404508D8BB6803F00C030C2B03
:10219800F5D1A3E7900185D469E70320BDE8F08174
:1021A800034A126896033FF57DAF60E7003C0240A2
:1021B80000380240305700082C040020014B1868F2
:1021C800704700BF2C040020084B4FF4E0529B6876
:1021D80092FAA2F2B2FA82F203F4E053D34004492D
:1021E800044ACB5C1068D840704700BF00380240F2
:1021F800305700082C040020F0B50368DA0783B0D4
:1022080006464FD413F0020001D103B0F0BD4D4B88
:102218004D4C002201921A6C42F080521A641B6CD9
:1022280003F080530193019B236843F48073236078
:10223800FEF792FD054604E0FEF78EFD401B0228DE
:102248002DD82368D905F7D53E4BF1681A6F12F4DB
:10225800407201F4407010D090420ED0196F3B4A82
:1022680021F44071012400201460106019671A6F6E
:10227800D2074DD4F16801F44070324BB0F5407F7D
:102288009A6855D022F4F8129A602E4BF268196FAA
:10229800C2F30B020A4300201A6703B0F0BD032003
:1022A80003B0F0BD2A4B274C00221A60FEF754FDFC
:1022B800054604E0FEF750FD401B0228EFD82368CE
:1022C800204A1F01F6D447F6C07494FAA4F44FF0DC
:1022D800E045B4FA84F495FAA5F5B16873681C482A
:1022E800B5FA85F5A940A3400B430124C2F8843010
:1022F80004601446FEF730FD054604E0FEF72CFDA9
:10230800401B0228CBD823681801F7D5336879E732
:102318001C46FEF721FD41F28835074604E0FEF72A
:102328001BFDC01BA842BAD8226F9307F7D5A1E7B7
:1023380021F0704121F4407122F4F81211439960A0
:10234800A3E700BF0038024000700040400E47423B
:10235800680047422DE9F041804600284DD090F8AA
:102368005130002203F0FF018262002B40D0D8F8E0
:102378000030022288F851201A6822F040021A60C0
:10238800D8F80800D8F80470D8F80C60D8F81050BD
:10239800D8F81440D8F81C10D8F82020D8F82830DD
:1023A80007433E4335432C4321430A431343D8F89C
:1023B800182002F400700343D8F800000360B8F84E
:1023C8001A10D8F82420D8F8003001F004010A4384
:1023D8005A60D8F80020D069002320F40060012159
:1023E800D061C8F8543088F851101846BDE8F0811B
:1023F80080F8501001F01CFDB9E70120BDE8F0811C
:102408000B4B01E0013B10D00269002AFADA03699C
:10241800074A43F00103036101E0013A05D003696B
:1024280013F00103F9D1184670470320704700BF25
:10243800400D030084B038B50A9D05AC012D84E831
:102448000E00044614D0C36843F04003C360FFF78E
:10245800D7FF4FF48033A363089B012B03D1A368F4
:1024680043F02003A360BDE83840002004B0704763
:10247800836B119A23F480338363C36823F4840342
:1024880023F04003C360C368012A23F44013C360E8
:1024980003D02046FFF7B4FFDEE7C36843F4801398
:1024A800C360F6E7034600209A6842F001029A608A
:1024B800704700BF034600209A6822F001029A6024
:1024C800704700BF08B5C368012923F0C043C36043
:1024D80009D019B9C36843F08043C3603220FEF7BE
:1024E80041FC002008BDC36843F00053C36032209C
:1024F800FEF738FC002008BD84B02DE9F00708ACD1
:1025080084E80E00836BDDF848A0DDF82CC043F4A6
:1025180000238363BAF1000F03D1836B43F40013E4
:1025280083630023C0F8003E0D9BD0F80028C0F854
:102538000028012B00F5006400F08480D0F80038F2
:1025480043F00303C0F800384FF484630361444B3D
:1025580001E0013B02D002699506FAD41023036119
:102568003F4B01E0013B02D00269D206FAD40022B7
:102578004FF0FF3322616261A361E26141B3154606
:1025880000F510634FF09049FF261F680132002FB5
:10259800B4BFC3F800901D608A421D619E6003F1BC
:1025A8002003F2D10022164600F530634FF090491F
:1025B8004FF0FF081F680132002FB4BFC3F8009026
:1025C8001E608A421E61C3F8088003F12003F1D11E
:1025D8002369BCF1010F23F48073236123D0002207
:1025E8006FF0804382614361BCF1000F03D18369BE
:1025F80043F01003836181691A4B0E9A0B43836180
:102608001AB1836943F008038361BAF1010F05D158
:10261800836943F0804343F004038361BDE8F00716
:10262800002004B07047104B2363236B43F48033BE
:1026380043F00303236300226FF08043216B826120
:102648004361D8E70A9B23B9D0F80038C0F80038AE
:102658007AE7D0F8003843F00103C0F8003873E790
:10266800400D030000383C8000018000890141F0E2
:1026780020010161054A01E0013A05D0036913F020
:102688002003F9D11846704703207047400D030016
:10269800D0F8083813F0060300F5006013D08368FB
:1026A80003F00603022B0CD0836803F00603062B05
:1026B80007D0836803F00603042B0CBF0220002018
:1026C8007047032070471846704700BF70B44B78B6
:1026D800012B21D00A78D0F81C484FF4803505FA30
:1026E80002F22243C0F81C280A784FF4306303EB47
:1026F80042131A5812040CD41A588C68C97842F03C
:10270800805242F40042C4F30A04224342EA81425E
:102718001A50002070BC70470C78A340D0F81C48B1
:102728009BB22343C0F81C380A784FF4106303EBBC
:1027380042131C582404ECD41E588D68CC7846F0FB
:102748008051C5F30A0541F40041294341EA844117
:1027580041EA82521A50002070BC70474B78012B16
:1027680030B41DD00C78D0F83C58012202FA04F499
:1027780025EA0444C0F83C480D78D0F81C48AA4023
:1027880024EA0242C0F81C280A784FF4306303EBAD
:1027980042131A5822F400421A50002030BC7047E5
:1027A8000C78D0F83C5803FA04F4A4B225EA0404DF
:1027B800C0F83C480D78D0F81C48AB409BB224EADE
:1027C8000303C0F81C380A784FF4106303EB421374
:1027D8001A5822F400421A50002030BC704700BF3B
:1027E8002DE9F0014B78012B79D00E7820244FF495
:1027F800306314FB063606443569ED0CED0435618B
:102808000E7814FB06360644356925F0FF5525F485
:10281800C01535614D69002D33D08F6891F800C01F
:102828008D4E3D4414FB0C3C013DB5FBF7F500EB28
:102838000C07ADB2D7F810C04FEAC54808EA06063B
:1028480046EA0C063E610F788E6814FB0733034492
:1028580006FB05F51C69C5F312052543012A1D6110
:1028680023D0CB78012B29D00A784FF4306303EBBF
:102878004213C25842F00442C2500020BDE8F001A1
:1028880070470D788E6814FB05350544C6F31206AB
:102898002F693E432E610D7814FB05330344012A4A
:1028A8001C6944F400241C61DBD10A78CB6800EB76
:1028B8004212C2F8143BCB78012BD5D1D0F8083896
:1028C8000A7813F4807F4FF4306303EB4213C25845
:1028D8000CBF42F0005242F08052C250C4E74B692C
:1028E800002B6BD00F785C4D20244FF4106314FB41
:1028F800073707443E69F60CF6043E610F7814FB6F
:10290800073707443E6926F0FF5626F4C0163E6195
:102918008F680E78D1F814C014FB0636BC44064400
:102928000CF1FF3CBCFBF7F74FEAC74C37690CEAE0
:1029380005053D4335610D784E6914FB05350544A1
:10294800C6F312062F693E432E61CD78012D72D051
:10295800012A5FD0CB78012B4ED04B695BB10C7844
:10296800D0F83458012606FA04F42C43C0F8344849
:10297800CB78012B40D00C784FF4106303EB441351
:10298800C45844F00444C450CB78012B7FF475AF8D
:10299800CB680D784C69002A7FF46FAFA4B203347A
:1029A800A4083FF46AAF00EB053000F5805001320F
:1029B80053F8041B0160A242F9D15EE70E784FF488
:1029C8001063202414FB06360644356925F0FF55AC
:1029D80025F4C01535610D7814FB053505442E69BD
:1029E80046F400262E610D7814FB0534044423694F
:1029F800DB0CDB042361ABE7D0F80838DB0510D427
:102A08000C784FF4106303EB4413C45844F000549B
:102A1800C450B0E70C780B6900EB4414C4F81439BF
:102A2800A6E70C784FF4106303EB4413C45844F042
:102A38008054C4509FE70D7814FB053505442E6972
:102A480026F0C0462E610D7814FB053303441C693B
:102A580044F000541C617BE70000F81F4B78012B01
:102A6800F0B43DD00E7820244FF4306514FB0656A0
:102A780006443369DB0CDB0433610B7814FB035425
:102A88000444236923F0FF5323F4C01323614B69E3
:102A98001BBB0D7820244FF4306314FB0535054427
:102AA800012A2E6946F400262E610D788E6814FBE3
:102AB80005350544C6F312062F6946EA07062E6156
:102AC80059D00A784FF4306303EB4213C25842F0EE
:102AD8000442C2500020F0BC70478B684B61D8E7B5
:102AE8004B690E782024002B4CD04FF4106514FB52
:102AF800065606443369DB0CDB0433610B7814FBA0
:102B080003540444236923F0FF5323F4C0132361BF
:102B18008B684C690D789C4288BF4B614FF41064F8
:102B2800202313FB054505442E6946F400262E6133
:102B38000E784D6913FB06430344C5F312051C695F
:102B480025431D61012A39D04B6943B10A78D0F871
:102B58003448012505FA02F22243C0F834280A78DD
:102B68004FF4106303EB4213C25842F00442C250C0
:102B78000020F0BC70470D78CA6814FB0533034485
:102B88005A619EE74FF4106314FB06360644356914
:102B980025F0FF5525F4C01535610D7814FB053572
:102BA80005442E6946F400262E610D7814FB053481
:102BB80004442369DB0CDB042361C3E70A780B694F
:102BC80000EB4212C2F81439C9E700BF30B49DF8CF
:102BD800084064B903339B0809D000F5805000EB26
:102BE8000232013451F8045B15609C42F9D100208F
:102BF80030BC7047033270B495080BD000F580568E
:102C08000A4600230133346842F8044BAB42F9D139
:102C180001EB8301084670BC704700BF4B7870B465
:102C2800012B0B780CBF4FF410644FF4306420254F
:102C380015FB03431A181E58002E07DB1A5822F0FA
:102C480080421A500A7815FB02420244136843F482
:102C580000131360002070BC704700BF4B7830B47D
:102C6800012B0B780CBF4FF410624FF43062202414
:102C780014FB03231D5825F400151D50CB78023B87
:102C8800012B06D80B7814FB0322135843F080530A
:102C98001350002030BC7047D0F8002822F4FE62A0
:102CA800C0F80028D0F80028090101F4FE63134396
:102CB800C0F800380020704708B500F500635A686E
:102CC80022F0020203205A60FEF74CF8002008BDEB
:102CD80008B500F500635A6842F0020203205A6002
:102CE800FEF740F8002008BD436980691840704726
:102CF800D0F8183800F50060C0691840000C70471B
:102D0800D0F81828D0F81C3802EA030080B27047BF
:102D180000F5306303EB411100F500608B684069F2
:102D28001840704710B4D0F81028D0F8344800EB99
:102D3800411000F5106324FA01F0C001C0B29B688D
:102D48005DF8044B10431840704700BF406900F01D
:102D580001007047D0F8002922F4FF6222F0070230
:102D680000F50063C0F800299A6802F00602042AF8
:102D780005D1D0F8002942F00302C0F800295A68AA
:102D880042F480725A600020704700BF10B40024DB
:102D9800C0F8104BD0F8104B44F40024C0F8104B86
:102DA800D0F8104B44F01804C0F8104BD0F8104B72
:102DB800012944F0C044C0F8104B05D14FF08021E0
:102DC800C0F8142BC0F8001B00205DF8044B7047B6
:102DD8002223038000487047E8040020D0F8183206
:102DE80000201873704700BF0A230380004870470B
:102DF800DC04002038B50C78D0F8182214F06004F0
:102E080003460FD0202C02D00024204638BD487835
:102E18000238092833D8DFE800F02B243232323266
:102E280032321F1B4D780A2D2ED00B2D0DD0062DBA
:102E3800EBD14A88120A222A32D0212A2AD02146E6
:102E48002246184600F0EAFBDFE78B789360DCE760
:102E58008B7813600024D8E74B881B0A5360002442
:102E6800D3E711461846012200F0D8FB0024CCE72E
:102E7800111D1846012200F0D1FB0024C5E71846B1
:102E880000F09AFB0224C0E702F10801012200F0D9
:102E9800C5FBBAE7CA880549092A28BF0922D0E72D
:102EA800CA880349652A28BF6522CAE7D0040020DA
:102EB8006804002010B50446812101F0E1F8D4F837
:102EC800180220B102F06EFB0023C4F8183200206B
:102ED80010BD00BF10B5812103220423044601F070
:102EE800C5F8102002F056FBC4F8180218B10023E8
:102EF8000373184610BD012010BD00BF38B590F807
:102F0800FC41D0F81852032C134601D0002038BDDC
:102F18002A7B002AFAD101240A462C73812101F068
:102F2800E3F8002038BD00BF037C002B14BF0A2043
:102F38000820704708B580B1D0F8143213B10023C7
:102F4800C0F8143209B1C0F810120123027080F8D9
:102F5800FC3101F04FF8002008BD022008BD00BF79
:102F680019B1C0F81412002070470220704700BF42
:102F780008B501F073F8002008BD00BF08B5D0F807
:102F8800143213B11B68984708B1022008BD08BD68
:102F980008B5D0F814325B689847002008BD00BF18
:102FA80038B5044600F50275284600F0F1FA94F8A1
:102FB8000812B4F80E32C4F8F831012201F01F03E8
:102FC8009342C4F8F42115D00ED3022B06D0204624
:102FD80001F0800101F05CF8002038BD2046294648
:102FE80000F06EFA002038BD2046294600F0EEF8C1
:102FF800002038BD2046294600F044FA002038BD9C
:1030080010B51346044629B9D0F8F421032A0CD088
:10301800002010BDD0F814329B69002BF8D090F82E
:10302800FC21032AF4D19847F2E7D0F80C11D0F824
:10303800102191420CD8D0F814321B691BB190F8BA
:10304800FC21032A0FD0204600F006FB002010BD0B
:10305800891A914238BF0A4692B2C0F80C11194633
:1030680000F0F2FAD4E79847EDE700BF70B51346D1
:1030780004460D4649B9D0F8F421022A15D094F82F
:103088000032012B0CD0002070BDD0F814325B69DF
:10309800002BF8D090F8FC21032AF4D19847F2E7E6
:1030A800002384F80032002070BDC269066AB2426B
:1030B80023D88369B3FBF6F506FB15358DB99E4217
:1030C8000FD8D0F8F82193420BD22A4600F0B4FA70
:1030D8002946C4F8F8512A462B46204601F00CF838
:1030E800CDE7D4F81432DB681BB194F8FC21032A2D
:1030F80010D0204600F0BCFAC1E7921B1946C26105
:1031080092B200F099FA204629462A462B4600F04A
:10311800F3FFB4E720469847EBE700BF38B5002136
:10312800044640231D460A4600F0A0FF2B46002215
:10313800C4F810512046802100F098FFD4F81832C6
:103148002562012284F8FC212BB1D4F814322179AC
:103158005B6820469847002038BD00BF01740020F6
:10316800704700BF90F8FC2180F8FD21042380F807
:10317800FC310020704700BF0346002093F8FD2172
:1031880083F8FC21704700BF08B590F8FC21032A9A
:1031980001D0002008BDD0F81432DB69002BF8D02C
:1031A8009847002008BD00BF0020704700207047E6
:1031B8000020704708B50121D0F8142280F8FC11CE
:1031C800526801799047002008BD00BF30B54B78A0
:1031D80083B00D460446092B0CD8DFE803F0364AC5
:1031E8000B5B0B05690B7F16AB881BB9EB88002BB3
:1031F80000F081808021204600F04AFF204600210F
:1032080000F046FF002003B030BDA9789C4D01298D
:103218002970EFD890F8FC31022B00F08A80032B3C
:10322800E8D1002900F021814168012909D0C9B2FB
:10323800FFF7AEFE297861602046FFF79FFE02285F
:10324800D8D0204600F008FADCE790F8FC310122DB
:10325800023B93424FF00301CCD8D0F80432C2604D
:1032680003B1C160204604F10C01022200F0D6F936
:10327800C8E790F8FC31023B012BBBD86B88012BC7
:10328800C0D10022D0F81432C0F8042229469B6825
:103298009847D6E76B88012BB4D1D0F81422C0F830
:1032A8000432294693689847204600F0D5F9A9E7E3
:1032B8006A88130A013B062B9CD801A151F823F018
:1032C800AD330008D1330008BF330008FD310008D2
:1032D800FD3100089533000855330008EA88012AB3
:1032E80088D190F8FC31022B1CD0032B82D1011D10
:1032F80000F094F986E790F8FC31AD78032B05F0DF
:103308007F053FF477AF80F8FE51294600F0E4FED0
:10331800204600F0A1F9002D00F09980022384F8DE
:10332800FC316FE70146002341F8083F00F076F9C9
:1033380068E7002985D001210323416080F8FC312A
:10334800FFF71CFE02287FF47CAF53E7037C002BB9
:103358007FF450AFD0F814320DF106001B6B98477C
:10336800072301464370BDF80630002B3FF44AAFEF
:10337800EA88002A3FF446AF9A4238BF13461A46F5
:103388002046ADF8063000F049F93BE7037C002BF6
:103398007FF430AFD0F814320DF106005B6B98471C
:1033A8000146E0E7D0F81032007C1B680DF10601F9
:1033B80098470146D7E7D2B2052A3FF61BAFDFE8A8
:1033C80002F02B2219103D34037C002B43D1D0F896
:1033D80014320DF106009B6A984702230146437098
:1033E800C1E7D0F81032007C1B690DF1060198473F
:1033F8000146B8E7D0F81032007CDB680DF1060111
:1034080098470146AFE7D0F81032007C9B680DF171
:10341800060198470146A6E7D0F81032007C5B68A1
:103428000DF10601984701469DE7D0F81032007C5F
:103438009B690DF106019847014694E7D0F81032D0
:10344800007C5B690DF10601984701468BE7012373
:1034580084F8FC31D6E6D0F814320DF10600DB6AA8
:1034680098470223014643707DE70223416080F8B4
:10347800FC31FFF78DFD204600F0EEF8C2E600BFF4
:103488006005002038B590F8FC31032B04460D4642
:1034980002D10B79012B08D9802100F0F9FD2046D3
:1034A800002100F0F5FD002038BDD0F814329B68EB
:1034B8009847EB88002BF6D1204600F0CDF8F2E7CC
:1034C80070B50B788A8803F06003202B0C460546FC
:1034D800D6B255D04B78012B34D019D3032B15D144
:1034E80090F8FC31022B31D0032B40D14B8823B903
:1034F800730602D0314600F0CBFDD5F814322146D0
:103508009B6828469847284600F0A6F8002070BD1A
:1035180090F8FC31022B19D0032B28D106F07F0438
:10352800130600EB041431464CBF143404F58274BE
:1035380000F0BEFD48BB206028462146022200F06C
:103548006DF8E3E790F8FC31022B05D17206DDD067
:10355800314600F09DFDD9E7032B08D14B88002B9D
:10356800D4D17106CFD0314600F09AFDC5E780214D
:1035780000F08EFD2846002100F08AFD002070BD75
:10358800D0F814329B689847C0E701232360D3E73B
:103598000B7803704B784370CA788B7803EB02235F
:1035A80043804A790B7903EB02238380CA798B79AC
:1035B80003EB0223C380704710B58021044600F056
:1035C80067FD20460021BDE8104000F061BD00BF46
:1035D80030B4F0B10378F3B10446002314F8015F66
:1035E8000133DBB2002DF9D15B000233DCB20325D5
:1035F80013800C704D7002785AB1022300255C1CB0
:10360800E4B2CA540D5510F8012F0233DBB2002A78
:10361800F5D130BC704702242346E8E738B5134695
:1036280002250A468361C361C0F8F451002100F005
:103638005BFD002038BD00BF08B513460A460021CF
:1036480000F052FD002008BD08B513460A460021C7
:1036580000F052FD002008BD08B500210423C0F881
:10366800F4310A460B4600F03FFD002008BD00BFBC
:1036780008B500210523C0F8F4310A460B4600F0CE
:103688003BFD002008BD00BF30B583B002230546CE
:103698000C468DF80030AAB98DF801200023694640
:1036A80005220A488DF804308DF802508DF8034041
:1036B800FFF724FC0548FFF737FC4000FDF752FBF5
:1036C80003B030BD01238DF80130E7E76006002024
:1036D8002DE9F0472DED048BFCF7CEFE00260027E0
:1036E8004FF00008DFF880909FED1D9ADFED1D9ADE
:1036F80004460D464FF03F0A0DE041EC100B00F078
:1037080057FD59EC108BB0EE480AF0EE680A00F04D
:10371800A3FD57EC106B42464B4620462946FCF762
:1037280011FFFDF7A9F93B46324680462946204657
:10373800FCF708FFFDF7A0F939EE299A01460122A6
:103748004046FFF7A1FF19EE100AFCF7A7FEBAF1F1
:10375800010A41EC180BD0D1BDEC048BBDE8F08711
:1037680000000000CDCCCC3D0000F03F0000000080
:10377800F8B52DED088BFCF77FFE9FED2B8B9FEDA9
:103788002C9B04460D469FED2CAA9FED2CBA3F2694
:10379800F0EE04AAF1EE00BA19E01AEE100AFCF7EE
:1037A8007DFE013E41EC180B3BD041EC100B00F0C4
:1037B800FFFCB0EE409AF0EE609AB0EE480AF0EEE8
:1037C800680A00F049FDB0EE408AF0EE608A3AEEF1
:1037D8000BAAB4EEEAAAF1EE10FADEDDB4EEEBAA1B
:1037E800F1EE10FAD9D553EC192B20462946FCF7EF
:1037F800A9FEFDF741F953EC182B07462946204648
:10380800FCF7A0FEFDF738F9012201463846FFF71C
:103818003BFF1AEE100AFCF741FE013E41EC180B83
:10382800C3D1BDEC088BF8BD00000000000000000B
:10383800000000000000F03F00000000CDCCCC3DAF
:1038480030B51A4D85B00024012309228DF80510E2
:103858008DF8070001A928468DF804308DF8064038
:103868008DF808408DF809408DF80A408DF80B4016
:103878008DF80C40FFF742FB2846FFF755FB00EB9D
:103888004000FDF76FFA01A9092228468DF8054086
:103898008DF80740FFF732FB2846FFF745FB00EBA2
:1038A8004000FDF75FFA05B030BD00BF600600209C
:1038B80008B515200821FFF7C3FF10200021FFF7E6
:1038C800BFFF16200021FFF7BBFF13200021FFF7E1
:1038D800B7FF04200021FFF7B3FF0C200021FFF7FA
:1038E800AFFF11200021FFF7ABFF17200021FFF7E2
:1038F800A7FF00212820FFF7A3FF4FF49670FDF7DC
:1039080031FA002001460246FFF7BEFE0F20FFF7FE
:10391800DFFE00210A466FF01800FFF7B5FE002011
:1039280002463221FFF7B0FE0420FFF7D1FE002047
:1039380001460246FFF7A8FE00210A464B20FFF782
:10394800A3FE0420FFF7C4FE002001460246FFF74D
:103958009BFE00210A466FF02700FFF795FE002026
:1039680001460122FFF790FE002002465021FFF792
:103978008BFE002001460246FFF786FE00210A461C
:103988002820FFF781FE002001460246FFF77CFE53
:103998000A20FFF7EDFE002001460246FFF774FEFD
:1039A800142000210122FFF76FFE00200146024685
:1039B800FFF76AFE4FF49670BDE80840FDF7D2B9EC
:1039C800F0B599B000212C4A0191106C2B4B40F0B6
:1039D80080501064126C02F080520192019A029198
:1039E8001A6842F480421A601B6803F48043029309
:1039F80001250723022408214FF4A8724FF48006FA
:103A08000CA81793029F0C950D9512941694139673
:103A180014911592FEF74AF9034600B1FEE70F2705
:103A28004FF4A0564FF4805207A805210894099333
:103A380007970A960B92FEF709FB00B1FEE7C02331
:103A480003A8059403950493FEF7D6FB044600B13A
:103A5800FEE7FEF7B3FB0A4BA3FB00208009FDF746
:103A6800E5F90420FDF7FEF9214622464FF0FF3024
:103A7800FDF798F919B0F0BD003802400070004019
:103A8800D34D621080B58CB00024FDF743F9FFF7E1
:103A980097FF8F4B01941A6B8E48DFF86C9242F0B7
:103AA80010021A631A6B02F010020192019A029432
:103AB8001A6B42F004021A631A6B02F004020292B3
:103AC800029A03941A6B42F080021A631A6B02F08E
:103AD80080020392039A04941A6B42F001021A635B
:103AE8001A6B02F001020492049A05941A6B42F0D0
:103AF80002021A631A6B02F002020592059A0694F2
:103B08001A6B42F008021A631A6B03264FF6F57314
:103B180002F0080207A9012506920827069A0793CA
:103B280008960994FDF7B0F907A96A480895099419
:103B38000A940797FDF7A8F942F6763307A966486D
:103B4800079308960994FDF79FF907A96248079516
:103B58004FF0020808954FF0050A09940A94FDF7FA
:103B680093F907A95C48079709940A94CDF820802F
:103B7800CDF82CA0FDF788F907A9584807950994AE
:103B8800CDF82090FDF780F948F20E1307A95348A5
:103B9800089607930994FDF777F94FF6B31307A929
:103BA8004F48089607930994FDF76EF9042307A96F
:103BB8004B48079308940994FDF766F94FF480631E
:103BC80007A947480793CDF82CA0CDF82080099481
:103BD8000A94FDF759F940F6CF7307A941480793AE
:103BE800089609944FF21006FDF74EF907A93D48CB
:103BF800089509940A940796FDF746F9202307A922
:103C08003848079308940994FDF73EF907A9314805
:103C1800CDF81C80CDF820900994FDF735F9394688
:103C280022462C48FDF72EFA29462A462A482E4DC8
:103C3800FDF728FA314622462A48FDF723FA2B4B8E
:103C48002B499C604FF4804218461A61DC605C6125
:103C58009C61DC611C621D605960FDF717FA024621
:103C680000B1FEE7234B244998604FF40074234DBC
:103C7800DA6018469A61DA611A621D6059615C60FF
:103C88001C61FDF7A9FA024600B1FEE71C4B1D4E68
:103C980098604FF482750A211846DA601A615A61F1
:103CA8009C61DA611A625A629A621E605D60D9622A
:103CB800FEF750FB00B1FEE700F0F0F807480121DD
:103CC800FDF7DAF90028F9D0FFF7F2FDF6E700BFB3
:103CD8000038024000100240000802400000024084
:103CE80000040240000C024000540040700500200F
:103CF800A08601001C06002000770100003C00405F
:103D0800C40500200030014000001210FEE700BF8B
:103D180008B50720FDF734F800210A466FF00B00BC
:103D2800FDF740F800210A466FF00A00FDF73AF85F
:103D380000210A466FF00900FDF734F800210A4611
:103D48006FF00400FDF72EF800210A466FF003001B
:103D5800FDF728F800210A466FF00100FDF722F868
:103D680000210A464FF0FF30BDE80840FDF71AB8B9
:103D780030B5124B02689A4287B001D007B030BD07
:103D880004234FF4107101220024019112250DEB38
:103D980003010B480392059302950494FDF774F808
:103DA800084B00941A6C42F400121A641B6C03F45A
:103DB80000130093009B07B030BD00BF00540040C3
:103DC800000402400038024070B5164B02689A425F
:103DD80086B001D006B070BD002403F5FE33009410
:103DE8001A6C114842F400421A641B6C039403F4E1
:103DF8000043009301A9102302260625009A019387
:103E0800049402960595FDF73FF84FF4A45301A9D1
:103E1800064802960394049405950193FDF734F837
:103E280006B070BD003C004000000240000802409F
:103E380070B5104B02689A4286B001D006B070BDCA
:103E480000230D4A0093516C0C4841F48051516491
:103E5800526C039302F480520092E025052202245A
:103E680001A9009E0493019502940592FDF70CF8B0
:103E780006B070BD0030014000380240000002402A
:103E880008B5FCF761FFBDE80840FCF7F9BF00BFC3
:103E98000148FDF7C7BA00BF8408002010B5074CD9
:103EA800074920460022FFF745F820460549FFF755
:103EB80057F82046BDE81040FFF75AB860060020C2
:103EC8000C0500203004002030B50368B3F1A04F82
:103ED80087B001D007B030BD002401A94FF40073AA
:103EE80015480193029403944FF4E055FCF7CCFF76
:103EF80001A902220A23104802920593039404940C
:103F08000195FCF7C1FF0D4B5A6B42F080025A63D2
:103F180000945A6C42F480425A645B6C03F4804308
:103F28002146009322464320009BFCF73BFF432099
:103F3800FCF770FF07B030BD0000024000380240B7
:103F480000F56171D0F8B403FFF72AB8C1EBC103DB
:103F580000EB8303D0F8B403D3F8E821FFF750B897
:103F6800C1EBC10300EB8303D0F8B4035A6CFFF72D
:103F78007DB800BFD0F8B403FFF706B910B5C16823
:103F880004460031D0F8B40318BF0121FFF7E6F862
:103F9800D4F8B403BDE81040FFF7C0B810B5044624
:103FA800D0F8B403FFF7DEF82368D3F8002E42F008
:103FB8000102C3F8002E236A23B1034B1A6942F0A9
:103FC80006021A6110BD00BF00ED00E0D0F8B4038E
:103FD800FFF7D2B8D0F8B403FFF7E8B8D0F8B403C5
:103FE800FFF7E2B8D0F8B403FFF7E2B8D0F8B403AB
:103FF800FFF7E0B870B502780AB1002070BD164B23
:104008000221C3F8B4034FF0A0460425C0F82032BB
:10401800012418461A615A61DA611A625A621A63EF
:104028001E605D60DC62D9609961FDF777F978B947
:1040380080210948FDF736FE002140220648FDF799
:104048000DFE012180220448FDF708FE002070BD06
:10405800FFF75CFEECE700BF8408002008B5D0F845
:104068002002FDF7C9F9002008BD00BF10B51446AD
:10407800D0F820021A462346FDF7DCFC002010BDCC
:1040880008B5D0F82002FDF709FD002008BD00BFE3
:1040980008B5D0F82002FDF785FD002008BD00BF57
:1040A80008B5D0F82002FDF7AFFD002008BD00BF1D
:1040B8000A06D0F8203206D4C1EBC10103EB810314
:1040C80093F8DE01704701F07F01C1EBC10103EBFA
:1040D800810393F83A00704708B5D0F82002FDF73D
:1040E80097FC002008BD00BF08B5D0F82002FDF7F6
:1040F8002BFD002008BD00BF08B5D0F82002FDF751
:10410800F5FC002008BD00BF12230B800048704753
:104118002C05002004230B80004870472805002048
:1041280010B5044C04480A462146FFF751FA2046C8
:1041380010BD00BF3C0C00204057000810B5044CCF
:1041480004480A462146FFF743FA204610BD00BF3F
:104158003C0C00205457000810B5044C04480A468B
:104168002146FFF735FA204610BD00BF3C0C002061
:104178006C57000810B5044C04480A462146FFF75E
:1041880027FA204610BD00BF3C0C00207C570008D1
:1041980010B5044C04480A462146FFF719FA204690
:1041A80010BD00BF3C0C002088570008000000002C
:1041B80000B553EC102B264A23F00043934285B0F8
:1041C80022DD244A93420BDD51EC100B10EE102A2D
:1041D8000B46FCF703F841EC100B05B05DF804FB47
:1041E800684600F091F800F0030001289DED000BEF
:1041F8009DED021B20D0022811D000B3012000F051
:10420800B7FF51EC100BE6E79FED0F1B00F0A4FA87
:1042180051EC100B41EC100B05B05DF804FB00F0FD
:104228009BFA53EC102B10EE100A03F1004141ECFD
:10423800100B05B05DF804FB00F09AFFF1E700F001
:104248008BFA51EC100BC6E70000000000000000DC
:10425800FB21E93FFFFFEF7F00B553EC102B284A05
:1042680023F00043934285B029DD264A93420BDDB3
:1042780051EC100B10EE102A0B46FBF7AFFF41EC88
:10428800100B05B05DF804FB684600F03DF800F03F
:10429800030001289DED000B9DED021B1FD0022895
:1042A80019D008B300F058FA53EC102B10EE100A8E
:1042B80003F1004141EC100B05B05DF804FB9FEDE4
:1042C8000E1B002000F054FF51EC100B41EC100BBA
:1042D80005B05DF804FB012000F04AFFE4E700F0B8
:1042E8003BFA51EC100BCAE7012000F041FF51ECFA
:1042F800100BC4E7AFF300800000000000000000CE
:10430800FB21E93FFFFFEF7F2DE9F04F5BEC10AB9E
:10431800994B2BF000479F4291B0804640F386802E
:10432800964B9F4229DCBBF1000F51EC100B88A380
:10433800D3E9002340F3A681FBF750FF904B9F423F
:1043480004460D4600F08A8083A3D3E90023FBF7D7
:1043580045FF02460B46C8E9002320462946FBF7DD
:104368003DFF7DA3D3E90023FBF738FF0126C8E909
:104378000201304611B0BDE8F08F824B9F4240F3F6
:104388008A80814B9F425CDC4FEA2759A9F2164983
:10439800A7EB095351EC100B19461F46FCF76CFBB1
:1043A800FCF76AF804460D4622462B463946504625
:1043B800CDE90A45FBF712FF0022744BFCF7C2F85F
:1043C8000F460646FCF758FBFCF756F804460D4620
:1043D80022462B4630463946CDE90C45FBF7FEFE12
:1043E80000226A4BFCF7AEF800220023CDE90E014B
:1043F800FCF710FB002800F07181002320462946B5
:104408000022FCF707FB002814BF01230223022225
:104418005F49009201914A460AA8414600F0DCFA39
:10442800BBF1000FC0F24C81064606E000220023D3
:1044380088ED000BC0E902230026304611B0BDE824
:10444800F08F51EC100B10EE102A0B46FBF7C6FE4E
:104458000026C8E90201C8E90001EEE740A3D3E954
:104468000023FBF7BBFE40A3D3E9002304460D4617
:10447800FBF7B4FE02460B46C8E90023204629464E
:10448800FBF7ACFE38A3D3E90023FBF7A7FE012610
:10449800C8E90201D1E700F033FF55EC104B10EEEC
:1044A800100A33A3D3E900232946FCF74BF800226E
:1044B800384BFBF795FEFCF7DFFA0646FBF7DCFF07
:1044C80023A3D3E90023CDE90601FCF73BF8024614
:1044D8000B4620462946FBF781FE1FA3D3E900239C
:1044E800CDE90201DDE90601FCF72CF81F2ECDE924
:1044F8000401DDE9020151DC274B721E53F822301A
:10450800BB424BD0DDE90423FBF768FE04460D46A9
:10451800C8E9004522462B46DDE90201FBF75EFEAD
:10452800DDE90423FBF75AFEBBF1000FC8E90201DD
:1045380083DA274601F1004305F100447642C8F8C2
:104548000070C8F80440C8F80800C8F80C3074E7D0
:1045580000004054FB21F93F3163621A61B4D03D39
:104568000000601A61B4D03D7370032E8A19A33B12
:1045780083C8C96D305FE43FFB21E93F7BD9024026
:10458800FB21F93FFB213941FFFFEF7F000070411C
:10459800185800080000E03F98570008DDE9042398
:1045A800FBF71CFE3F15C1F30A53FB1A04460D46E0
:1045B800102BC8E90045ADDD5DA3D3E90023DDE993
:1045C8000601FBF7BFFF04460D4622462B46DDE9F0
:1045D8000201FBF703FECDE90801DDE90823DDE967
:1045E8000201FBF7FBFD22462B46FBF7F7FD52A322
:1045F800D3E9002304460D46DDE90601FBF7A2FFD7
:1046080022462B46FBF7EAFDCDE90401DDE9042348
:10461800DDE90801FBF7E2FDC1F30A53FF1A04467E
:104628000D46312FC8E9004578DD46A3D3E90023BC
:10463800DDE90601FBF786FF04460D4622462B46B8
:10464800DDE90801FBF7CAFDCDE90201DDE9022336
:10465800DDE90801FBF7C2FD22462B46FBF7BEFD4C
:104668003AA3D3E9002304460D46DDE90601FBF72A
:1046780069FF22462B46FBF7B1FDCDE90401DDE9D0
:1046880002013FE7FBF7ACFD2D4B9F4204460D4668
:1046980026D025A3D3E90023FBF7A2FD02460B464B
:1046A800C8E9002320462946FBF798FD1EA3D3E955
:1046B8000023FBF795FD4FF0FF36C8E90201BCE681
:1046C800D8F80420D8F80C3002F1004203F1004376
:1046D8004642C8F80420C8F80C30AEE6032396E634
:1046E80013A3D3E90023FBF77BFD13A3D3E900232E
:1046F80004460D46FBF774FD02460B46C8E9002345
:1047080020462946FBF76AFD0BA3D3E90023FBF7F4
:1047180067FD4FF0FF36C8E902018EE69DED087B84
:104728008DED027BF6E600BF3163621A61B4D03DBD
:104738000000601A61B4D03D7370032E8A19A33B40
:10474800FB21F93F0000002E8A19A33BC14920250F
:104758009A837B39AFF300802DE9F04F57EC106B4B
:104768002DED028BB0EE418AF0EE618A27F0004809
:10477800B8F1795F83B010EE100A39466FDAFCF7AA
:104788007BF9002800F0F38032463B463046394634
:10479800FBF7D8FE7AA3D3E9002304460D46FBF7BE
:1047A800D1FE79A3D3E90023FBF71AFD22462B4655
:1047B800FBF7C8FE76A3D3E90023FBF70FFD2246DB
:1047C8002B46FBF7BFFE74A3D3E90023FBF708FDD4
:1047D80022462B46FBF7B6FE71A3D3E90023FBF76D
:1047E800FDFC22462B46FBF7ADFE6FA3D3E9002361
:1047F800FBF7F6FC22462B46FBF7A4FE82468B46C7
:104808002046294600226E4BFBF79CFE5246804606
:1048180089465B4620462946FBF794FE53EC182B45
:1048280004460D4630463946FBF78CFE02460B46D9
:1048380020462946FBF7D2FC02460B46404649462D
:10484800FBF7CCFC02460B4600205E49FBF7C6FC92
:1048580041EC100B03B0BDEC028BBDE8F08F10EEFD
:10486800102A3B46FBF76EFE45A3D3E90023044616
:104878000D46FBF767FE44A3D3E90023FBF7B0FC22
:1048880022462B46FBF75EFE41A3D3E90023FBF744
:10489800A5FC22462B46FBF755FE3FA3D3E9002390
:1048A800FBF79EFC22462B46FBF74CFE3CA3D3E9C4
:1048B8000023FBF793FC22462B46FBF743FE3AA363
:1048C800D3E90023FBF78CFC2B462246FBF73AFE84
:1048D8003D4B984582468B4692DD3C4B98453DDCE6
:1048E800A8F5001300220020364990469946FBF7A8
:1048F80075FCCDE90001204629460022304BFBF724
:1049080021FE42464B46FBF769FC524680468946E3
:104918005B4620462946FBF715FE53EC182B044648
:104928000D4630463946FBF70DFE02460B4620463B
:104938002946FBF753FC02460B4640464946FBF71F
:104948004DFC02460B46DDE90001FBF747FC41EC54
:10495800100B03B0BDEC028BBDE8F08F9FED147B0C
:104968004FF000088DED007BDFF86490C3E79FED02
:10497800120B03B0BDEC028BBDE8F08FAFF30080E3
:10498800D43888BEE9FAA8BDC4B1B4BD9EEE213EB4
:10499800AD529C804F7E923E9015CB19A001FA3EF5
:1049A8007751C1166CC1563F4C5555555555A53FC5
:1049B800000000000000E73F000000000000F03F9A
:1049C8000000E03F0000F03F3233D33F0000E93FF2
:1049D8000000D23FAFF300802DE9F04FADF51B7D0D
:1049E8001B4CA49E1B4D54F826400A94D41E85FBEC
:1049F8000465E417C4EBA50424EAE4740C949B460C
:104A08000490E34309910C980A990BF1FF3403EBE6
:104A18004303069402EBC303061B641808931BD4D4
:104A2800A598344401340DF1880800EB8605002769
:104A380009E0E859FBF720FD0136A642E8E8020143
:104A480007F1040708D0002EF3DA00200021F3E76D
:104A580020590008ABAAAA2A0A9C002C2BDB0A9C26
:104A680074AE22A806EBC40600EBCB0903960DF53D
:104A7800E478069C002CC0F27781DDF810A04F4640
:104A880000240025002677E90223FAE80201FBF753
:104A980059FD02460B4620462946FBF7A1FB013685
:104AA8005E4504460D46EED1E8E80245039EB04552
:104AB80009F10809DDD10A9E03960EAC029404EBB5
:104AC80086040D94039E9AAB4FEAC6094B44002E08
:104AD80053E928452BDD0DF1340A72A989440AEB04
:104AE800860A0DF134080022A94B20462946FBF717
:104AF80029FDFBF7C1FFFBF7BFFC0022A54B0646CB
:104B08000F46FBF71FFD02460B4620462946FBF7DA
:104B180065FBFBF7B1FF79E9022348F8040F394632
:104B28003046FBF75DFBD04504460D46DBD145EC2E
:104B3800104B089800F08CFC55EC104B00224FF0FD
:104B48007F5310EE100A2946FBF7FCFC41EC100BD2
:104B580000F0E2FB002251EC100B8F4BFBF7F2FC4C
:104B680002460B4620462946FBF738FB04460D460D
:104B7800FBF782FF8046FBF77FFC02460B46204688
:104B88002946FBF72BFB089C002C06460F4640F3F2
:104B9800B980039C0EAA611E089C52F82130C4F10A
:104BA800180043FA00F2C4F1170502FA00F00EAC3F
:104BB8001B1A44F82130904443FA05F5002D2BDDEB
:104BC800039C002C08F1010840F3D9800EAB03EBDD
:104BD8008400002453F8041BC1F1FF1202F57F4240
:104BE80014B9C1F1807211B143F8042C0124834235
:104BF800F0D1089800280DDD012800F0A4800228D3
:104C080008D103990EA84B1E50F82320C2F31502B1
:104C180040F82320022D7DD030463946002200235B
:104C2800FBF7F8FE002800F0BD80039C0A9E04F103
:104C3800FF394E450DDC0EA800EB84030D980022C9
:104C480053F8041D834242EA0102F9D1002A40F0D8
:104C58004A820A9C0EAE621E56F82230002B40F0A3
:104C6800408206EB8202012352F8041D0133002919
:104C7800FAD0039C039E1C4406F1010AA2450B943A
:104C88003DDC0C9C0B9BDDF81890B046A59EA0441B
:104C9800234472ACD14422A804EBCA0406EB830374
:104CA80006EB880800EBC9090394079358F8040F2A
:104CB800FBF7E2FB069E002EE9E802014FF0000434
:104CC8004FF0000514DBDDF810A04F46002677E909
:104CD8000223FAE80201FBF735FC02460B462046A0
:104CE8002946FBF77DFA01365E4504460D46EED1AE
:104CF800039EE6E80245079C0396A045D6D10B9E85
:104D08000396DFE629D1039C0EA8631E50F82350B2
:104D1800ED1553E732463B4600202049FBF75EFA83
:104D280006460F46002C3FF477AF08989FED160B08
:104D380000F08EFB3046394653EC102BFBF74EFA49
:104D480006460F4668E703990EA84B1E50F8232025
:104D5800C2F3160240F823205CE70022104BFBF751
:104D680077FE20B9054657E7002400259CE6039CFA
:104D7800002C4FF0020508F101083FF727AF002487
:104D880037E700BFAFF30080000000000000F03FED
:104D98000000703E00007041000020400000F03F1D
:104DA8000000E03F47EC106B089E06957042CDF876
:104DB8001C8000F04DFB55EC104B10EE100A2946F4
:104DC8000022B14BFBF744FE002800F0B881002216
:104DD800AE4B20462946FBF7B5FBFBF74DFE0646D2
:104DE800FBF74AFB0022A84BFBF7ACFB02460B463D
:104DF80020462946FBF7F2F9FBF73EFE039C04F137
:104E08000109089C18340EA90894039C41F8240051
:104E180041F8296008989FED9A0B00F019FBB9F149
:104E2800000F55EC104B56DB09F101060EA872A9CC
:104E3800039600EB860701EBC60657F8040DFBF74F
:104E48001BFB22462B46FBF77DFB002266E902018D
:104E58008E4B20462946FBF775FB029A974204467B
:104E68000D46EAD172AB03EBC90B0DF5947ACDF878
:104E78002090DDF82890CDF810A04FF00008B9F187
:104E8800000FC0F22981DFF808A25F460024002540
:104E9800002601E0464510DCF7E80223FAE80201A3
:104EA800FBF750FB02460B4620462946FBF798F9CC
:104EB8000136B14504460D46ECDA049E06EBC803FC
:104EC800C3E90045039C08F101084445ABF1080B10
:104ED800D5D1DDF82090A49E032E00F28C80DFE867
:104EE80016F0D900910091000400B9F1000F40F3C9
:104EF80012810DF5947A4FEAC90B0AEB0B03D3E93B
:104F0800006709F101030AEBC303039398460DF503
:104F1800987C01E026462F4618ED047B324651EC7A
:104F2800170B3B46CDF804C08DED047BFBF758F911
:104F380004460D4622462B46DDE90401FBF74EF9EF
:104F480032463B46FBF74CF968E90201DDF804C03C
:104F5800E04548E90245DDD1B9F1010F40F303818D
:104F6800DDF80CC0CDF810A0D344DBE900450AF108
:104F7800100BE24601E034463D465AE904892246D0
:104F88002B4640464946FBF72BF906460F46324664
:104F98003B4640464946FBF721F922462B46FBF79C
:104FA8001FF96AE90201DA454AE90267E3D1DDF847
:104FB80010A0039C0020002174E90223FBF710F9DC
:104FC800A345F9D1069C002C00F0AD80099EDAF8C3
:104FD8000450DAF80C40DAF80020DAF808303260C9
:104FE80005F1004504F1004401F100427560F460E8
:104FF800B36030617261079C04F007000DF51B7DFA
:10500800BDE8F08FB9F1000F4FF000004FF000013C
:105018000DF5947A09DB09F101040AEBC40474E97B
:105028000223FBF7DDF85445F9D1069C0246002C13
:1050380055D001F10043099EC6E9002302460B46FC
:10504800DAE90001FBF7CAF8B9F1000F08DD4CAC4A
:1050580004EBC909F4E80223FBF7C2F84C45F9D17F
:10506800069C0246002C74D0099E01F10043C6E953
:105078000223079C04F007000DF51B7DBDE8F08FA7
:10508800000000000000F03F000070410000703E8A
:1050980030590008B9F1000F4FF000004FF000013F
:1050A8000ADB09F101044AAD05EBC40474E90223E3
:1050B800FBF796F8AC42F9D1069C0246002C4DD07D
:1050C800099E01F10043C6E90023079C04F007008C
:1050D8000DF51B7DBDE8F08F00240025EDE60B469D
:1050E800A9E70123C5E50EAE089C56F82930CDF88E
:1050F8001C80183C06950894002B7FF48BAE06EBB9
:105108008903224653F8041D09F1FF39183A00298A
:10511800F8D008927EE6069C002000210DF5947ACE
:10512800002C7FF453AFDAE90045DAE90223099E3F
:10513800C6E90401C6E90045C6E902235BE7204643
:105148002946FBF799FC0EAE039C46F82400A146BD
:1051580060E6099E0B46C6E902238AE7099E0B46CC
:10516800C6E90023B1E7002000212BE7AFF3008058
:105178002DE9F04F55EC104B2DED028BB0EE418A26
:10518800F0EE618A25F00043B3F1795F83B082467F
:1051980007DA10EE100A2946FBF76EFC002800F02B
:1051A8008C8022462B4620462946FBF7CBF922461F
:1051B8002B4606460F46FBF7C5F946A3D3E900235D
:1051C8008046894630463946FBF7BCF943A3D3E904
:1051D8000023FBF703F832463B46FBF7B3F941A33C
:1051E800D3E90023FAF7FCFF32463B46FBF7AAF95E
:1051F8003EA3D3E90023FAF7F1FF32463B46FBF71B
:10520800A1F93CA3D3E90023FAF7EAFFCDE90001AD
:10521800BAF1000F37D051EC180B00222C4BFBF7DA
:1052280091F9DDE9002382468B4640464946FBF763
:1052380089F902460B4650465946FAF7CFFF3246DF
:105248003B46FBF77FF953EC182BFAF7C7FF1EA371
:10525800D3E9002306460F4640464946FBF772F954
:1052680002460B4630463946FAF7BAFF02460B4665
:1052780020462946FAF7B2FF41EC100B03B0BDEC0B
:10528800028BBDE8F08FDDE9002330463946FBF795
:1052980059F90DA3D3E90023FAF7A0FF42464B467C
:1052A800FBF750F922462B46FAF79AFF41EC100B10
:1052B80003B0BDEC028BBDE8F08F45EC104B03B09A
:1052C800BDEC028BBDE8F08F495555555555C53F86
:1052D8000000E03F7CD5CF5A3AD9E53DEB9C2B8ABC
:1052E800E6E55A3E7DFEB157E31DC73ED561C119BB
:1052F800A0012A3FA6F810111111813FAFF30080D9
:1053080051EC100B53EC102B21F0004343EC102B05
:10531800704700BF000000002DE9F84F55EC104B16
:10532800C5F30A57A7F2FF36132EA946AA4610EE70
:10533800108A1FDC002E4CDB434F374107EA050378
:10534800234315D03EA3D3E9002351EC100BFAF701
:1053580047FF00220023FBF785FB28B1002D4BDB1C
:105368002AEA07094FF000084B46424643EC102B47
:10537800BDE8F88F332E0CDDB6F5806FF8D151EC0F
:10538800100B22460B46FAF72BFF41EC100BBDE839
:10539800F88FA7F213434FF0FF3B2BFA03FB1BEAEE
:1053A800040FE5D026A3D3E9002351EC100BFAF73C
:1053B80017FF00220023FBF755FB0028D4D0002D4F
:1053C80021DB28EA0B08D1464B46424643EC102B1A
:1053D800CEE71BA3D3E9002351EC100BFAF700FF2B
:1053E80000220023FBF73EFB0028BDD0002D18DB70
:1053F8004FF00008C146B7E74FF4801A4AFA06F69C
:1054080006EB050AACE7142E14D0C7F5866701230E
:10541800033703FA07F717EB040828BF05EB030A5D
:10542800CFE725F00042094B224318BF99464FF0B9
:10543800000899E705F1010AC3E700BFAFF3008050
:105448009C7500883CE4377EFFFF0F000000F0BF2A
:1054580038B553EC102BC3F30A51054618460029FA
:105468003AD123F00043134335D051EC100B3C4B99
:105478003C4C0022FBF766F8A54241EC100B0B46AA
:1054880051DBC3F30A51363918464C1940F2FE7302
:105498009C422ADDB0EE401AF0EE601A9FED2C0B0C
:1054A80000F066F82AA3D3E9002351EC100BFBF7B0
:1054B80049F841EC100B38BD20F0FF4323F4E0031A
:1054C800363451EC100B002243EA0451264BFBF70B
:1054D80039F841EC100B38BD40F2FF7399422AD0DD
:1054E8004C1940F2FE739C42D4DC002C0ADD20F0FB
:1054F800FF4053EC102B20F4E00040EA045343EC47
:10550800102B38BD14F1350FD6DAB0EE401AF0EE94
:10551800601A4CF250339D42C0DC9FED0F0B00F037
:1055280027F851EC100B0CA3D3E90023FBF70AF87A
:1055380041EC100B38BD51EC100B10EE102A0B4645
:10554800FAF74EFE41EC100B38BD00BFAFF30080F8
:105558009C7500883CE4377E59F3F8C21F6EA5019C
:1055680000005043B03CFFFF0000903CAFF30080C8
:1055780030B451EC110B55EC104B53EC102B25F0BB
:10558800004001F0004141EA000343EC102B30BC1D
:10559800704700BF024B0146186800F04FB800BFC3
:1055A80028040020024B0146186800F003B800BF29
:1055B8002804002030B500293CD051F8042C0B1FDA
:1055C8001D49002AB8BF9B180A680C4612B95A60D0
:1055D8000B6030BD93420DD219685818904203D120
:1055E8005A581144426819605A60236030BD994284
:1055F80003D80A4651680029F9D1146815199D4243
:105608000AD11B682344D0188842136012D1086855
:10561800034413604B680CE002D90C23036030BDCF
:1056280018681C188C4203D10C684968204418601B
:105638005960536030BD00BF6805002070B5CD1CAF
:1056480025F0030508350C2D38BF0C25002D06461E
:105658003FDB8D423DD3214B1C6818462146A1B142
:105668000B685B1B0ED40B2B03D90B60CC18CD50E9
:105678001FE08C4202D1626802601AE04B686360E6
:105688000C4616E00C464968E9E7154C23681BB937
:10569800304600F027F820602946304600F022F80E
:1056A800431C014615D0C41C24F0030484420AD1CB
:1056B800256004F10B00231D20F00700C31A0BD04E
:1056C8005A42E25070BD3046611A00F00BF80130C2
:1056D800EED10C233360002070BD00BF68050020A8
:1056E8006405002038B5064C0023054608462360AB
:1056F800FBF7EAF9431C02D1236803B12B6038BDDC
:105708003C0E0020F8B500BFF8BC08BC9E467047A8
:0C571800F8B500BFF8BC08BC9E46704706
:105728004300000000000020000000000102030404
:10573800010203040607080953544D6963726F6533
:105748006C656374726F6E696373000053544D33F4
:10575800322048756D616E20696E7465726661638A
:10576800650000003030303030303030303031417A
:105778000000000048494420436F6E6669670000D6
:1057880048494420496E746572666163650000008B
:10579800FB21F93FFB2109407CD91240FB2119402C
:1057A8007A6A1F407CD92240BBFD2540FB21294055
:1057B8003A462C407A6A2F405C4731407CD93240C7
:1057C8009C6B3440BBFD3540DB8F3740FB213940B3
:1057D8001BB43A403A463C405AD83D407A6A3F406A
:1057E8004C7E40405C4741406C1042407CD942406E
:1057F8008CA243409C6B4440AC344540BBFD4540C3
:10580800CBC64640DB8F4740EB584840FB21494018
:1058180083F9A200444E6E00FC291500D1572700D9
:10582800DD34F50062DBC0003C99950041904300EF
:105838006351FE00BBDEAB00B761C5003A6E2400C1
:10584800D24D42004906E00009EA2E001C92D10020
:10585800EB1DFE0029B11C00E83EA700F5358200CB
:1058680044BB2E009CE98400B4267000417E5F0092
:10587800D6913900538339009CF439008B5F84003A
:1058880028F9BD00F81F3B00DEFF97000F980500C0
:10589800112FEF000A5A8B006D1F6D00CF7E360066
:1058A80009CB2700464FB7009E663F002DEA5F00F0
:1058B800BA277500E5EBC7003D7BF100F739070013
:1058C80092528A00FB6BEA001FB15F00085D8D00F1
:1058D800300356007BFC4600F0AB6B0020BCCF00C9
:1058E80036F49A00E3A91D005E619100081BE600EA
:1058F80085996500A0145F008D40680080D8FF007E
:1059080027734D0006063100CA561500C9A8730052
:105918007BE260006B8CC000020000000300000006
:10592800040000000600000000000040FB21F93FD1
:10593800000000002D44743E000000809846F83CAA
:105948000000006051CC783B00000080831BF039D8
:105958000000004020257A38000000802282E336CB
:08596800000000001DF3693589
:08597000550B0008AD01000811
:045978008901000899
:10597C0000000000EC02002054030020BC030020B7
:10598C00000000000000000000000000000000000B
:10599C0000000000000000000000000000000000FB
:1059AC000000000028570008000000000000000064
:1059BC0000000000000000000000000000000000DB
:1059CC0000000000000000000000000000000000CB
:1059DC0000000000000000000000000000000000BB
:1059EC0000000000000000000000000000000000AB
:1059FC00000000000000000000000000000000009B
:105A0C00000000000000000000000000000000008A
:105A1C000000000000000000010000000000000079
:105A2C000E33CDAB34126DE6ECDE05000B0000003E
:105A3C00000000000000000000000000000000005A
:105A4C00000000000000000000000000000000004A
:105A5C00000000000000000000000000000000003A
:105A6C00000000000000000000000000000000002A
:105D9C000000000000000000000000200024F400BF
:105DAC00DD2E0008BD2E0008FD2D000800000000AF
:105DBC0000000000E52D00080000000000000000BD
:105DCC000000000000000000D92D0008D92D0008AB
:105DDC00D92D0008F12D000805010906A101850146
:105DEC00050719E029E715002501750195088102C1
