:020000040800F2
:1000000000000220B90300080904000809040008E0
:1000100009040008090400080904000800000000A1
:1000200000000000000000000000000009040008BB
:10003000090400080000000009040008C11D0008B0
:10004000090400080904000809040008090400085C
:10005000090400080904000809040008090400084C
:10006000090400080904000809040008090400083C
:10007000090400080904000809040008090400082C
:10008000090400080904000809040008090400081C
:10009000090400080904000809040008090400080C
:1000A00009040008090400080904000809040008FC
:1000B000D11D00080904000809040008090400080B
:1000C00009040008090400080904000809040008DC
:1000D00009040008090400080904000809040008CC
:1000E00009040008090400080904000809040008BC
:1000F00009040008090400080904000809040008AC
:10010000090400080904000809040008090400089B
:10011000090400080904000809040008090400088B
:10012000090400080904000809040008090400087B
:10013000090400080904000809040008090400086B
:10014000090400080904000809040008090400085B
:10015000090400080904000809040008090400084B
:10016000090400080904000809040008090400083B
:100170000904000809040008090400080000000040
:0801800009040008090400084D
:1001880010B5054C237833B9044B13B10448AFF3C9
:1001980000800123237010BD3404002000000000FB
:1001A800E02E000808B5064B1BB106480649AFF318
:1001B80000800648036813B1054B03B1984708BD92
:1001C80000000000E02E000838040020340400205D
:1001D8000000000070B50F4E0F4D761BB61007D00B
:1001E800043D0024013455F8043F9847A642F9D14C
:1001F8000A4E0B4D761B02F06FFEB61008D0043D78
:100208000024013455F8043F9847A642F9D170BD3F
:1002180070BD00BF44300008443000084C3000086E
:1002280044300008F0B4840743D0541E002A3ED05E
:10023800CDB2034603E0621E002C38D0144603F802
:10024800015B9A07F7D1032C2AD9CDB245EA0525D7
:100258000F2C45EA054515D9A4F110073F0903F10C
:10026800100606EB07161A46156055609560D560AE
:100278001032B242F8D104F00F040137032C03EB1B
:1002880007130DD91E462246043A032A46F8045B92
:10029800FAD8221F22F003020432134404F00304A4
:1002A8002CB1C9B21C4403F8011BA342FBD1F0BC1A
:1002B800704714460346C6E7024B13B1024800F0E4
:1002C80005B8704700000000E10200080146002060
:1002D8000246034600F018B838B5094D094C641BAE
:1002E800A41018BF05EB840505D0013C55F8043D62
:1002F8009847002CF9D1BDE8384002F0F3BD00BFA3
:100308004C30000850300008F0B5274C2668D6F865
:10031800484185B00746002C41D065681F2D1EDD79
:10032800224818B94FF0FF3005B0F0BD4FF4C8703F
:10033800039102920193AFF300800399029A019B03
:1003480004460028EED0D6F84851256000206060A9
:100358000546C6F84841C4F88801C4F88C013FB97D
:10036800AB1C00200135656044F8231005B0F0BDD2
:1003780004EB85004FF0010CC0F88820D4F88861A0
:100388000CFA05F21643022FC4F88861C0F8083148
:10039800E6D1D4F88C311A43C4F88C21E0E706F58D
:1003A800A674C6F84841B8E7102F000800000000FE
:1003B800DFF834D0002103E00C4B5B584350043184
:1003C8000B480C4B42189A42F6D30B4A02E0002322
:1003D80042F8043B094B9A42F9D300F013F8FFF7AF
:1003E800F9FE01F0A9F9704700000220503000081A
:1003F8000000002034040020340400204C060020B3
:10040800FEE7000010B4104A104BD2F88810104CC8
:1004180041F47001C2F888101968002041F0010108
:1004280019609860196821F0847121F4803119608D
:100438005C601C684FF0006124F480241C60D86064
:1004480091605DF8044B704700ED00E00038024011
:100458001030002410B5084A084B1268A3FB021399
:100468000446980900F098F821464FF0FF30002222
:1004780000F04EF8002010BD2C040020D34D62106F
:1004880008B50B4B1A6842F400721A601A6842F4F5
:1004980080621A601A6842F480721A60032000F0C1
:1004A80025F80020FFF7D6FF01F0AEFB002008BDBD
:1004B800003C0240024B1A6801321A60704700BFC4
:1004C80018050020014B1868704700BF1805002068
:1004D80010B582B00190FFF7F5FF0446FFF7F2FF71
:1004E800019B001B9842F9D302B010BD074AD1689E
:1004F8004FF6FF030B4043F0BF6300F0070043F4DF
:10050800003343EA0023D360704700BF00ED00E0EA
:1005180030B4194BDC68C4F30224C4F10703251D69
:10052800042B28BF0423062D19D9033C0125A54017
:10053800013D2A40012505FA03F3013B194001FA60
:1005480004F4002844EA02040CDB00F1604000F5E2
:1005580061402401E4B280F8004330BC70470022B7
:100568001446E7E7054B00F00F0024010344E4B20A
:100578001C7630BC704700BF00ED00E0FCEC00E0EA
:1005880000F01F0201214009024B01FA02F243F870
:100598002020704700E100E00138B0F1807F10B4FE
:1005A8000DD2094B094C58600022F020072184F82D
:1005B80023009A60196010465DF8044B70470120CB
:1005C8005DF8044B704700BF10E000E000ED00E06C
:1005D800044B1A6804280CBF42F0040222F00402FB
:1005E8001A60704710E000E0704700BF08B5FFF7D9
:1005F800FBFF08BD2DE9F00FDFF8E0C16F4CDFF815
:10060800E0A182B0002303E00133102B00F0B78093
:1006180001220D689A4002EA05089045F4D14E6817
:1006280026F01002022A13D1DA0800EB820203F046
:1006380007060D69176AB6004FF00F0909FA06F99F
:1006480027EA090905FA06F649EA060515624E6819
:100658005A000325D0F80090954006F00306ED43B4
:10066800964005EA090946EA090606604E6826F03A
:100678001006013E012E13D88768CE6805EA0709DF
:1006880006FA02F749EA070686604E68D0F8049031
:10069800C6F300169E4029EA080949EA060646609C
:1006A800C6688F68354007FA02F22A43C2604A6872
:1006B800D200A9D5424D002601966A6C42F48042C8
:1006C8006A646D6C23F0030202F1804205F48045F0
:1006D80002F59C32019503F00305DDF80490D2F889
:1006E80008B0AD004FF00F0909FA05F960452BEA8B
:1006F800090948D0504548D0324EB04249D0324F0F
:10070800B8424AD0314EB0424BD0314FB8424CD0AB
:10071800304EB0424DD0304EB0420CBF07260826AE
:1007280006FA05F545EA090595604D6826686FEAF9
:100738000802EF0354BF02EA060548EA06052560E9
:100748004D686668AD0354BF02EA060548EA060527
:1007580065604D68A668EF0254BF02EA060548EADC
:100768000605A5604D68E668AD0203F1010354BFB4
:10077800324048EA0602102BE2607FF449AF02B02B
:10078800BDE8F00F70473546CCE7012606FA05F5B7
:10079800C8E7022606FA05F5C4E7032606FA05F5B2
:1007A800C0E7042606FA05F5BCE7052606FA05F5AE
:1007B800B8E7062606FA05F5B4E700BF003C014095
:1007C8000038024000080240000C024000100240BD
:1007D8000014024000180240001C024000000240C1
:1007E80000040240036919420CBF00200120704731
:1007F80002B90904816170474369594041617047F2
:1008080038B50446002871D090F83D3003F0FF0257
:10081800002B56D02368364D242284F83D201A68D0
:1008280022F001021A6000F0C1FB324A2368A2FBE1
:100838000012920C5A6094E80A00AB4238D8013290
:100848000A6263682A4922688B4226D85B00B0FB9B
:10085800F3F0C0F30B03032B98BF0420D061216A87
:10086800E26923680A431A60E168226923680A4337
:100878009A60A169626923680A43DA60226810688D
:10088800002340F0010020211060236484F83D100B
:10089800236384F83E30184638BDA168B1B903EB2C
:1008A8004303B0FBF3F0C0F30B03E3B90120D5E732
:1008B8004FF49675104B05FB02F2A3FB0252920906
:1008C800BDE780F83C2001F0CFF9A3E703EB8303F1
:1008D80003EB8303B0FBF3F0C0F30B03002BE5D06D
:1008E80040F44040BAE740F40040B7E7012038BD83
:1008F800A086010083DE1B43D34D6210C369012B20
:1009080019D00E4B5A6812F4800F5A6814BF0C485D
:100918000C480A4B02F03F02B0FBF2F2D3F8840015
:10092800D3F88430C0F3881000FB02F0C3F30273DD
:10093800B0FBF3F070470448704700BF003802402E
:1009480000127A000024F4000080BB00F8B50446C9
:10095800002800F0958090F83D3003F0FF02002B4E
:100968004CD00222216884F83D20CB6923F47B63B4
:1009780023F00F03CB6123681A6262692368022A95
:10098800DF6975D0E3682046002B14BF02260126D4
:10099800FFF7B4FF25696369B5F5007F16BF7601D7
:1009A800000AB0FBF6F000EB80004100B1FBF3F168
:1009B800344B0531A3FB0101C9084A08931EFD2BDE
:1009C80001F0010023688CBF022242EA00222A4378
:1009D8001A626668A568E068A26923683E4346F41F
:1009E8000066354328430243DA61236A012B0AD0A3
:1009F80000200123206484F83D30F8BD80F83C20B5
:100A080001F05EF9ADE7204A2568204B95420CBFFE
:100A18001D464FF040250226E86920F47B6020F04F
:100A28000F00E861206890420CBF18464FF0402044
:100A3800066225686068954218BF4FF0402330F47D
:100A48000070DB6917D14FF48071A068E2680E4F1F
:100A58000E4E184340F400600243A069BD420CBF2B
:100A680035464FF0402542EA00031943E961BFE7E4
:100A780025690021ABE7B0F5807F08BF0021E4E7D6
:100A88000120F8BDCDCCCCCC00380040003400406B
:100A9800F0B50368DD0783B0044622D5914A916812
:100AA80001F00C01042900F0EA80916801F00C01C2
:100AB800082900F0E0808C4B22791A706368002BBB
:100AC80000F0CB80FFF7FEFC864D064605E0FFF7F9
:100AD800F9FC801B642800F29F802B689A03F6D5E6
:100AE80023689F072DD57F4B9A6812F00C0F00F0F2
:100AF8009A809A6802F00C02082A00F09080E36855
:100B0800002B00F0D880794B764D01221A60FFF750
:100B1800D9FC064604E0FFF7D5FC801B02287BD8E9
:100B28002B68704A9807F6D51168F82090FAA0F05B
:100B38002369B0FA80F021F0F80183400B43136079
:100B480023681A0720D4590734D4A369CBB1654A5E
:100B5800916801F00C0108296CD0022B644B4FF00E
:100B68000001196000F0B8801446FFF7ABFC054699
:100B780004E0FFF7A7FC401B02284DD823689B011F
:100B8800F7D4002003B0F0BD6369002B55D0594B52
:100B9800544D01221A60FFF795FC064604E0FFF762
:100BA80091FC801B022837D86B6F9F07F7D5236805
:100BB8005907CAD54B4B504D002201921A6C42F08E
:100BC80080521A641B6C03F080530193019B2B68BD
:100BD80043F480732B60FFF775FC064604E0FFF7CB
:100BE80071FC801B022817D82B68DA05F7D5434B10
:100BF800227A1A70A368002B00F0C480FFF762FC09
:100C0800384D074641F288362B6F9B079DD4FFF776
:100C180059FCC01BB042F7D9032003B0F0BD5B6894
:100C28005E023FF56CAF2F4B1B689D0731D5E3681B
:100C3800012B2ED0012003B0F0BD2E4A294D1360A0
:100C4800FFF740FC064604E0FFF73CFC801B022847
:100C5800E2D86B6F9807F7D4A9E7FFF733FC214D6B
:100C6800064604E0FFF72EFC801B6428D4D82B68C6
:100C78009B03F7D434E7526850027FF51CAF194A3A
:100C8800126891037FF52DAF6268002A7FF429AFBF
:100C9800D0E7144BF820196890FAA0F02269B0FA4E
:100CA80080F021F0F80182400A431A6023681A078D
:100CB8007FF549AF68E70D4A0A4D1360FFF702FC5C
:100CC800064604E0FFF7FEFB801B0228A4D82B6829
:100CD8009907F7D4236834E71546FFF7F3FB064670
:100CE80013E000BF003802400238024000004742CB
:100CF80060004742800E4742007000407038024052
:100D0800FFF7E0FB801B022886D82B68254A99014B
:100D1800F6D447F6C07595FAA5F54FF44030B5FA04
:100D280085F590FAA0F04FF07061B0FA80F091FA72
:100D3800A1F1A66AD4F824C0D4F820E0E769E46AEF
:100D4800194B76080CFA05F54EEA0707013E3D43B4
:100D5800B1FA81F106FA00F004FA01F128430843D8
:100D68000121506019601446FFF7ACFB054605E009
:100D7800FFF7A8FB401B02283FF64EAF23689A01F5
:100D8800F6D5FEE6FFF79EFB064D074641F288368C
:100D98002B6F98077FF5D9AEFFF794FBC01BB042C5
:100DA800F6D939E7003802406000474210B41D4BBD
:100DB8009A6802F00C02042A2FD0082A03D01A4895
:100DC8005DF8044B704758685A685C6812F4800FE5
:100DD80000F03F0147F6C07292FAA2F247F6C073DC
:100DE80014BF12481048B2FA82F22340D340B0FB35
:100DF800F1F000FB03F00B4B4FF440325B6892FAC2
:100E0800A2F2B2FA82F203F44033D34001335B001A
:100E1800B0FBF3F05DF8044B704704485DF8044BF1
:100E2800704700BF003802400024F40000127A0026
:100E38002DE9F041564B1A6802F00F028A420C461F
:100E4800054609D2CAB21A701B6803F00F038B4219
:100E580002D00120BDE8F0812B689A0707D54D4BD9
:100E6800AA68996821F0F0010A439A602B68DF07A5
:100E780026D56B68012B00F085809A1E012A454A09
:100E8800126879D99107E4D5424FBA6822F0030273
:100E98001343BB60FFF716FB6B68012B064641F254
:100EA80088384DD0022B56D0032B05D15EE0FFF7D2
:100EB80009FB801B404562D8BB6813F00C0FF6D1C4
:100EC800334B1A6802F00F02944206D2E2B21A704B
:100ED8001B6803F00F03A342BBD12B685A0707D541
:100EE8002C4BEA68996821F4E0510A439A602B6810
:100EF8001B0707D5274B29699A6822F4604242EA02
:100F0800C1029A60FFF752FF224A0146F023926815
:100F180093FAA3F3B3FA83F302F0F002DA401E481F
:100F28001E4B825C002021FA02F21A60FFF792FA47
:100F38000020BDE8F081FFF7C5FA801B40451ED8A8
:100F4800BB6803F00C03042BF5D1B9E7FFF7BAFA35
:100F5800801B404513D8BB6803F00C03082BF5D160
:100F6800AEE7FFF7AFFA801B404508D8BB6803F02F
:100F78000C030C2BF5D1A3E7900185D469E7032076
:100F8800BDE8F081034A126896033FF57DAF60E73C
:100F9800003C024000380240142F00082C040020B6
:100FA800014B1868704700BF2C040020084B4FF411
:100FB800E0529B6892FAA2F2B2FA82F203F4E0538A
:100FC800D3400449044ACB5C1068D840704700BF3E
:100FD80000380240142F00082C040020F0B50368E4
:100FE800DA0783B006464FD413F0020001D103B0EC
:100FF800F0BD4D4B4D4C002201921A6C42F08052CC
:101008001A641B6C03F080530193019B236843F41B
:1010180080732360FFF756FA054604E0FFF752FA9B
:10102800401B02282DD82368D905F7D53E4BF16817
:101038001A6F12F4407201F4407010D090420ED032
:10104800196F3B4A21F4407101240020146010609C
:1010580019671A6FD2074DD4F16801F44070324B0A
:10106800B0F5407F9A6855D022F4F8129A602E4B5A
:10107800F268196FC2F30B020A4300201A6703B023
:10108800F0BD032003B0F0BD2A4B274C00221A60A4
:10109800FFF718FA054604E0FFF714FA401B022888
:1010A800EFD82368204A1F01F6D447F6C07494FA93
:1010B800A4F44FF0E045B4FA84F495FAA5F5B168C4
:1010C80073681C48B5FA85F5A940A3400B43012471
:1010D800C2F8843004601446FFF7F4F9054604E0CA
:1010E800FFF7F0F9401B0228CBD823681801F7D581
:1010F800336879E71C46FFF7E5F941F2883507467A
:1011080004E0FFF7DFF9C01BA842BAD8226F9307A3
:10111800F7D5A1E721F0704121F4407122F4F812CB
:1011280011439960A3E700BF0038024000700040F7
:10113800400E4742680047422DE9F04180460028AA
:101148004DD090F85130002203F0FF018262002B4D
:1011580040D0D8F80030022288F851201A6822F0CE
:1011680040021A60D8F80800D8F80470D8F80C6063
:10117800D8F81050D8F81440D8F81C10D8F8202007
:10118800D8F8283007433E4335432C4321430A43CC
:101198001343D8F8182002F400700343D8F800006D
:1011A8000360B8F81A10D8F82420D8F8003001F0F5
:1011B80004010A435A60D8F80020D069002320F4BB
:1011C80000600121D061C8F8543088F851101846E1
:1011D800BDE8F08180F8501000F0A6FDB9E70120C5
:1011E800BDE8F081034600201A68D16841F001018A
:1011F800D1601B681A6842F001021A60704700BF8C
:1012080070B490F83830012B42D00223026880F87D
:101218003930012480F83840936823F47F4323F061
:10122800770393600B68402B7ED01AD9702B69D056
:1012380031D9B3F5805F5FD0B3F5005F1FD1036884
:101248004A689C688D68C96824F47F442A4322430D
:1012580042EA01229A6003689A6842F480429A60DE
:101268000DE0102B36D03DD9202B77D0302B06D16E
:1012780003689A6822F0700242F037029A600023ED
:10128800012280F8392080F8383070BC1846704741
:10129800022070BC7047502B68D0602BEFD10368D8
:1012A8004C681A6ACD6822F010021A6299691A6AA3
:1012B80021F4704122F0A00242EA041241EA053109
:1012C80099611A6203689A6822F0700242F0670214
:1012D8009A60D4E703689A6822F0700242F0170215
:1012E8009A60CCE7002BCAD103689A6822F0700292
:1012F80042F007029A60C2E703689A6822F0070280
:101308009A60BCE703684A689C688D68C96824F4D9
:101318007F442A43224342EA01229A6003689A687A
:1013280042F077029A60AAE703684D681A6A1E6A53
:10133800CC6826F001011962996922F00A0221F0AD
:10134800F0012A4341EA041199611A6203689A6814
:1013580022F0700242F047029A6090E703689A68A8
:1013680022F0700242F027029A6088E703684D680D
:101378001A6A1E6ACC6826F001011962996922F07E
:101388000A0221F0F0012A4341EA041199611A6224
:1013980003689A6822F0700242F057029A606EE77A
:1013A800704700BF704700BF704700BF704700BF5D
:1013B80010B503681A699107044602D5DA689207DE
:1013C80065D41A69500702D5DA6851074BD41A69EF
:1013D800120702D5DA68100732D41A69D20602D584
:1013E800DA68D00618D41A69D10702D5DA68D207A4
:1013F8006FD41A69100602D5DA68110671D41A6911
:10140800520602D5DA6850065BD41A69910602D5ED
:10141800DA6892064DD410BD6FF010021A61236885
:1014280008222276DB6913F4407F204664D1FFF757
:10143800B7FF2046FFF7B8FF002223682276D2E7DD
:101448006FF008021A61236804222276DB69990783
:10145800204657D1FFF7A4FF2046FFF7A5FF00223B
:1014680023682276B9E76FF004021A612368022222
:1014780022769B6913F4407F204640D1FFF790FF06
:101488002046FFF791FF0022236822769FE76FF03E
:1014980002021A610368012202769B699B0728D120
:1014A800FFF77EFF2046FFF77FFF002223682276A2
:1014B80087E76FF020021A612046BDE8104000F06F
:1014C800D5B86FF040021A612046FFF76FFF236816
:1014D8009BE76FF001021A61204600F00BFB2368BE
:1014E80087E76FF080021A61204600F0C1F8236890
:1014F80085E7FFF757FFD8E7FFF754FF9CE7FFF7AB
:1015080051FFC0E7FFF74EFFA9E700BF314A036864
:10151800904210B449D0B0F1804F31D0A2F57C424E
:1015280090422DD002F58062904229D002F5806267
:10153800904225D002F57842904221D002F57052AF
:10154800904221D002F5806290421DD002F580625F
:10155800904219D0A2F59832904215D002F58062D7
:10156800904211D002F5806290420DD003608B68E2
:10157800C3620B688362012343615DF8044B7047C3
:101588004A6823F070031343CA6823F440731A436C
:1015980002608B68C3620B6883620F4B984211D05C
:1015A800012343615DF8044B70474C68CA6823F017
:1015B80070031C4324F44074224302608B68C362A6
:1015C8000B6883620B690363012343615DF8044B75
:1015D800704700BF000001400004014010B50446F8
:1015E800B0B190F8393003F0FF0263B1022321460D
:1015F80084F8393051F8040BFFF788FF012384F889
:101608003930002010BD80F8382000F0B5FBEDE738
:10161800012010BD30B490F83820012A034621D0AB
:101628001A680124022083F8384083F8390050688A
:1016380020F0700050601A680868556828435060A8
:101648001A68906820F0800090601868496885687A
:1016580000222943816083F8394083F838201046F6
:1016680030BC7047022030BC704700BF704700BFD5
:10167800704700BFF0B599B000212C4A0191106C59
:101688002B4B40F080501064126C02F08052019293
:10169800019A02911A6842F480421A601B6803F4A6
:1016A8008043029301250723022408214FF4A872DE
:1016B8004FF480060CA81793029F0C950D95129471
:1016C8001694139614911592FFF7E2F9034600B1A8
:1016D800FEE70F274FF4A0564FF4805207A80521C4
:1016E8000894099307970A960B92FFF7A1FB00B19C
:1016F800FEE7C02303A8059403950493FFF76EFC47
:10170800044600B1FEE7FFF74BFC0A4BA3FB0020A1
:101718008009FEF741FF0420FEF75AFF21462246C2
:101728004FF0FF30FEF7F4FE19B0F0BD003802406C
:1017380000700040D34D62102DE9F04F974DDFF84F
:1017480094920FCD93B00DF1200844460FC42B6836
:1017580023600024FEF794FEFFF78CFF904B009463
:101768001A6B904842F010021A631A6B02F01002CA
:101778000092009A01941A6B42F004021A631A6BE1
:1017880002F004020192019A02941A6B42F080025C
:101798001A631A6B02F080020292029A03941A6B7F
:1017A80042F001021A631A6B02F001020392039AD3
:1017B80004941A6B42F002021A631A6B02F00202D6
:1017C8000492049A05941A6B42F008021A631B6B80
:1017D800224603F0080348F208010593059BFFF72A
:1017E80007F801210A467048FFF702F822466F48B9
:1017F8004FF42841FEF7FCFF22466D484FF21001D6
:10180800FEF7F6FF012508270DA966480D970E95E6
:101818000F941094FEF7EEFE0DA963480D954FF056
:10182800020A0E954FF0050B0F941094FEF7E2FE96
:101838000DA95D480D970F941094CDF838A0CDF8F8
:1018480044B0FEF7D7FE0DA95A480D950F94CDF870
:101858003890FEF7CFFE04230DA954480D930E943B
:101868000F94FEF7C7FE4FF42A530DA94D480F9564
:1018780011270D930E94FEF7BDFE4FF400430DA9FA
:1018880048480D930E970F941094FEF7B3FE4FF44B
:1018980080630DA945480D93CDF844B0CDF838A024
:1018A8000F941094FEF7A6FE4FF428430DA93F4865
:1018B8000E970D930F941094FEF79CFE4FF21003B1
:1018C8000DA93B480D930E950F9410944FF4007595
:1018D800FEF790FE0DA937480E940F940D950A2730
:1018E800FEF788FE4FF4E0530DA932480D93CDF86A
:1018F80038A00F9410941197FEF77CFE20230DA9B1
:101908002B480D930E940F94FEF774FE0DA92548ED
:10191800CDF83890CDF834A00F94FEF76BFE264B27
:10192800DFF8B4E025499C604FF4804218461A61FC
:10193800DC605C619C61DC611C62C3F800E059609A
:10194800FEF75EFF024600B1FEE71D4B1D491E4C27
:101958009A601846DA609A61DA611A625D601D6100
:101968001C605961FEF7F2FF024600B1FEE7174B13
:10197800174C98604FF482711846DA601A615A6100
:101988009D61DA611A625A629A62DF621C6059606C
:10199800FFF7D2FB034608B3FEE700BFF82E0008A6
:1019A80000380240001002400008024000040240D3
:1019B800000C0240000002401C050020A086010027
:1019C8000406002000770100003C0040700500205C
:1019D8000030014000001210005400403B4C4FF012
:1019E800804542F2CF0163222046A360236125602F
:1019F8006160E260FFF7F2FD00B1FEE74FF480534B
:101A08000DA920460D93FFF7FBFB034600B1FEE747
:101A1800204606A906930793FFF7FCFD00B1FEE7F1
:101A280020462B4C2B4D2C4FFFF7DCFBA14602E048
:101A38002368013312D1FA20FEF74AFDFEF742FD72
:101A48002B6840F6B832C01A9042F1DD234800F006
:101A5800B3FC236801334FF00006ECD0FEF732FDEB
:101A6800D9F8001028601E4800F02EFCD9F8003084
:101A780047F826300136042E19DD1A4800F09CFC80
:101A88000026B246BA5958F806309A4206F10406BA
:101A980014D0142EF6D1BAF1040F15DD124800F057
:101AA8008BFC12484FF40041FEF7A6FE0026FA20F0
:101AB800FEF70EFD4FF0FF332360BCE70C480AF138
:101AC800010A00F079FCE4E70026F0E7C8050020E9
:101AD800300400205004002058040020642F00081F
:101AE800702F0008802F0008A42F0008000C024067
:101AF800902F000838B53F4D2B68013348D03E4C35
:101B08003E484FF400410122FEF772FE3C484FF474
:101B180000610122FEF76CFE39484FF400510122A2
:101B2800FEF766FE36484FF400410122FEF760FEDC
:101B38002368032B2BD8DFE803F020160C020023C0
:101B480023601A462E484FF40041BDE83840FEF79E
:101B58004FBE0323236029484FF400410022BDE80B
:101B68003840FEF745BE0223236025484FF4006144
:101B78000022BDE83840FEF73BBE01232360204821
:101B88004FF400510022BDE83840FEF731BE38BDA1
:101B98001A48194C4FF40051FEF724FE20B9236867
:101BA800184A1B01D3582B6014484FF40061FEF704
:101BB80019FE28B9134A236802EB03135B682B60EC
:101BC8000E484FF40071FEF70DFE28B90D4A236840
:101BD80002EB03139B682B6008488021FEF702FE86
:101BE80000288DD1074A236802EB0313DB682B60BA
:101BF80086E700BF30040020540400200010024093
:101C080000040240242F000808B50720FEF76EFCE8
:101C180000210A466FF00B00FEF77AFC00210A4605
:101C28006FF00A00FEF774FC00210A466FF0090005
:101C3800FEF76EFC00210A466FF00400FEF768FC10
:101C480000210A466FF00300FEF762FC00210A46F5
:101C58006FF00100FEF75CFC00210A464FF0FF30F0
:101C6800BDE80840FEF754BC30B5124B02689A42F2
:101C780087B001D007B030BD04234FF410710122A2
:101C88000024019112250DEB03010B4803920593E3
:101C980002950494FEF7AEFC084B00941A6C42F4CB
:101CA80000121A641B6C03F400130093009B07B026
:101CB80030BD00BF0054004000040240003802401C
:101CC80070B5164B02689A4286B001D006B070BD56
:101CD800002403F5FE3300941A6C114842F40042C4
:101CE8001A641B6C039403F40043009301A91023A6
:101CF80002260625009A0193049402960595FEF79C
:101D080079FC4FF4A45301A906480296039404945D
:101D180005950193FEF76EFC06B070BD003C0040CF
:101D2800000002400008024070B5104B02689A4259
:101D380086B001D006B070BD00230D4A0093516CE7
:101D48000C4841F480515164526C039302F4805260
:101D58000092E0250522022401A9009E0493019522
:101D680002940592FEF746FC06B070BD00300140B3
:101D7800003802400000024000B50368B3F1804F0C
:101D880083B002D003B05DF804FB002103F50E33E5
:101D980001911A6C42F001021A641B6C03F00103F2
:101DA80001930A461C20019BFEF7B2FB1C20FEF79C
:101DB800E7FB03B05DF804FB08B5FEF77BFBBDE865
:101DC8000840FEF713BC00BF0148FFF7F1BA00BF97
:101DD800C80500200A4B10B50446186818B1836975
:101DE8000BB900F0B3F9132C07D8064850F8343073
:101DF800013302D000EBC40010BD002010BD00BFAD
:101E08002804002070040020F8B5044600F044F9C6
:101E180000270546132630463946ABBE06462E60D7
:101E28002046F8BD431C01D1FFF7EEBF704730B51F
:101E380085B001AD019002910392062420462946FF
:101E4800ABBE04462046FFF7EDFF05B030BD70B5C8
:101E58000E461546FFF7BEFF044630B900F01CF9E0
:101E6800092303604FF0FF3070BD006831462A46F1
:101E7800FFF7DDFF431C03D06368281A034463603F
:101E880070BDF7B50C461646FFF7A4FF054618B90E
:101E980000F002F9092304E0022E04D900F0FCF84E
:101EA8001623036017E0012E03D14368E41815D503
:101EB800F4E7022E12D102AE036846F8083D0C275B
:101EC80038463146ABBE06463046FFF7ABFF431CEB
:101ED80018BF241802D14FF0FF300FE02B686F466F
:101EE8008DE818000A2630463946ABBE064630460D
:101EF800FFF798FF0028EEDB6C60204603B0F0BDCA
:101F0800FFF7BFBF30B585B001AD019002910392D4
:101F1800052420462946ABBE04462046FFF782FF2B
:101F280005B030BD70B50E461546FFF753FF0446A1
:101F380020B900F0B1F80923036011E000683146C8
:101F48002A46FFF7DFFF031E0ADB6268E81A02442D
:101F58009D42626006D10020BDE87040FFF754BF83
:101F68004FF0FF3070BD37B502AC022544F8040DC0
:101F780028462146ABBE04462046FFF753FF03B070
:101F880030BD000038B50546FFF724FF044630B9D8
:101F980000F082F8092303604FF0FF3038BD013D9F
:101FA800012D09D8084B9A681B699A4204D14FF051
:101FB800FF330360002038BD2068FFF7D4FF10B955
:101FC8004FF0FF33236038BD7004002008B50A4B7A
:101FD8001A680AB9094A1A601B686A461844904286
:101FE80006D900F059F80C2303604FF0FF3008BD04
:101FF800014A1060184608BD6C04002050060020F5
:1020080070B50C46FFF7E6FE054630B900F044F817
:10201800092303604FF0FF3070BD636843F4005339
:1020280063604FF48063E3620C2630462946ABBEFA
:1020380005462846FFF7F6FE431C1CBF206100201A
:1020480070BD38B53C2205460C4608460021FEF70F
:10205800E9F828462146BDE83840FFF7D1BF70B5FA
:10206800FFF7B8FE0925044618B900F015F8056011
:102078000FE028462146ABBE0446012C09D000F0EB
:102088000BF800240546132630462146ABBE06460B
:102098002E60204670BD0000014B1868704700BFD5
:1020A80028040020F8B5074600F1480494B1A56853
:1020B8006668013E0CD4AB89012B07D9B5F90E30FF
:1020C800013303D03846294600F0F4FD6835F0E7BF
:1020D8002468EBE7F8BD0000002310B50446036050
:1020E8004360836081814366C28103614361836188
:1020F80019465C300822FEF795F8054B6362054BDC
:10210800A362054BE362054B2462236310BD00BF45
:10211800F1230008132400084B2400086F2400084A
:1021280070B54B1E68255D430E4605F1740100F03D
:1021380077F8044640B1002180E842000C30A060E6
:1021480005F16802FEF76EF8204670BD836910B588
:10215800044633BB8364C3640365124B124A1B688D
:102168008262984204BF0123836100F01FF8606017
:10217800204600F01BF8A060204600F017F8042164
:10218800E06000226068FFF7A7FFA068092101222C
:10219800FFF7A2FFE06812210222FFF79DFF01234B
:1021A800A36110BD102F0008AD200008F8B51B4B27
:1021B8001E68B369074613B93046FFF7C7FF4836AC
:1021C800B4687368013B04D4B4F90C5075B1683431
:1021D800F8E733682BB938460421FFF7A1FF3060D0
:1021E80008B13668ECE70C233B60F8BD4FF6FF7387
:1021F800E3810123A38165662560A560656025618B
:102208006561A56104F15C0029460822FEF70AF819
:102218006563A563A564E5642046F8BD102F000832
:1022280070B5CD1C25F0030508350C2D38BF0C25DD
:10223800002D06463FDB8D423DD3214B1C681846D6
:102248002146A1B10B685B1B0ED40B2B03D90B6085
:10225800CC18CD501FE08C4202D1626802601AE0AF
:102268004B6863600C4616E00C464968E9E7154C74
:1022780023681BB9304600F0A7F82060294630468D
:1022880000F0A2F8431C014615D0C41C24F0030436
:1022980084420AD1256004F10B00231D20F00700B9
:1022A800C31A0BD05A42E25070BD3046611A00F092
:1022B8008BF80130EED10C233360002070BD00BFD5
:1022C80014050020100500200FB40A4B13B51C6834
:1022D80024B1A36913B92046FFF738FF05AB2046A0
:1022E800A168049A019300F0F3F802B0BDE8104029
:1022F80004B070472804002070B50E46054618B192
:1023080083690BB9FFF722FFAC68A389190701D5C8
:10231800236983B92846214600F0CAFB58B14FF01B
:10232800FF3070BD002B0EDB236816F8012C1A70E5
:10233800236801332360A36816F8012B013BA360CF
:10234800002AEFD117E0A269934209DB236816F847
:10235800012C1A70236819780A29EAD1284602E064
:1023680016F8011C2846224600F03CFBB0F1FF326B
:1023780050425041D2E7002B16DAA269934208DB9B
:1023880023680A221A7023681978914210D12846C6
:1023980001E028460A21224600F024FBB0F1FF3371
:1023A8005842584130B1BAE723680A221A702368A4
:1023B800013323600A2070BD024B01461868FFF7FD
:1023C8009BBF00BF2804002038B5064C00230546F3
:1023D80008462360FFF7FAFD431C02D1236803B1C6
:1023E8002B6038BD4806002010B50C46B1F90E1018
:1023F80000F03EFD002803DB636D0344636510BDF8
:10240800A38923F48053A38110BD2DE9F0411D4613
:102418008B89DB0507460C46164605D5B1F90E1023
:102428000022022300F070FCA389B4F90E1023F4F3
:102438008053A381384632462B46BDE8F04100F070
:1024480025BB10B50C46B1F90E1000F05DFC431C1D
:10245800A38903D123F48053A38110BD43F480538F
:10246800A381606510BDB1F90E1000F08FBB034663
:1024780013F8012B002AFBD1181A0138704793680A
:10248800013B002B10B5936005DA9469A34208DB81
:10249800CBB20A2B05D01368581C10601970C8B24B
:1024A80010BDBDE8104000F09DBAF8B505460E46CF
:1024B8001446D718BC4208D0284614F8011B3246E7
:1024C800FFF7DDFF431CF5D100E00020F8BD000058
:1024D8002DE9F0439DB00D4617460393064618B103
:1024E80083690BB9FFF732FE734B9D4201D17568C2
:1024F80008E0724B9D4201D1B56803E0704B9D42E4
:1025080008BFF568AB8918070AD52B6943B10023C2
:10251800099320238DF8293030238DF82A3038E0AC
:102528003046294600F0C4FA0028F0D04FF0FF30BA
:10253800BFE0039A111D12680391002A70DB07920D
:10254800013423782E2B7DD05E4F21783846032224
:1025580000F03AFC30B1C71B049B4020B84003434D
:1025680004930134217858488DF828100622671CF6
:1025780000F02AFC002800F08A80544B002B7DD103
:10258800039B073323F0070308330393099B434452
:1025980009933B461C4613F8012B1AB9B4EB0709FB
:1025A8000ED002E0252AF5D1F8E7304629463A460A
:1025B8004B46FFF77AFF013076D0099B4B440993CD
:1025C8002378002B70D000234FF0FF320493079339
:1025D800059206938DF853301A9304F101094C467D
:1025E8003B4F21783846052200F0EEFB09F101093E
:1025F800049B28B1C71B0120B84003430493EEE7AE
:10260800D90644BF20228DF853201A0744BF2B2235
:102618008DF8532022782A2A8BD0079B214605E083
:10262800524243F002030792049389E70C460131B2
:102638002278303A092A03D80A2000FB0323F5E759
:1026480007937EE763782A2B0AD1039B1A1D1B6820
:102658000392002B04F10204B8BF4FF0FF330BE0E4
:10266800611C00230C4601312278303A092A03D82C
:102678000A2000FB0323F5E7059365E703AB009306
:10268800304604A92A46134BAFF3008007E003AB9A
:102698000093304604A92A460E4B00F08FF8B0F19B
:1026A800FF3F80467FF472AFAB895B063FF53EAFD4
:1026B80009981DB0BDE8F083B02F0008D02F00089E
:1026C800F02F0008163000081A300008000000003B
:1026D80010300008B32400082DE9F84315461F46BA
:1026E8008A680B69DDF820809A42A8BF13462B60E0
:1026F80091F8432006460C460AB101332B60236843
:10270800990602D52B6802332B60236813F006095B
:102718001DD094F843302268003318BF0123920675
:102728001FD5E1185A1C302081F84300224494F840
:10273800451082F84310023313E03046394604F15D
:1027480019020123C047013007D009F10109E268E5
:102758002B68D31A9945F0DBDBE74FF0FF30BDE873
:10276800F8833046394604F14302C0470130F4D0BB
:1027780023682A68E16803F00603042B08BFC2EB4C
:1027880001052369A2680CBF25EAE57500259A4270
:10279800C4BFC3EB0203ED184FF00009A9450ADADC
:1027A8003046394604F11A020123C0470130D4D01B
:1027B80009F10109F2E70020BDE8F8832DE9FF4798
:1027C8000E7E0C9D6E2E80460C4691469A4601F16F
:1027D800430000F0A58011D8632E22D009D8002E1E
:1027E80000F0AF80582E40F0BF8081F845607B4AEA
:1027F8004FE0642E1ED0692E1CD0B5E0732E00F079
:10280800A48009D86F2E2BD0702E40F0AD800B68B5
:1028180043F020030B6038E0752E21D0782E34D099
:10282800A2E02B681A1D1B682A6001F1420781F893
:1028380042309DE022682B6812F0800F03D01A1DE9
:102848002A601D6805E05106F9D51A1D2A60B3F9FA
:102858000050002D39DA2D236D4284F8433034E0DE
:1028680022682B6812F0800F03D01A1D2A601D6899
:1028780004E05206F9D51A1D2A601D88237E574A9E
:102888006F2B14BF0A2308231BE07823544A84F8CB
:1028980045302368296813F0800F01F104062E6083
:1028A80001D00D6802E05F06FBD50D88DE0744BF46
:1028B80043F0200323601DB9236823F0200323601D
:1028C8001023002184F8431001E0444A0A23666873
:1028D800A660002E03DB216821F00401216005B900
:1028E8006EB104F14201B5FBF3F603FB16550F4632
:1028F800555D01F801593546002EF4D100E0074630
:10290800082B0AD12368DD0707D5626823699A4234
:1029180003DC302307F8013C013FC01B20612CE099
:1029280009682B68626911F0800F04D0191D2960AD
:102938001B681A6005E04906F8D5191D29601B684F
:102948001A8000232361074617E02B681A1D2A60A6
:102958001F683846FFF78BFD63682061984288BF7F
:1029680023612369636005E004F1420784F842604B
:1029780001232361002384F84330CDF800A04046AA
:10298800214603AA4B46FFF7A7FE013002D14FF0BC
:10299800FF301FE0404649463A462369D047013098
:1029A800F5D023689B0705D4E068039B9842B8BF1D
:1029B80018460FE00025E268039BD31A9D42F3DA1C
:1029C8004046494604F119020123D0470130DED0C0
:1029D8000135F0E704B0BDE8F08700BF21300008FA
:1029E8003230000870B50E461446054618B18369A2
:1029F8000BB9FFF7ABFB224B9C4201D16C6808E096
:102A0800204B9C4201D1AC6803E01F4B9C4208BF9D
:102A1800EC68A369A360A3891A0709D523693BB1A8
:102A280023692068C01A63699842F6B20FDB08E090
:102A38002846214600F03CF80028F1D04FF0FF303E
:102A480070BD2846214600F035F90028F6D1A36864
:102A5800013BA36023685A1C22601E706369013021
:102A6800984204D0A389DB0707D50A2E05D128464A
:102A7800214600F01FF90028E0D1304670BD00BFA4
:102A8800B02F0008D02F0008F02F000838B5074CE9
:102A9800054600202060084611461A46FFF742FA0C
:102AA800431C02D1236803B12B6038BD48060020BF
:102AB800324B70B51D6806460C4625B1AB6913B993
:102AC8002846FFF743FB2E4B9C4201D16C6808E077
:102AD8002C4B9C4201D1AC6803E02B4B9C4208BFB5
:102AE800EC68A28993B2190720D4DD0605D409231E
:102AF80042F040023360A2813BE0580712D5616B77
:102B080041B104F14403994202D0304600F06CF917
:102B180000236363A38923F02403A3810023636054
:102B280023692360A38943F00803A38123694BB970
:102B3800A38903F42073B3F5007F03D03046214600
:102B480000F0F4F8A38913F0010205D00022A26076
:102B580062695242A26103E0990758BF6269A260A4
:102B680022694AB903F0800080B230B143F04003D3
:102B7800A3814FF0FF3070BD002070BD28040020F5
:102B8800B02F0008D02F0008F02F000838B5064CE9
:102B98000023054608462360FFF7F4F9431C02D1D9
:102BA800236803B12B6038BD480600208A892DE9C7
:102BB800F041054610070C4657D44B68002B02DC41
:102BC8000B6C002B18DDE66AB6B102F480520023C4
:102BD80092B22F682B600AB1626D10E0216A284614
:102BE8000123B047411C024609D12B683BB11D2B7C
:102BF80001D0162B46D12F600020BDE8F081A389B3
:102C08005B0705D56368D21A636B0BB1236CD21AC4
:102C1800E66A216A28460023B047461CA28905D1E6
:102C28002B681BB11D2B01D0162B19D10023636013
:102C3800D1042369236004D5421C01D12B6803B950
:102C48006065616B2F600029D6D004F14403994276
:102C580002D0284600F0C8F800206063BDE8F08183
:102C680042F04002A281BDE8F0810E69002EC3D077
:102C78000B680E60C6EB030893070CBF4B69002373
:102C88008B6012E0A38943F04003A3814FF0FF302B
:102C9800BDE8F081A76A216A284632464346B8470C
:102CA8000028EFDD0644C0EB0808B8F1000FF1DC9E
:102CB800A2E7000038B50B6905460C46DBB118B130
:102CC80083690BB9FFF742FA0C4B9C4201D16C683F
:102CD80008E00B4B9C4201D1AC6803E0094B9C42D5
:102CE80008BFEC68B4F90C302BB128462146BDE882
:102CF8003840FFF75BBF002038BD00BFB02F000889
:102D0800D02F0008F02F000838B5074C05460020E2
:102D18002060084611461A46FFF7F2F8431C02D114
:102D2800236803B12B6038BD48060020F0B58B89B5
:102D38009E0791B005460C4626D4B1F90E1000291D
:102D480009DAA38913F0800F4FF0000714BF40265B
:102D58004FF480660DE001AA00F09CF80028F0DB33
:102D6800029F07F47047B7F500514F424F414FF4A7
:102D7800806628463146FFF753FA60B9A3899A0559
:102D88001DD443F00203A38104F1470323602361A8
:102D98000123636113E00B4BAB62A389206043F00E
:102DA8008003A381206166614FB12846B4F90E10F3
:102DB80000F082F818B1A38943F00103A38111B090
:102DC800F0BD00BFAD20000810B5C9B20244904262
:102DD800034606D01C788C4200F10100F7D1184652
:102DE80010BD002010BD000030B500293CD051F8BE
:102DF800042C0B1F1D49002AB8BF9B180A680C46F3
:102E080012B95A600B6030BD93420DD21968581838
:102E1800904203D15A581144426819605A6023609D
:102E280030BD994203D80A4651680029F9D114687F
:102E380015199D420AD11B682344D0188842136093
:102E480012D10868034413604B680CE002D90C23C4
:102E5800036030BD18681C188C4203D10C6849689F
:102E6800204418605960536030BD00BF140500202D
:102E780038B5074C054600202060084611461A461A
:102E8800FEF7E5FF431C02D1236803B12B6038BD70
:102E98004806002038B5074C002305460846114669
:102EA8002360FFF7CEF8431C02D1236803B12B60DF
:102EB80038BD00BF4806002038B5064C002305463B
:102EC80008462360FFF7CBF8431C02D1236803B1FF
:102ED8002B6038BD48060020F8B500BFF8BC08BC18
:102EE8009E467047F8B500BFF8BC08BC9E467047C0
:102EF80007000000090000000300000002000000B5
:102F08000C0000004300000000000020000000004A
:102F18000102030401020304060708090100000076
:102F2800020000000300000015000000040000007B
:102F38000500000006000000160000000700000061
:102F48000800000009000000170000000B00000046
:102F5800000000000C0000001800000054696D65B6
:102F6800206F757400000000537469736B6E75747C
:102F78006F3A2025640A00004E756C756A692063F3
:102F88006F756E7465722000496E6B72656D656E43
:102F980074756A69206D6174636820004F74657682
:102FA80072656E6F20000000000000000000000045
:102FB8000000000000000000000000000000000009
:102FC80000000000000000000000000000000000F9
:102FD80000000000000000000000000000000000E9
:102FE80000000000000000000000000000000000D9
:102FF80000000000000000000000000000000000C9
:103008000000000000000000232D302B2000686C19
:103018004C006566674546470030313233343536F3
:10302800373839414243444546003031323334352C
:0C30380036373839616263646566000059
:08304400C1020008AD01000803
:04304C0089010008EE
:1030500000000000EC02002054030020BC0300200C
:103060000000000000000000000000000000000060
:103070000000000000000000000000000000000050
:10308000000000000C2F00080000000000000000FD
:103090000000000000000000000000000000000030
:1030A0000000000000000000000000000000000020
:1030B0000000000000000000000000000000000010
:1030C0000000000000000000000000000000000000
:1030D00000000000000000000000000000000000F0
:1030E00000000000000000000000000000000000E0
:1030F00000000000000000000100000000000000CF
:103100000E33CDAB34126DE6ECDE05000B00000093
:1031100000000000000000000000000000000000AF
:10312000000000000000000000000000000000009F
:10313000000000000000000000000000000000008F
:10314000000000000000000000000000000000007F
:103470000000000000000000000000200024F40014
:04348000FFFFFFFF4C
:04000005080003B933
:00000001FF
